{"contracts/Verifydata.sol":{"VerifyData":{"abi":[{"inputs":[{"internalType":"address","name":"router","type":"address"}],"stateMutability":"nonpayable","type":"constructor"},{"inputs":[],"name":"EmptyArgs","type":"error"},{"inputs":[],"name":"EmptySecrets","type":"error"},{"inputs":[],"name":"EmptySource","type":"error"},{"inputs":[],"name":"NoInlineSecrets","type":"error"},{"inputs":[],"name":"OnlyRouterCanFulfill","type":"error"},{"inputs":[{"internalType":"bytes32","name":"requestId","type":"bytes32"}],"name":"UnexpectedRequestID","type":"error"},{"anonymous":false,"inputs":[{"indexed":false,"internalType":"address","name":"Creater","type":"address"},{"indexed":false,"internalType":"bytes32","name":"dataHash","type":"bytes32"},{"indexed":false,"internalType":"uint256","name":"dataPrice","type":"uint256"},{"indexed":false,"internalType":"uint256","name":"dataId","type":"uint256"},{"indexed":false,"internalType":"string","name":"dataDescribe","type":"string"}],"name":"CreaterCreated","type":"event"},{"anonymous":false,"inputs":[{"indexed":false,"internalType":"uint256","name":"dataId","type":"uint256"},{"indexed":false,"internalType":"bytes32","name":"dataHash","type":"bytes32"}],"name":"DataHashGenerated","type":"event"},{"anonymous":false,"inputs":[{"indexed":true,"internalType":"address","name":"from","type":"address"},{"indexed":true,"internalType":"address","name":"to","type":"address"}],"name":"OwnershipTransferRequested","type":"event"},{"anonymous":false,"inputs":[{"indexed":true,"internalType":"address","name":"from","type":"address"},{"indexed":true,"internalType":"address","name":"to","type":"address"}],"name":"OwnershipTransferred","type":"event"},{"anonymous":false,"inputs":[{"indexed":true,"internalType":"bytes32","name":"id","type":"bytes32"}],"name":"RequestFulfilled","type":"event"},{"anonymous":false,"inputs":[{"indexed":true,"internalType":"bytes32","name":"id","type":"bytes32"}],"name":"RequestSent","type":"event"},{"anonymous":false,"inputs":[{"indexed":true,"internalType":"bytes32","name":"requestId","type":"bytes32"},{"indexed":false,"internalType":"bytes","name":"response","type":"bytes"},{"indexed":false,"internalType":"bytes","name":"err","type":"bytes"}],"name":"Response","type":"event"},{"anonymous":false,"inputs":[{"indexed":false,"internalType":"address","name":"User","type":"address"},{"indexed":false,"internalType":"uint256","name":"dataPrice","type":"uint256"},{"indexed":false,"internalType":"uint256","name":"selectId","type":"uint256"}],"name":"UserCreated","type":"event"},{"inputs":[{"internalType":"string","name":"uri","type":"string"},{"internalType":"uint256","name":"price","type":"uint256"},{"internalType":"string","name":"descriptor","type":"string"}],"name":"CreateData","outputs":[],"stateMutability":"nonpayable","type":"function"},{"inputs":[{"internalType":"uint256","name":"selectId","type":"uint256"}],"name":"CreateUser","outputs":[],"stateMutability":"payable","type":"function"},{"inputs":[{"internalType":"uint256","name":"dataId","type":"uint256"}],"name":"GetDataDescribe","outputs":[{"internalType":"string","name":"","type":"string"}],"stateMutability":"view","type":"function"},{"inputs":[{"internalType":"string","name":"uri","type":"string"},{"internalType":"uint256","name":"dataId","type":"uint256"}],"name":"GetDataHash","outputs":[{"internalType":"bytes32","name":"","type":"bytes32"}],"stateMutability":"nonpayable","type":"function"},{"inputs":[],"name":"GetDataLength","outputs":[{"internalType":"uint256","name":"","type":"uint256"}],"stateMutability":"view","type":"function"},{"inputs":[{"internalType":"uint256","name":"dataId","type":"uint256"}],"name":"GetDataPrice","outputs":[{"internalType":"uint256","name":"","type":"uint256"}],"stateMutability":"view","type":"function"},{"inputs":[{"internalType":"uint256","name":"dataId","type":"uint256"}],"name":"GetDataUser","outputs":[{"internalType":"address[]","name":"","type":"address[]"}],"stateMutability":"view","type":"function"},{"inputs":[],"name":"acceptOwnership","outputs":[],"stateMutability":"nonpayable","type":"function"},{"inputs":[{"internalType":"bytes32","name":"requestId","type":"bytes32"},{"internalType":"bytes","name":"response","type":"bytes"},{"internalType":"bytes","name":"err","type":"bytes"}],"name":"handleOracleFulfillment","outputs":[],"stateMutability":"nonpayable","type":"function"},{"inputs":[],"name":"owner","outputs":[{"internalType":"address","name":"","type":"address"}],"stateMutability":"view","type":"function"},{"inputs":[],"name":"s_lastError","outputs":[{"internalType":"bytes","name":"","type":"bytes"}],"stateMutability":"view","type":"function"},{"inputs":[],"name":"s_lastRequestId","outputs":[{"internalType":"bytes32","name":"","type":"bytes32"}],"stateMutability":"view","type":"function"},{"inputs":[],"name":"s_lastResponse","outputs":[{"internalType":"bytes","name":"","type":"bytes"}],"stateMutability":"view","type":"function"},{"inputs":[{"internalType":"string","name":"source","type":"string"},{"internalType":"bytes","name":"encryptedSecretsUrls","type":"bytes"},{"internalType":"uint8","name":"donHostedSecretsSlotID","type":"uint8"},{"internalType":"uint64","name":"donHostedSecretsVersion","type":"uint64"},{"internalType":"string[]","name":"args","type":"string[]"},{"internalType":"bytes[]","name":"bytesArgs","type":"bytes[]"},{"internalType":"uint64","name":"subscriptionId","type":"uint64"},{"internalType":"uint32","name":"gasLimit","type":"uint32"},{"internalType":"bytes32","name":"donID","type":"bytes32"}],"name":"sendRequest","outputs":[{"internalType":"bytes32","name":"requestId","type":"bytes32"}],"stateMutability":"nonpayable","type":"function"},{"inputs":[{"internalType":"address","name":"to","type":"address"}],"name":"transferOwnership","outputs":[],"stateMutability":"nonpayable","type":"function"}],"devdoc":{"kind":"dev","methods":{"handleOracleFulfillment(bytes32,bytes,bytes)":{"details":"Either response or error parameter will be set, but never both.","params":{"err":"Aggregated error either from the request's source code or from the execution pipeline.","requestId":"The requestId returned by FunctionsClient.sendRequest().","response":"Aggregated response from the request's source code."}},"sendRequest(string,bytes,uint8,uint64,string[],bytes[],uint64,uint32,bytes32)":{"params":{"args":"List of arguments accessible from within the source code","bytesArgs":"Array of bytes arguments, represented as hex strings","donHostedSecretsSlotID":"Don hosted secrets slotId","donHostedSecretsVersion":"Don hosted secrets version","encryptedSecretsUrls":"Encrypted URLs where to fetch user secrets","source":"JavaScript source code","subscriptionId":"Billing ID"}}},"version":1},"evm":{"bytecode":{"linkReferences":{},"object":"60a06040523480156200001157600080fd5b5060405162003aca38038062003aca83398181016040528101906200003791906200030d565b33806000838073ffffffffffffffffffffffffffffffffffffffff1660808173ffffffffffffffffffffffffffffffffffffffff168152505050600073ffffffffffffffffffffffffffffffffffffffff168273ffffffffffffffffffffffffffffffffffffffff1603620000e3576040517f08c379a0000000000000000000000000000000000000000000000000000000008152600401620000da90620003a0565b60405180910390fd5b816000806101000a81548173ffffffffffffffffffffffffffffffffffffffff021916908373ffffffffffffffffffffffffffffffffffffffff160217905550600073ffffffffffffffffffffffffffffffffffffffff168173ffffffffffffffffffffffffffffffffffffffff16146200016a5762000169816200017460201b60201c565b5b5050505062000434565b3373ffffffffffffffffffffffffffffffffffffffff168173ffffffffffffffffffffffffffffffffffffffff1603620001e5576040517f08c379a0000000000000000000000000000000000000000000000000000000008152600401620001dc9062000412565b60405180910390fd5b80600160006101000a81548173ffffffffffffffffffffffffffffffffffffffff021916908373ffffffffffffffffffffffffffffffffffffffff1602179055508073ffffffffffffffffffffffffffffffffffffffff1660008054906101000a900473ffffffffffffffffffffffffffffffffffffffff1673ffffffffffffffffffffffffffffffffffffffff167fed8889f560326eb138920d842192f0eb3dd22b4f139c87a2c57538e05bae127860405160405180910390a350565b600080fd5b600073ffffffffffffffffffffffffffffffffffffffff82169050919050565b6000620002d582620002a8565b9050919050565b620002e781620002c8565b8114620002f357600080fd5b50565b6000815190506200030781620002dc565b92915050565b600060208284031215620003265762000325620002a3565b5b60006200033684828501620002f6565b91505092915050565b600082825260208201905092915050565b7f43616e6e6f7420736574206f776e657220746f207a65726f0000000000000000600082015250565b6000620003886018836200033f565b9150620003958262000350565b602082019050919050565b60006020820190508181036000830152620003bb8162000379565b9050919050565b7f43616e6e6f74207472616e7366657220746f2073656c66000000000000000000600082015250565b6000620003fa6017836200033f565b91506200040782620003c2565b602082019050919050565b600060208201905081810360008301526200042d81620003eb565b9050919050565b60805161367362000457600039600081816103a501526115b201526136736000f3fe6080604052600436106100e85760003560e01c806352a81eeb1161008a578063c6922b5411610059578063c6922b54146102e4578063e9c8c97d14610321578063edea7dfd1461033d578063f2fde38b1461037a576100e8565b806352a81eeb1461023a57806379ba5097146102775780638da5cb5b1461028e578063b1e21749146102b9576100e8565b80633944ea3a116100c65780633944ea3a1461017e578063468926bf146101a9578063491d98f4146101e65780634b0795a81461020f576100e8565b80630ca76175146100ed5780630e1d195714610116578063227fd8e614610141575b600080fd5b3480156100f957600080fd5b50610114600480360381019061010f91906120d4565b6103a3565b005b34801561012257600080fd5b5061012b610465565b6040516101389190612178565b60405180910390f35b34801561014d57600080fd5b5061016860048036038101906101639190612260565b610472565b60405161017591906122cb565b60405180910390f35b34801561018a57600080fd5b506101936104b9565b6040516101a09190612365565b60405180910390f35b3480156101b557600080fd5b506101d060048036038101906101cb9190612387565b610547565b6040516101dd9190612409565b60405180910390f35b3480156101f257600080fd5b5061020d6004803603810190610208919061242b565b6105fe565b005b34801561021b57600080fd5b506102246107cb565b6040516102319190612365565b60405180910390f35b34801561024657600080fd5b50610261600480360381019061025c9190612732565b610859565b60405161026e91906122cb565b60405180910390f35b34801561028357600080fd5b5061028c610933565b005b34801561029a57600080fd5b506102a3610ac8565b6040516102b091906128ad565b60405180910390f35b3480156102c557600080fd5b506102ce610af1565b6040516102db91906122cb565b60405180910390f35b3480156102f057600080fd5b5061030b60048036038101906103069190612387565b610af7565b6040516103189190612986565b60405180910390f35b61033b60048036038101906103369190612387565b610baa565b005b34801561034957600080fd5b50610364600480360381019061035f9190612387565b610ded565b6040516103719190612178565b60405180910390f35b34801561038657600080fd5b506103a1600480360381019061039c91906129d4565b610e1c565b005b7f000000000000000000000000000000000000000000000000000000000000000073ffffffffffffffffffffffffffffffffffffffff163373ffffffffffffffffffffffffffffffffffffffff1614610428576040517fc6829f8300000000000000000000000000000000000000000000000000000000815260040160405180910390fd5b610433838383610e30565b827f85e1543bf2f84fe80c6badbce3648c8539ad1df4d2b3d822938ca0538be727e660405160405180910390a2505050565b6000600280549050905090565b600080600090507f1544746eae3c1b8f427233b95f131f429cd2a05d31552f70f9a221ee65b0201283826040516104aa929190612a01565b60405180910390a15092915050565b600580546104c690612a59565b80601f01602080910402602001604051908101604052809291908181526020018280546104f290612a59565b801561053f5780601f106105145761010080835404028352916020019161053f565b820191906000526020600020905b81548152906001019060200180831161052257829003601f168201915b505050505081565b60606002828154811061055d5761055c612a8a565b5b9060005260206000209060060201600501805461057990612a59565b80601f01602080910402602001604051908101604052809291908181526020018280546105a590612a59565b80156105f25780601f106105c7576101008083540402835291602001916105f2565b820191906000526020600020905b8154815290600101906020018083116105d557829003601f168201915b50505050509050919050565b60008067ffffffffffffffff81111561061a57610619611fa9565b5b6040519080825280602002602001820160405280156106485781602001602082028036833780820191505090505b509050600061065985600354610472565b905060006040518060c001604052803373ffffffffffffffffffffffffffffffffffffffff1681526020018481526020018381526020018681526020016003548152602001858152509050600281908060018154018082558091505060019003906000526020600020906006020160009091909190915060008201518160000160006101000a81548173ffffffffffffffffffffffffffffffffffffffff021916908373ffffffffffffffffffffffffffffffffffffffff1602179055506020820151816001019080519060200190610733929190611df1565b5060408201518160020155606082015181600301556080820151816004015560a08201518160050190816107679190612c65565b5050506003600081548092919061077d90612d66565b91905055507f9574f6c8401ed36a66ec5b76eebd8617deb7f5629780ba001b08629662471dfa338387600354886040516107bb959493929190612dae565b60405180910390a1505050505050565b600680546107d890612a59565b80601f016020809104026020016040519081016040528092919081815260200182805461080490612a59565b80156108515780601f1061082657610100808354040283529160200191610851565b820191906000526020600020905b81548152906001019060200180831161083457829003601f168201915b505050505081565b6000610863610ed7565b61086b611e7b565b61087e8b82610f6790919063ffffffff16565b60008a5111156108a05761089b8a82610f7890919063ffffffff16565b6108ca565b60008867ffffffffffffffff1611156108c9576108c8898983610ff19092919063ffffffff16565b5b5b6000875111156108e8576108e7878261110190919063ffffffff16565b5b60008651111561090657610905868261114990919063ffffffff16565b5b61091a61091282611191565b8686866115ad565b6004819055506004549150509998505050505050505050565b600160009054906101000a900473ffffffffffffffffffffffffffffffffffffffff1673ffffffffffffffffffffffffffffffffffffffff163373ffffffffffffffffffffffffffffffffffffffff16146109c3576040517f08c379a00000000000000000000000000000000000000000000000000000000081526004016109ba90612e54565b60405180910390fd5b60008060009054906101000a900473ffffffffffffffffffffffffffffffffffffffff169050336000806101000a81548173ffffffffffffffffffffffffffffffffffffffff021916908373ffffffffffffffffffffffffffffffffffffffff1602179055506000600160006101000a81548173ffffffffffffffffffffffffffffffffffffffff021916908373ffffffffffffffffffffffffffffffffffffffff1602179055503373ffffffffffffffffffffffffffffffffffffffff168173ffffffffffffffffffffffffffffffffffffffff167f8be0079c531659141344cd1fd0a4f28419497f9722a3daafe3b4186f6b6457e060405160405180910390a350565b60008060009054906101000a900473ffffffffffffffffffffffffffffffffffffffff16905090565b60045481565b606060028281548110610b0d57610b0c612a8a565b5b9060005260206000209060060201600101805480602002602001604051908101604052809291908181526020018280548015610b9e57602002820191906000526020600020905b8160009054906101000a900473ffffffffffffffffffffffffffffffffffffffff1673ffffffffffffffffffffffffffffffffffffffff1681526020019060010190808311610b54575b50505050509050919050565b60028181548110610bbe57610bbd612a8a565b5b906000526020600020906006020160030154341015610c12576040517f08c379a0000000000000000000000000000000000000000000000000000000008152600401610c0990612ee6565b60405180910390fd5b600060028281548110610c2857610c27612a8a565b5b906000526020600020906006020160000160009054906101000a900473ffffffffffffffffffffffffffffffffffffffff1673ffffffffffffffffffffffffffffffffffffffff1634604051610c7d90612f37565b60006040518083038185875af1925050503d8060008114610cba576040519150601f19603f3d011682016040523d82523d6000602084013e610cbf565b606091505b5050905080610d03576040517f08c379a0000000000000000000000000000000000000000000000000000000008152600401610cfa90612f98565b60405180910390fd5b60028281548110610d1757610d16612a8a565b5b9060005260206000209060060201600101339080600181540180825580915050600190039060005260206000200160009091909190916101000a81548173ffffffffffffffffffffffffffffffffffffffff021916908373ffffffffffffffffffffffffffffffffffffffff1602179055507fb7805c98ca12cecf0d6d4c9a5bb7f250cbc2a1eb545e287b4aa0dbff31df5c933360028481548110610dbf57610dbe612a8a565b5b90600052602060002090600602016003015484604051610de193929190612fb8565b60405180910390a15050565b600060028281548110610e0357610e02612a8a565b5b9060005260206000209060060201600301549050919050565b610e24610ed7565b610e2d81611690565b50565b8260045414610e7657826040517fd068bf5b000000000000000000000000000000000000000000000000000000008152600401610e6d91906122cb565b60405180910390fd5b8160059081610e85919061304a565b508060069081610e95919061304a565b50827f7873807bf6ddc50401cd3d29bbe0decee23fd4d68d273f4b5eb83cded4d2f17260056006604051610eca9291906131a0565b60405180910390a2505050565b60008054906101000a900473ffffffffffffffffffffffffffffffffffffffff1673ffffffffffffffffffffffffffffffffffffffff163373ffffffffffffffffffffffffffffffffffffffff1614610f65576040517f08c379a0000000000000000000000000000000000000000000000000000000008152600401610f5c90613223565b60405180910390fd5b565b610f7482600080846117bc565b5050565b6000815103610fb3576040517fe889636f00000000000000000000000000000000000000000000000000000000815260040160405180910390fd5b600182602001906002811115610fcc57610fcb613243565b5b90816002811115610fe057610fdf613243565b5b815250508082608001819052505050565b6000610ffe610100611866565b90506110486040518060400160405280600681526020017f736c6f74494400000000000000000000000000000000000000000000000000008152508261188d90919063ffffffff16565b61105e8360ff16826118b690919063ffffffff16565b6110a66040518060400160405280600781526020017f76657273696f6e000000000000000000000000000000000000000000000000008152508261188d90919063ffffffff16565b6110b982826118b690919063ffffffff16565b6002846020019060028111156110d2576110d1613243565b5b908160028111156110e6576110e5613243565b5b81525050806000015160000151846080018190525050505050565b600081510361113c576040517ffe936cb700000000000000000000000000000000000000000000000000000000815260040160405180910390fd5b808260a001819052505050565b6000815103611184576040517ffe936cb700000000000000000000000000000000000000000000000000000000815260040160405180910390fd5b808260c001819052505050565b606060006111a0610100611866565b90506111ea6040518060400160405280600c81526020017f636f64654c6f636174696f6e00000000000000000000000000000000000000008152508261188d90919063ffffffff16565b6112138360000151600281111561120457611203613243565b5b826118c690919063ffffffff16565b61125b6040518060400160405280600881526020017f6c616e67756167650000000000000000000000000000000000000000000000008152508261188d90919063ffffffff16565b6112848360400151600081111561127557611274613243565b5b826118c690919063ffffffff16565b6112cc6040518060400160405280600681526020017f736f7572636500000000000000000000000000000000000000000000000000008152508261188d90919063ffffffff16565b6112e383606001518261188d90919063ffffffff16565b60008360a0015151111561139f576113396040518060400160405280600481526020017f61726773000000000000000000000000000000000000000000000000000000008152508261188d90919063ffffffff16565b61134281611916565b60005b8360a0015151811015611394576113838460a00151828151811061136c5761136b612a8a565b5b60200260200101518361188d90919063ffffffff16565b8061138d90612d66565b9050611345565b5061139e8161193e565b5b600083608001515111156114e057600060028111156113c1576113c0613243565b5b836020015160028111156113d8576113d7613243565b5b0361140f576040517fa80d31f700000000000000000000000000000000000000000000000000000000815260040160405180910390fd5b6114576040518060400160405280600f81526020017f736563726574734c6f636174696f6e00000000000000000000000000000000008152508261188d90919063ffffffff16565b6114808360200151600281111561147157611470613243565b5b826118c690919063ffffffff16565b6114c86040518060400160405280600781526020017f73656372657473000000000000000000000000000000000000000000000000008152508261188d90919063ffffffff16565b6114df83608001518261196690919063ffffffff16565b5b60008360c0015151111561159c576115366040518060400160405280600981526020017f62797465734172677300000000000000000000000000000000000000000000008152508261188d90919063ffffffff16565b61153f81611916565b60005b8360c0015151811015611591576115808460c00151828151811061156957611568612a8a565b5b60200260200101518361196690919063ffffffff16565b8061158a90612d66565b9050611542565b5061159b8161193e565b5b806000015160000151915050919050565b6000807f000000000000000000000000000000000000000000000000000000000000000073ffffffffffffffffffffffffffffffffffffffff1663461d27628688600188886040518663ffffffff1660e01b81526004016116129594939291906132ad565b6020604051808303816000875af1158015611631573d6000803e3d6000fd5b505050506040513d601f19601f82011682018060405250810190611655919061331c565b9050807f1131472297a800fee664d1d89cfa8f7676ff07189ecc53f80bbb5f4969099db860405160405180910390a280915050949350505050565b3373ffffffffffffffffffffffffffffffffffffffff168173ffffffffffffffffffffffffffffffffffffffff16036116fe576040517f08c379a00000000000000000000000000000000000000000000000000000000081526004016116f590613395565b60405180910390fd5b80600160006101000a81548173ffffffffffffffffffffffffffffffffffffffff021916908373ffffffffffffffffffffffffffffffffffffffff1602179055508073ffffffffffffffffffffffffffffffffffffffff1660008054906101000a900473ffffffffffffffffffffffffffffffffffffffff1673ffffffffffffffffffffffffffffffffffffffff167fed8889f560326eb138920d842192f0eb3dd22b4f139c87a2c57538e05bae127860405160405180910390a350565b60008151036117f7576040517f22ce3edd00000000000000000000000000000000000000000000000000000000815260040160405180910390fd5b828460000190600281111561180f5761180e613243565b5b9081600281111561182357611822613243565b5b81525050818460400190600081111561183f5761183e613243565b5b9081600081111561185357611852613243565b5b8152505080846060018190525050505050565b61186e611eed565b61187c81600001518361198f565b506000816020018181525050919050565b61189a8260038351611a08565b6118b1818360000151611bb190919063ffffffff16565b505050565b6118c282600083611a08565b5050565b6118e860026005600660ff16901b178360000151611bcd90919063ffffffff16565b5061191282826040516020016118fe9190612178565b604051602081830303815290604052611966565b5050565b611921816004611c37565b60018160200181815161193491906133b5565b9150818152505050565b611949816007611c37565b60018160200181815161195c91906133e9565b9150818152505050565b6119738260028351611a08565b61198a818360000151611bb190919063ffffffff16565b505050565b611997611f0d565b60006020836119a6919061344c565b146119d2576020826119b8919061344c565b60206119c491906133e9565b826119cf91906133b5565b91505b8183602001818152505060405180845260008152828101602001818110156119f957600080fd5b80604052505082905092915050565b60178167ffffffffffffffff1611611a4357611a3d8160058460ff16901b60ff16178460000151611bcd90919063ffffffff16565b50611bac565b60ff8167ffffffffffffffff1611611aa157611a76601860058460ff16901b178460000151611bcd90919063ffffffff16565b50611a9b8167ffffffffffffffff1660018560000151611c5d9092919063ffffffff16565b50611bab565b61ffff8167ffffffffffffffff1611611b0057611ad5601960058460ff16901b178460000151611bcd90919063ffffffff16565b50611afa8167ffffffffffffffff1660028560000151611c5d9092919063ffffffff16565b50611baa565b63ffffffff8167ffffffffffffffff1611611b6157611b36601a60058460ff16901b178460000151611bcd90919063ffffffff16565b50611b5b8167ffffffffffffffff1660048560000151611c5d9092919063ffffffff16565b50611ba9565b611b82601b60058460ff16901b178460000151611bcd90919063ffffffff16565b50611ba78167ffffffffffffffff1660088560000151611c5d9092919063ffffffff16565b505b5b5b5b505050565b611bb9611f0d565b611bc583838451611cea565b905092915050565b611bd5611f0d565b600083600001515190506000600182611bee91906133b5565b905084602001518210611c1257611c1185600283611c0c919061347d565b611dcd565b5b84516020838201018581538151831115611c2a578282525b5050849250505092915050565b611c58601f60058360ff16901b178360000151611bcd90919063ffffffff16565b505050565b611c65611f0d565b6000846000015151905060008184611c7d91906133b5565b90508560200151811115611ca257611ca186600283611c9c919061347d565b611dcd565b5b6000600185610100611cb491906135f2565b611cbe91906133e9565b905086518281018783198251161781528151841115611cdb578382525b50508693505050509392505050565b611cf2611f0d565b8251821115611d0057600080fd5b6000846000015151905060008382611d1891906133b5565b90508560200151811115611d3d57611d3c86600283611d37919061347d565b611dcd565b5b60008087518051856020830101935080851115611d58578482525b60208901925050505b60208610611d9f5780518252602082611d7a91906133b5565b9150602081611d8991906133b5565b9050602086611d9891906133e9565b9550611d61565b60006001876020036101000a0390508019825116818451168181178552505050879450505050509392505050565b600082600001519050611de0838361198f565b50611deb8382611bb1565b50505050565b828054828255906000526020600020908101928215611e6a579160200282015b82811115611e695782518260006101000a81548173ffffffffffffffffffffffffffffffffffffffff021916908373ffffffffffffffffffffffffffffffffffffffff16021790555091602001919060010190611e11565b5b509050611e779190611f27565b5090565b6040518060e0016040528060006002811115611e9a57611e99613243565b5b815260200160006002811115611eb357611eb2613243565b5b8152602001600080811115611ecb57611eca613243565b5b8152602001606081526020016060815260200160608152602001606081525090565b6040518060400160405280611f00611f0d565b8152602001600081525090565b604051806040016040528060608152602001600081525090565b5b80821115611f40576000816000905550600101611f28565b5090565b6000604051905090565b600080fd5b600080fd5b6000819050919050565b611f6b81611f58565b8114611f7657600080fd5b50565b600081359050611f8881611f62565b92915050565b600080fd5b600080fd5b6000601f19601f8301169050919050565b7f4e487b7100000000000000000000000000000000000000000000000000000000600052604160045260246000fd5b611fe182611f98565b810181811067ffffffffffffffff8211171561200057611fff611fa9565b5b80604052505050565b6000612013611f44565b905061201f8282611fd8565b919050565b600067ffffffffffffffff82111561203f5761203e611fa9565b5b61204882611f98565b9050602081019050919050565b82818337600083830152505050565b600061207761207284612024565b612009565b90508281526020810184848401111561209357612092611f93565b5b61209e848285612055565b509392505050565b600082601f8301126120bb576120ba611f8e565b5b81356120cb848260208601612064565b91505092915050565b6000806000606084860312156120ed576120ec611f4e565b5b60006120fb86828701611f79565b935050602084013567ffffffffffffffff81111561211c5761211b611f53565b5b612128868287016120a6565b925050604084013567ffffffffffffffff81111561214957612148611f53565b5b612155868287016120a6565b9150509250925092565b6000819050919050565b6121728161215f565b82525050565b600060208201905061218d6000830184612169565b92915050565b600067ffffffffffffffff8211156121ae576121ad611fa9565b5b6121b782611f98565b9050602081019050919050565b60006121d76121d284612193565b612009565b9050828152602081018484840111156121f3576121f2611f93565b5b6121fe848285612055565b509392505050565b600082601f83011261221b5761221a611f8e565b5b813561222b8482602086016121c4565b91505092915050565b61223d8161215f565b811461224857600080fd5b50565b60008135905061225a81612234565b92915050565b6000806040838503121561227757612276611f4e565b5b600083013567ffffffffffffffff81111561229557612294611f53565b5b6122a185828601612206565b92505060206122b28582860161224b565b9150509250929050565b6122c581611f58565b82525050565b60006020820190506122e060008301846122bc565b92915050565b600081519050919050565b600082825260208201905092915050565b60005b83811015612320578082015181840152602081019050612305565b60008484015250505050565b6000612337826122e6565b61234181856122f1565b9350612351818560208601612302565b61235a81611f98565b840191505092915050565b6000602082019050818103600083015261237f818461232c565b905092915050565b60006020828403121561239d5761239c611f4e565b5b60006123ab8482850161224b565b91505092915050565b600081519050919050565b600082825260208201905092915050565b60006123db826123b4565b6123e581856123bf565b93506123f5818560208601612302565b6123fe81611f98565b840191505092915050565b6000602082019050818103600083015261242381846123d0565b905092915050565b60008060006060848603121561244457612443611f4e565b5b600084013567ffffffffffffffff81111561246257612461611f53565b5b61246e86828701612206565b935050602061247f8682870161224b565b925050604084013567ffffffffffffffff8111156124a05761249f611f53565b5b6124ac86828701612206565b9150509250925092565b600060ff82169050919050565b6124cc816124b6565b81146124d757600080fd5b50565b6000813590506124e9816124c3565b92915050565b600067ffffffffffffffff82169050919050565b61250c816124ef565b811461251757600080fd5b50565b60008135905061252981612503565b92915050565b600067ffffffffffffffff82111561254a57612549611fa9565b5b602082029050602081019050919050565b600080fd5b600061257361256e8461252f565b612009565b905080838252602082019050602084028301858111156125965761259561255b565b5b835b818110156125dd57803567ffffffffffffffff8111156125bb576125ba611f8e565b5b8086016125c88982612206565b85526020850194505050602081019050612598565b5050509392505050565b600082601f8301126125fc576125fb611f8e565b5b813561260c848260208601612560565b91505092915050565b600067ffffffffffffffff8211156126305761262f611fa9565b5b602082029050602081019050919050565b600061265461264f84612615565b612009565b905080838252602082019050602084028301858111156126775761267661255b565b5b835b818110156126be57803567ffffffffffffffff81111561269c5761269b611f8e565b5b8086016126a989826120a6565b85526020850194505050602081019050612679565b5050509392505050565b600082601f8301126126dd576126dc611f8e565b5b81356126ed848260208601612641565b91505092915050565b600063ffffffff82169050919050565b61270f816126f6565b811461271a57600080fd5b50565b60008135905061272c81612706565b92915050565b60008060008060008060008060006101208a8c03121561275557612754611f4e565b5b60008a013567ffffffffffffffff81111561277357612772611f53565b5b61277f8c828d01612206565b99505060208a013567ffffffffffffffff8111156127a05761279f611f53565b5b6127ac8c828d016120a6565b98505060406127bd8c828d016124da565b97505060606127ce8c828d0161251a565b96505060808a013567ffffffffffffffff8111156127ef576127ee611f53565b5b6127fb8c828d016125e7565b95505060a08a013567ffffffffffffffff81111561281c5761281b611f53565b5b6128288c828d016126c8565b94505060c06128398c828d0161251a565b93505060e061284a8c828d0161271d565b92505061010061285c8c828d01611f79565b9150509295985092959850929598565b600073ffffffffffffffffffffffffffffffffffffffff82169050919050565b60006128978261286c565b9050919050565b6128a78161288c565b82525050565b60006020820190506128c2600083018461289e565b92915050565b600081519050919050565b600082825260208201905092915050565b6000819050602082019050919050565b6128fd8161288c565b82525050565b600061290f83836128f4565b60208301905092915050565b6000602082019050919050565b6000612933826128c8565b61293d81856128d3565b9350612948836128e4565b8060005b838110156129795781516129608882612903565b975061296b8361291b565b92505060018101905061294c565b5085935050505092915050565b600060208201905081810360008301526129a08184612928565b905092915050565b6129b18161288c565b81146129bc57600080fd5b50565b6000813590506129ce816129a8565b92915050565b6000602082840312156129ea576129e9611f4e565b5b60006129f8848285016129bf565b91505092915050565b6000604082019050612a166000830185612169565b612a2360208301846122bc565b9392505050565b7f4e487b7100000000000000000000000000000000000000000000000000000000600052602260045260246000fd5b60006002820490506001821680612a7157607f821691505b602082108103612a8457612a83612a2a565b5b50919050565b7f4e487b7100000000000000000000000000000000000000000000000000000000600052603260045260246000fd5b60008190508160005260206000209050919050565b60006020601f8301049050919050565b600082821b905092915050565b600060088302612b1b7fffffffffffffffffffffffffffffffffffffffffffffffffffffffffffffffff82612ade565b612b258683612ade565b95508019841693508086168417925050509392505050565b6000819050919050565b6000612b62612b5d612b588461215f565b612b3d565b61215f565b9050919050565b6000819050919050565b612b7c83612b47565b612b90612b8882612b69565b848454612aeb565b825550505050565b600090565b612ba5612b98565b612bb0818484612b73565b505050565b5b81811015612bd457612bc9600082612b9d565b600181019050612bb6565b5050565b601f821115612c1957612bea81612ab9565b612bf384612ace565b81016020851015612c02578190505b612c16612c0e85612ace565b830182612bb5565b50505b505050565b600082821c905092915050565b6000612c3c60001984600802612c1e565b1980831691505092915050565b6000612c558383612c2b565b9150826002028217905092915050565b612c6e826123b4565b67ffffffffffffffff811115612c8757612c86611fa9565b5b612c918254612a59565b612c9c828285612bd8565b600060209050601f831160018114612ccf5760008415612cbd578287015190505b612cc78582612c49565b865550612d2f565b601f198416612cdd86612ab9565b60005b82811015612d0557848901518255600182019150602085019450602081019050612ce0565b86831015612d225784890151612d1e601f891682612c2b565b8355505b6001600288020188555050505b505050505050565b7f4e487b7100000000000000000000000000000000000000000000000000000000600052601160045260246000fd5b6000612d718261215f565b91507fffffffffffffffffffffffffffffffffffffffffffffffffffffffffffffffff8203612da357612da2612d37565b5b600182019050919050565b600060a082019050612dc3600083018861289e565b612dd060208301876122bc565b612ddd6040830186612169565b612dea6060830185612169565b8181036080830152612dfc81846123d0565b90509695505050505050565b7f4d7573742062652070726f706f736564206f776e657200000000000000000000600082015250565b6000612e3e6016836123bf565b9150612e4982612e08565b602082019050919050565b60006020820190508181036000830152612e6d81612e31565b9050919050565b7f596f7520646f6e27742073656e6420656e6f7567682065746820746f2062757960008201527f2074686520646174612100000000000000000000000000000000000000000000602082015250565b6000612ed0602a836123bf565b9150612edb82612e74565b604082019050919050565b60006020820190508181036000830152612eff81612ec3565b9050919050565b600081905092915050565b50565b6000612f21600083612f06565b9150612f2c82612f11565b600082019050919050565b6000612f4282612f14565b9150819050919050565b7f5472616e73616374696f6e28627579206461746129204661696c656421000000600082015250565b6000612f82601d836123bf565b9150612f8d82612f4c565b602082019050919050565b60006020820190508181036000830152612fb181612f75565b9050919050565b6000606082019050612fcd600083018661289e565b612fda6020830185612169565b612fe76040830184612169565b949350505050565b60008190508160005260206000209050919050565b601f8211156130455761301681612fef565b61301f84612ace565b8101602085101561302e578190505b61304261303a85612ace565b830182612bb5565b50505b505050565b613053826122e6565b67ffffffffffffffff81111561306c5761306b611fa9565b5b6130768254612a59565b613081828285613004565b600060209050601f8311600181146130b457600084156130a2578287015190505b6130ac8582612c49565b865550613114565b601f1984166130c286612fef565b60005b828110156130ea578489015182556001820191506020850194506020810190506130c5565b868310156131075784890151613103601f891682612c2b565b8355505b6001600288020188555050505b505050505050565b6000815461312981612a59565b61313381866122f1565b9450600182166000811461314e576001811461316457613197565b60ff198316865281151560200286019350613197565b61316d85612fef565b60005b8381101561318f57815481890152600182019150602081019050613170565b808801955050505b50505092915050565b600060408201905081810360008301526131ba818561311c565b905081810360208301526131ce818461311c565b90509392505050565b7f4f6e6c792063616c6c61626c65206279206f776e657200000000000000000000600082015250565b600061320d6016836123bf565b9150613218826131d7565b602082019050919050565b6000602082019050818103600083015261323c81613200565b9050919050565b7f4e487b7100000000000000000000000000000000000000000000000000000000600052602160045260246000fd5b61327b816124ef565b82525050565b600061ffff82169050919050565b61329881613281565b82525050565b6132a7816126f6565b82525050565b600060a0820190506132c26000830188613272565b81810360208301526132d4818761232c565b90506132e3604083018661328f565b6132f0606083018561329e565b6132fd60808301846122bc565b9695505050505050565b60008151905061331681611f62565b92915050565b60006020828403121561333257613331611f4e565b5b600061334084828501613307565b91505092915050565b7f43616e6e6f74207472616e7366657220746f2073656c66000000000000000000600082015250565b600061337f6017836123bf565b915061338a82613349565b602082019050919050565b600060208201905081810360008301526133ae81613372565b9050919050565b60006133c08261215f565b91506133cb8361215f565b92508282019050808211156133e3576133e2612d37565b5b92915050565b60006133f48261215f565b91506133ff8361215f565b925082820390508181111561341757613416612d37565b5b92915050565b7f4e487b7100000000000000000000000000000000000000000000000000000000600052601260045260246000fd5b60006134578261215f565b91506134628361215f565b9250826134725761347161341d565b5b828206905092915050565b60006134888261215f565b91506134938361215f565b92508282026134a18161215f565b915082820484148315176134b8576134b7612d37565b5b5092915050565b60008160011c9050919050565b6000808291508390505b6001851115613516578086048111156134f2576134f1612d37565b5b60018516156135015780820291505b808102905061350f856134bf565b94506134d6565b94509492505050565b60008261352f57600190506135eb565b8161353d57600090506135eb565b8160018114613553576002811461355d5761358c565b60019150506135eb565b60ff84111561356f5761356e612d37565b5b8360020a91508482111561358657613585612d37565b5b506135eb565b5060208310610133831016604e8410600b84101617156135c15782820a9050838111156135bc576135bb612d37565b5b6135eb565b6135ce84848460016134cc565b925090508184048111156135e5576135e4612d37565b5b81810290505b9392505050565b60006135fd8261215f565b91506136088361215f565b92506136357fffffffffffffffffffffffffffffffffffffffffffffffffffffffffffffffff848461351f565b90509291505056fea2646970667358221220d5d2342cbc2746444c2d4154ca417651dffa54cbd8a0433f88c0661c5a03e88564736f6c63430008140033","opcodes":"PUSH1 0xA0 PUSH1 0x40 MSTORE CALLVALUE DUP1 ISZERO PUSH3 0x11 JUMPI PUSH1 0x0 DUP1 REVERT JUMPDEST POP PUSH1 0x40 MLOAD PUSH3 0x3ACA CODESIZE SUB DUP1 PUSH3 0x3ACA DUP4 CODECOPY DUP2 DUP2 ADD PUSH1 0x40 MSTORE DUP2 ADD SWAP1 PUSH3 0x37 SWAP2 SWAP1 PUSH3 0x30D JUMP JUMPDEST CALLER DUP1 PUSH1 0x0 DUP4 DUP1 PUSH20 0xFFFFFFFFFFFFFFFFFFFFFFFFFFFFFFFFFFFFFFFF AND PUSH1 0x80 DUP2 PUSH20 0xFFFFFFFFFFFFFFFFFFFFFFFFFFFFFFFFFFFFFFFF AND DUP2 MSTORE POP POP POP PUSH1 0x0 PUSH20 0xFFFFFFFFFFFFFFFFFFFFFFFFFFFFFFFFFFFFFFFF AND DUP3 PUSH20 0xFFFFFFFFFFFFFFFFFFFFFFFFFFFFFFFFFFFFFFFF AND SUB PUSH3 0xE3 JUMPI PUSH1 0x40 MLOAD PUSH32 0x8C379A000000000000000000000000000000000000000000000000000000000 DUP2 MSTORE PUSH1 0x4 ADD PUSH3 0xDA SWAP1 PUSH3 0x3A0 JUMP JUMPDEST PUSH1 0x40 MLOAD DUP1 SWAP2 SUB SWAP1 REVERT JUMPDEST DUP2 PUSH1 0x0 DUP1 PUSH2 0x100 EXP DUP2 SLOAD DUP2 PUSH20 0xFFFFFFFFFFFFFFFFFFFFFFFFFFFFFFFFFFFFFFFF MUL NOT AND SWAP1 DUP4 PUSH20 0xFFFFFFFFFFFFFFFFFFFFFFFFFFFFFFFFFFFFFFFF AND MUL OR SWAP1 SSTORE POP PUSH1 0x0 PUSH20 0xFFFFFFFFFFFFFFFFFFFFFFFFFFFFFFFFFFFFFFFF AND DUP2 PUSH20 0xFFFFFFFFFFFFFFFFFFFFFFFFFFFFFFFFFFFFFFFF AND EQ PUSH3 0x16A JUMPI PUSH3 0x169 DUP2 PUSH3 0x174 PUSH1 0x20 SHL PUSH1 0x20 SHR JUMP JUMPDEST JUMPDEST POP POP POP POP PUSH3 0x434 JUMP JUMPDEST CALLER PUSH20 0xFFFFFFFFFFFFFFFFFFFFFFFFFFFFFFFFFFFFFFFF AND DUP2 PUSH20 0xFFFFFFFFFFFFFFFFFFFFFFFFFFFFFFFFFFFFFFFF AND SUB PUSH3 0x1E5 JUMPI PUSH1 0x40 MLOAD PUSH32 0x8C379A000000000000000000000000000000000000000000000000000000000 DUP2 MSTORE PUSH1 0x4 ADD PUSH3 0x1DC SWAP1 PUSH3 0x412 JUMP JUMPDEST PUSH1 0x40 MLOAD DUP1 SWAP2 SUB SWAP1 REVERT JUMPDEST DUP1 PUSH1 0x1 PUSH1 0x0 PUSH2 0x100 EXP DUP2 SLOAD DUP2 PUSH20 0xFFFFFFFFFFFFFFFFFFFFFFFFFFFFFFFFFFFFFFFF MUL NOT AND SWAP1 DUP4 PUSH20 0xFFFFFFFFFFFFFFFFFFFFFFFFFFFFFFFFFFFFFFFF AND MUL OR SWAP1 SSTORE POP DUP1 PUSH20 0xFFFFFFFFFFFFFFFFFFFFFFFFFFFFFFFFFFFFFFFF AND PUSH1 0x0 DUP1 SLOAD SWAP1 PUSH2 0x100 EXP SWAP1 DIV PUSH20 0xFFFFFFFFFFFFFFFFFFFFFFFFFFFFFFFFFFFFFFFF AND PUSH20 0xFFFFFFFFFFFFFFFFFFFFFFFFFFFFFFFFFFFFFFFF AND PUSH32 0xED8889F560326EB138920D842192F0EB3DD22B4F139C87A2C57538E05BAE1278 PUSH1 0x40 MLOAD PUSH1 0x40 MLOAD DUP1 SWAP2 SUB SWAP1 LOG3 POP JUMP JUMPDEST PUSH1 0x0 DUP1 REVERT JUMPDEST PUSH1 0x0 PUSH20 0xFFFFFFFFFFFFFFFFFFFFFFFFFFFFFFFFFFFFFFFF DUP3 AND SWAP1 POP SWAP2 SWAP1 POP JUMP JUMPDEST PUSH1 0x0 PUSH3 0x2D5 DUP3 PUSH3 0x2A8 JUMP JUMPDEST SWAP1 POP SWAP2 SWAP1 POP JUMP JUMPDEST PUSH3 0x2E7 DUP2 PUSH3 0x2C8 JUMP JUMPDEST DUP2 EQ PUSH3 0x2F3 JUMPI PUSH1 0x0 DUP1 REVERT JUMPDEST POP JUMP JUMPDEST PUSH1 0x0 DUP2 MLOAD SWAP1 POP PUSH3 0x307 DUP2 PUSH3 0x2DC JUMP JUMPDEST SWAP3 SWAP2 POP POP JUMP JUMPDEST PUSH1 0x0 PUSH1 0x20 DUP3 DUP5 SUB SLT ISZERO PUSH3 0x326 JUMPI PUSH3 0x325 PUSH3 0x2A3 JUMP JUMPDEST JUMPDEST PUSH1 0x0 PUSH3 0x336 DUP5 DUP3 DUP6 ADD PUSH3 0x2F6 JUMP JUMPDEST SWAP2 POP POP SWAP3 SWAP2 POP POP JUMP JUMPDEST PUSH1 0x0 DUP3 DUP3 MSTORE PUSH1 0x20 DUP3 ADD SWAP1 POP SWAP3 SWAP2 POP POP JUMP JUMPDEST PUSH32 0x43616E6E6F7420736574206F776E657220746F207A65726F0000000000000000 PUSH1 0x0 DUP3 ADD MSTORE POP JUMP JUMPDEST PUSH1 0x0 PUSH3 0x388 PUSH1 0x18 DUP4 PUSH3 0x33F JUMP JUMPDEST SWAP2 POP PUSH3 0x395 DUP3 PUSH3 0x350 JUMP JUMPDEST PUSH1 0x20 DUP3 ADD SWAP1 POP SWAP2 SWAP1 POP JUMP JUMPDEST PUSH1 0x0 PUSH1 0x20 DUP3 ADD SWAP1 POP DUP2 DUP2 SUB PUSH1 0x0 DUP4 ADD MSTORE PUSH3 0x3BB DUP2 PUSH3 0x379 JUMP JUMPDEST SWAP1 POP SWAP2 SWAP1 POP JUMP JUMPDEST PUSH32 0x43616E6E6F74207472616E7366657220746F2073656C66000000000000000000 PUSH1 0x0 DUP3 ADD MSTORE POP JUMP JUMPDEST PUSH1 0x0 PUSH3 0x3FA PUSH1 0x17 DUP4 PUSH3 0x33F JUMP JUMPDEST SWAP2 POP PUSH3 0x407 DUP3 PUSH3 0x3C2 JUMP JUMPDEST PUSH1 0x20 DUP3 ADD SWAP1 POP SWAP2 SWAP1 POP JUMP JUMPDEST PUSH1 0x0 PUSH1 0x20 DUP3 ADD SWAP1 POP DUP2 DUP2 SUB PUSH1 0x0 DUP4 ADD MSTORE PUSH3 0x42D DUP2 PUSH3 0x3EB JUMP JUMPDEST SWAP1 POP SWAP2 SWAP1 POP JUMP JUMPDEST PUSH1 0x80 MLOAD PUSH2 0x3673 PUSH3 0x457 PUSH1 0x0 CODECOPY PUSH1 0x0 DUP2 DUP2 PUSH2 0x3A5 ADD MSTORE PUSH2 0x15B2 ADD MSTORE PUSH2 0x3673 PUSH1 0x0 RETURN INVALID PUSH1 0x80 PUSH1 0x40 MSTORE PUSH1 0x4 CALLDATASIZE LT PUSH2 0xE8 JUMPI PUSH1 0x0 CALLDATALOAD PUSH1 0xE0 SHR DUP1 PUSH4 0x52A81EEB GT PUSH2 0x8A JUMPI DUP1 PUSH4 0xC6922B54 GT PUSH2 0x59 JUMPI DUP1 PUSH4 0xC6922B54 EQ PUSH2 0x2E4 JUMPI DUP1 PUSH4 0xE9C8C97D EQ PUSH2 0x321 JUMPI DUP1 PUSH4 0xEDEA7DFD EQ PUSH2 0x33D JUMPI DUP1 PUSH4 0xF2FDE38B EQ PUSH2 0x37A JUMPI PUSH2 0xE8 JUMP JUMPDEST DUP1 PUSH4 0x52A81EEB EQ PUSH2 0x23A JUMPI DUP1 PUSH4 0x79BA5097 EQ PUSH2 0x277 JUMPI DUP1 PUSH4 0x8DA5CB5B EQ PUSH2 0x28E JUMPI DUP1 PUSH4 0xB1E21749 EQ PUSH2 0x2B9 JUMPI PUSH2 0xE8 JUMP JUMPDEST DUP1 PUSH4 0x3944EA3A GT PUSH2 0xC6 JUMPI DUP1 PUSH4 0x3944EA3A EQ PUSH2 0x17E JUMPI DUP1 PUSH4 0x468926BF EQ PUSH2 0x1A9 JUMPI DUP1 PUSH4 0x491D98F4 EQ PUSH2 0x1E6 JUMPI DUP1 PUSH4 0x4B0795A8 EQ PUSH2 0x20F JUMPI PUSH2 0xE8 JUMP JUMPDEST DUP1 PUSH4 0xCA76175 EQ PUSH2 0xED JUMPI DUP1 PUSH4 0xE1D1957 EQ PUSH2 0x116 JUMPI DUP1 PUSH4 0x227FD8E6 EQ PUSH2 0x141 JUMPI JUMPDEST PUSH1 0x0 DUP1 REVERT JUMPDEST CALLVALUE DUP1 ISZERO PUSH2 0xF9 JUMPI PUSH1 0x0 DUP1 REVERT JUMPDEST POP PUSH2 0x114 PUSH1 0x4 DUP1 CALLDATASIZE SUB DUP2 ADD SWAP1 PUSH2 0x10F SWAP2 SWAP1 PUSH2 0x20D4 JUMP JUMPDEST PUSH2 0x3A3 JUMP JUMPDEST STOP JUMPDEST CALLVALUE DUP1 ISZERO PUSH2 0x122 JUMPI PUSH1 0x0 DUP1 REVERT JUMPDEST POP PUSH2 0x12B PUSH2 0x465 JUMP JUMPDEST PUSH1 0x40 MLOAD PUSH2 0x138 SWAP2 SWAP1 PUSH2 0x2178 JUMP JUMPDEST PUSH1 0x40 MLOAD DUP1 SWAP2 SUB SWAP1 RETURN JUMPDEST CALLVALUE DUP1 ISZERO PUSH2 0x14D JUMPI PUSH1 0x0 DUP1 REVERT JUMPDEST POP PUSH2 0x168 PUSH1 0x4 DUP1 CALLDATASIZE SUB DUP2 ADD SWAP1 PUSH2 0x163 SWAP2 SWAP1 PUSH2 0x2260 JUMP JUMPDEST PUSH2 0x472 JUMP JUMPDEST PUSH1 0x40 MLOAD PUSH2 0x175 SWAP2 SWAP1 PUSH2 0x22CB JUMP JUMPDEST PUSH1 0x40 MLOAD DUP1 SWAP2 SUB SWAP1 RETURN JUMPDEST CALLVALUE DUP1 ISZERO PUSH2 0x18A JUMPI PUSH1 0x0 DUP1 REVERT JUMPDEST POP PUSH2 0x193 PUSH2 0x4B9 JUMP JUMPDEST PUSH1 0x40 MLOAD PUSH2 0x1A0 SWAP2 SWAP1 PUSH2 0x2365 JUMP JUMPDEST PUSH1 0x40 MLOAD DUP1 SWAP2 SUB SWAP1 RETURN JUMPDEST CALLVALUE DUP1 ISZERO PUSH2 0x1B5 JUMPI PUSH1 0x0 DUP1 REVERT JUMPDEST POP PUSH2 0x1D0 PUSH1 0x4 DUP1 CALLDATASIZE SUB DUP2 ADD SWAP1 PUSH2 0x1CB SWAP2 SWAP1 PUSH2 0x2387 JUMP JUMPDEST PUSH2 0x547 JUMP JUMPDEST PUSH1 0x40 MLOAD PUSH2 0x1DD SWAP2 SWAP1 PUSH2 0x2409 JUMP JUMPDEST PUSH1 0x40 MLOAD DUP1 SWAP2 SUB SWAP1 RETURN JUMPDEST CALLVALUE DUP1 ISZERO PUSH2 0x1F2 JUMPI PUSH1 0x0 DUP1 REVERT JUMPDEST POP PUSH2 0x20D PUSH1 0x4 DUP1 CALLDATASIZE SUB DUP2 ADD SWAP1 PUSH2 0x208 SWAP2 SWAP1 PUSH2 0x242B JUMP JUMPDEST PUSH2 0x5FE JUMP JUMPDEST STOP JUMPDEST CALLVALUE DUP1 ISZERO PUSH2 0x21B JUMPI PUSH1 0x0 DUP1 REVERT JUMPDEST POP PUSH2 0x224 PUSH2 0x7CB JUMP JUMPDEST PUSH1 0x40 MLOAD PUSH2 0x231 SWAP2 SWAP1 PUSH2 0x2365 JUMP JUMPDEST PUSH1 0x40 MLOAD DUP1 SWAP2 SUB SWAP1 RETURN JUMPDEST CALLVALUE DUP1 ISZERO PUSH2 0x246 JUMPI PUSH1 0x0 DUP1 REVERT JUMPDEST POP PUSH2 0x261 PUSH1 0x4 DUP1 CALLDATASIZE SUB DUP2 ADD SWAP1 PUSH2 0x25C SWAP2 SWAP1 PUSH2 0x2732 JUMP JUMPDEST PUSH2 0x859 JUMP JUMPDEST PUSH1 0x40 MLOAD PUSH2 0x26E SWAP2 SWAP1 PUSH2 0x22CB JUMP JUMPDEST PUSH1 0x40 MLOAD DUP1 SWAP2 SUB SWAP1 RETURN JUMPDEST CALLVALUE DUP1 ISZERO PUSH2 0x283 JUMPI PUSH1 0x0 DUP1 REVERT JUMPDEST POP PUSH2 0x28C PUSH2 0x933 JUMP JUMPDEST STOP JUMPDEST CALLVALUE DUP1 ISZERO PUSH2 0x29A JUMPI PUSH1 0x0 DUP1 REVERT JUMPDEST POP PUSH2 0x2A3 PUSH2 0xAC8 JUMP JUMPDEST PUSH1 0x40 MLOAD PUSH2 0x2B0 SWAP2 SWAP1 PUSH2 0x28AD JUMP JUMPDEST PUSH1 0x40 MLOAD DUP1 SWAP2 SUB SWAP1 RETURN JUMPDEST CALLVALUE DUP1 ISZERO PUSH2 0x2C5 JUMPI PUSH1 0x0 DUP1 REVERT JUMPDEST POP PUSH2 0x2CE PUSH2 0xAF1 JUMP JUMPDEST PUSH1 0x40 MLOAD PUSH2 0x2DB SWAP2 SWAP1 PUSH2 0x22CB JUMP JUMPDEST PUSH1 0x40 MLOAD DUP1 SWAP2 SUB SWAP1 RETURN JUMPDEST CALLVALUE DUP1 ISZERO PUSH2 0x2F0 JUMPI PUSH1 0x0 DUP1 REVERT JUMPDEST POP PUSH2 0x30B PUSH1 0x4 DUP1 CALLDATASIZE SUB DUP2 ADD SWAP1 PUSH2 0x306 SWAP2 SWAP1 PUSH2 0x2387 JUMP JUMPDEST PUSH2 0xAF7 JUMP JUMPDEST PUSH1 0x40 MLOAD PUSH2 0x318 SWAP2 SWAP1 PUSH2 0x2986 JUMP JUMPDEST PUSH1 0x40 MLOAD DUP1 SWAP2 SUB SWAP1 RETURN JUMPDEST PUSH2 0x33B PUSH1 0x4 DUP1 CALLDATASIZE SUB DUP2 ADD SWAP1 PUSH2 0x336 SWAP2 SWAP1 PUSH2 0x2387 JUMP JUMPDEST PUSH2 0xBAA JUMP JUMPDEST STOP JUMPDEST CALLVALUE DUP1 ISZERO PUSH2 0x349 JUMPI PUSH1 0x0 DUP1 REVERT JUMPDEST POP PUSH2 0x364 PUSH1 0x4 DUP1 CALLDATASIZE SUB DUP2 ADD SWAP1 PUSH2 0x35F SWAP2 SWAP1 PUSH2 0x2387 JUMP JUMPDEST PUSH2 0xDED JUMP JUMPDEST PUSH1 0x40 MLOAD PUSH2 0x371 SWAP2 SWAP1 PUSH2 0x2178 JUMP JUMPDEST PUSH1 0x40 MLOAD DUP1 SWAP2 SUB SWAP1 RETURN JUMPDEST CALLVALUE DUP1 ISZERO PUSH2 0x386 JUMPI PUSH1 0x0 DUP1 REVERT JUMPDEST POP PUSH2 0x3A1 PUSH1 0x4 DUP1 CALLDATASIZE SUB DUP2 ADD SWAP1 PUSH2 0x39C SWAP2 SWAP1 PUSH2 0x29D4 JUMP JUMPDEST PUSH2 0xE1C JUMP JUMPDEST STOP JUMPDEST PUSH32 0x0 PUSH20 0xFFFFFFFFFFFFFFFFFFFFFFFFFFFFFFFFFFFFFFFF AND CALLER PUSH20 0xFFFFFFFFFFFFFFFFFFFFFFFFFFFFFFFFFFFFFFFF AND EQ PUSH2 0x428 JUMPI PUSH1 0x40 MLOAD PUSH32 0xC6829F8300000000000000000000000000000000000000000000000000000000 DUP2 MSTORE PUSH1 0x4 ADD PUSH1 0x40 MLOAD DUP1 SWAP2 SUB SWAP1 REVERT JUMPDEST PUSH2 0x433 DUP4 DUP4 DUP4 PUSH2 0xE30 JUMP JUMPDEST DUP3 PUSH32 0x85E1543BF2F84FE80C6BADBCE3648C8539AD1DF4D2B3D822938CA0538BE727E6 PUSH1 0x40 MLOAD PUSH1 0x40 MLOAD DUP1 SWAP2 SUB SWAP1 LOG2 POP POP POP JUMP JUMPDEST PUSH1 0x0 PUSH1 0x2 DUP1 SLOAD SWAP1 POP SWAP1 POP SWAP1 JUMP JUMPDEST PUSH1 0x0 DUP1 PUSH1 0x0 SWAP1 POP PUSH32 0x1544746EAE3C1B8F427233B95F131F429CD2A05D31552F70F9A221EE65B02012 DUP4 DUP3 PUSH1 0x40 MLOAD PUSH2 0x4AA SWAP3 SWAP2 SWAP1 PUSH2 0x2A01 JUMP JUMPDEST PUSH1 0x40 MLOAD DUP1 SWAP2 SUB SWAP1 LOG1 POP SWAP3 SWAP2 POP POP JUMP JUMPDEST PUSH1 0x5 DUP1 SLOAD PUSH2 0x4C6 SWAP1 PUSH2 0x2A59 JUMP JUMPDEST DUP1 PUSH1 0x1F ADD PUSH1 0x20 DUP1 SWAP2 DIV MUL PUSH1 0x20 ADD PUSH1 0x40 MLOAD SWAP1 DUP2 ADD PUSH1 0x40 MSTORE DUP1 SWAP3 SWAP2 SWAP1 DUP2 DUP2 MSTORE PUSH1 0x20 ADD DUP3 DUP1 SLOAD PUSH2 0x4F2 SWAP1 PUSH2 0x2A59 JUMP JUMPDEST DUP1 ISZERO PUSH2 0x53F JUMPI DUP1 PUSH1 0x1F LT PUSH2 0x514 JUMPI PUSH2 0x100 DUP1 DUP4 SLOAD DIV MUL DUP4 MSTORE SWAP2 PUSH1 0x20 ADD SWAP2 PUSH2 0x53F JUMP JUMPDEST DUP3 ADD SWAP2 SWAP1 PUSH1 0x0 MSTORE PUSH1 0x20 PUSH1 0x0 KECCAK256 SWAP1 JUMPDEST DUP2 SLOAD DUP2 MSTORE SWAP1 PUSH1 0x1 ADD SWAP1 PUSH1 0x20 ADD DUP1 DUP4 GT PUSH2 0x522 JUMPI DUP3 SWAP1 SUB PUSH1 0x1F AND DUP3 ADD SWAP2 JUMPDEST POP POP POP POP POP DUP2 JUMP JUMPDEST PUSH1 0x60 PUSH1 0x2 DUP3 DUP2 SLOAD DUP2 LT PUSH2 0x55D JUMPI PUSH2 0x55C PUSH2 0x2A8A JUMP JUMPDEST JUMPDEST SWAP1 PUSH1 0x0 MSTORE PUSH1 0x20 PUSH1 0x0 KECCAK256 SWAP1 PUSH1 0x6 MUL ADD PUSH1 0x5 ADD DUP1 SLOAD PUSH2 0x579 SWAP1 PUSH2 0x2A59 JUMP JUMPDEST DUP1 PUSH1 0x1F ADD PUSH1 0x20 DUP1 SWAP2 DIV MUL PUSH1 0x20 ADD PUSH1 0x40 MLOAD SWAP1 DUP2 ADD PUSH1 0x40 MSTORE DUP1 SWAP3 SWAP2 SWAP1 DUP2 DUP2 MSTORE PUSH1 0x20 ADD DUP3 DUP1 SLOAD PUSH2 0x5A5 SWAP1 PUSH2 0x2A59 JUMP JUMPDEST DUP1 ISZERO PUSH2 0x5F2 JUMPI DUP1 PUSH1 0x1F LT PUSH2 0x5C7 JUMPI PUSH2 0x100 DUP1 DUP4 SLOAD DIV MUL DUP4 MSTORE SWAP2 PUSH1 0x20 ADD SWAP2 PUSH2 0x5F2 JUMP JUMPDEST DUP3 ADD SWAP2 SWAP1 PUSH1 0x0 MSTORE PUSH1 0x20 PUSH1 0x0 KECCAK256 SWAP1 JUMPDEST DUP2 SLOAD DUP2 MSTORE SWAP1 PUSH1 0x1 ADD SWAP1 PUSH1 0x20 ADD DUP1 DUP4 GT PUSH2 0x5D5 JUMPI DUP3 SWAP1 SUB PUSH1 0x1F AND DUP3 ADD SWAP2 JUMPDEST POP POP POP POP POP SWAP1 POP SWAP2 SWAP1 POP JUMP JUMPDEST PUSH1 0x0 DUP1 PUSH8 0xFFFFFFFFFFFFFFFF DUP2 GT ISZERO PUSH2 0x61A JUMPI PUSH2 0x619 PUSH2 0x1FA9 JUMP JUMPDEST JUMPDEST PUSH1 0x40 MLOAD SWAP1 DUP1 DUP3 MSTORE DUP1 PUSH1 0x20 MUL PUSH1 0x20 ADD DUP3 ADD PUSH1 0x40 MSTORE DUP1 ISZERO PUSH2 0x648 JUMPI DUP2 PUSH1 0x20 ADD PUSH1 0x20 DUP3 MUL DUP1 CALLDATASIZE DUP4 CALLDATACOPY DUP1 DUP3 ADD SWAP2 POP POP SWAP1 POP JUMPDEST POP SWAP1 POP PUSH1 0x0 PUSH2 0x659 DUP6 PUSH1 0x3 SLOAD PUSH2 0x472 JUMP JUMPDEST SWAP1 POP PUSH1 0x0 PUSH1 0x40 MLOAD DUP1 PUSH1 0xC0 ADD PUSH1 0x40 MSTORE DUP1 CALLER PUSH20 0xFFFFFFFFFFFFFFFFFFFFFFFFFFFFFFFFFFFFFFFF AND DUP2 MSTORE PUSH1 0x20 ADD DUP5 DUP2 MSTORE PUSH1 0x20 ADD DUP4 DUP2 MSTORE PUSH1 0x20 ADD DUP7 DUP2 MSTORE PUSH1 0x20 ADD PUSH1 0x3 SLOAD DUP2 MSTORE PUSH1 0x20 ADD DUP6 DUP2 MSTORE POP SWAP1 POP PUSH1 0x2 DUP2 SWAP1 DUP1 PUSH1 0x1 DUP2 SLOAD ADD DUP1 DUP3 SSTORE DUP1 SWAP2 POP POP PUSH1 0x1 SWAP1 SUB SWAP1 PUSH1 0x0 MSTORE PUSH1 0x20 PUSH1 0x0 KECCAK256 SWAP1 PUSH1 0x6 MUL ADD PUSH1 0x0 SWAP1 SWAP2 SWAP1 SWAP2 SWAP1 SWAP2 POP PUSH1 0x0 DUP3 ADD MLOAD DUP2 PUSH1 0x0 ADD PUSH1 0x0 PUSH2 0x100 EXP DUP2 SLOAD DUP2 PUSH20 0xFFFFFFFFFFFFFFFFFFFFFFFFFFFFFFFFFFFFFFFF MUL NOT AND SWAP1 DUP4 PUSH20 0xFFFFFFFFFFFFFFFFFFFFFFFFFFFFFFFFFFFFFFFF AND MUL OR SWAP1 SSTORE POP PUSH1 0x20 DUP3 ADD MLOAD DUP2 PUSH1 0x1 ADD SWAP1 DUP1 MLOAD SWAP1 PUSH1 0x20 ADD SWAP1 PUSH2 0x733 SWAP3 SWAP2 SWAP1 PUSH2 0x1DF1 JUMP JUMPDEST POP PUSH1 0x40 DUP3 ADD MLOAD DUP2 PUSH1 0x2 ADD SSTORE PUSH1 0x60 DUP3 ADD MLOAD DUP2 PUSH1 0x3 ADD SSTORE PUSH1 0x80 DUP3 ADD MLOAD DUP2 PUSH1 0x4 ADD SSTORE PUSH1 0xA0 DUP3 ADD MLOAD DUP2 PUSH1 0x5 ADD SWAP1 DUP2 PUSH2 0x767 SWAP2 SWAP1 PUSH2 0x2C65 JUMP JUMPDEST POP POP POP PUSH1 0x3 PUSH1 0x0 DUP2 SLOAD DUP1 SWAP3 SWAP2 SWAP1 PUSH2 0x77D SWAP1 PUSH2 0x2D66 JUMP JUMPDEST SWAP2 SWAP1 POP SSTORE POP PUSH32 0x9574F6C8401ED36A66EC5B76EEBD8617DEB7F5629780BA001B08629662471DFA CALLER DUP4 DUP8 PUSH1 0x3 SLOAD DUP9 PUSH1 0x40 MLOAD PUSH2 0x7BB SWAP6 SWAP5 SWAP4 SWAP3 SWAP2 SWAP1 PUSH2 0x2DAE JUMP JUMPDEST PUSH1 0x40 MLOAD DUP1 SWAP2 SUB SWAP1 LOG1 POP POP POP POP POP POP JUMP JUMPDEST PUSH1 0x6 DUP1 SLOAD PUSH2 0x7D8 SWAP1 PUSH2 0x2A59 JUMP JUMPDEST DUP1 PUSH1 0x1F ADD PUSH1 0x20 DUP1 SWAP2 DIV MUL PUSH1 0x20 ADD PUSH1 0x40 MLOAD SWAP1 DUP2 ADD PUSH1 0x40 MSTORE DUP1 SWAP3 SWAP2 SWAP1 DUP2 DUP2 MSTORE PUSH1 0x20 ADD DUP3 DUP1 SLOAD PUSH2 0x804 SWAP1 PUSH2 0x2A59 JUMP JUMPDEST DUP1 ISZERO PUSH2 0x851 JUMPI DUP1 PUSH1 0x1F LT PUSH2 0x826 JUMPI PUSH2 0x100 DUP1 DUP4 SLOAD DIV MUL DUP4 MSTORE SWAP2 PUSH1 0x20 ADD SWAP2 PUSH2 0x851 JUMP JUMPDEST DUP3 ADD SWAP2 SWAP1 PUSH1 0x0 MSTORE PUSH1 0x20 PUSH1 0x0 KECCAK256 SWAP1 JUMPDEST DUP2 SLOAD DUP2 MSTORE SWAP1 PUSH1 0x1 ADD SWAP1 PUSH1 0x20 ADD DUP1 DUP4 GT PUSH2 0x834 JUMPI DUP3 SWAP1 SUB PUSH1 0x1F AND DUP3 ADD SWAP2 JUMPDEST POP POP POP POP POP DUP2 JUMP JUMPDEST PUSH1 0x0 PUSH2 0x863 PUSH2 0xED7 JUMP JUMPDEST PUSH2 0x86B PUSH2 0x1E7B JUMP JUMPDEST PUSH2 0x87E DUP12 DUP3 PUSH2 0xF67 SWAP1 SWAP2 SWAP1 PUSH4 0xFFFFFFFF AND JUMP JUMPDEST PUSH1 0x0 DUP11 MLOAD GT ISZERO PUSH2 0x8A0 JUMPI PUSH2 0x89B DUP11 DUP3 PUSH2 0xF78 SWAP1 SWAP2 SWAP1 PUSH4 0xFFFFFFFF AND JUMP JUMPDEST PUSH2 0x8CA JUMP JUMPDEST PUSH1 0x0 DUP9 PUSH8 0xFFFFFFFFFFFFFFFF AND GT ISZERO PUSH2 0x8C9 JUMPI PUSH2 0x8C8 DUP10 DUP10 DUP4 PUSH2 0xFF1 SWAP1 SWAP3 SWAP2 SWAP1 PUSH4 0xFFFFFFFF AND JUMP JUMPDEST JUMPDEST JUMPDEST PUSH1 0x0 DUP8 MLOAD GT ISZERO PUSH2 0x8E8 JUMPI PUSH2 0x8E7 DUP8 DUP3 PUSH2 0x1101 SWAP1 SWAP2 SWAP1 PUSH4 0xFFFFFFFF AND JUMP JUMPDEST JUMPDEST PUSH1 0x0 DUP7 MLOAD GT ISZERO PUSH2 0x906 JUMPI PUSH2 0x905 DUP7 DUP3 PUSH2 0x1149 SWAP1 SWAP2 SWAP1 PUSH4 0xFFFFFFFF AND JUMP JUMPDEST JUMPDEST PUSH2 0x91A PUSH2 0x912 DUP3 PUSH2 0x1191 JUMP JUMPDEST DUP7 DUP7 DUP7 PUSH2 0x15AD JUMP JUMPDEST PUSH1 0x4 DUP2 SWAP1 SSTORE POP PUSH1 0x4 SLOAD SWAP2 POP POP SWAP10 SWAP9 POP POP POP POP POP POP POP POP POP JUMP JUMPDEST PUSH1 0x1 PUSH1 0x0 SWAP1 SLOAD SWAP1 PUSH2 0x100 EXP SWAP1 DIV PUSH20 0xFFFFFFFFFFFFFFFFFFFFFFFFFFFFFFFFFFFFFFFF AND PUSH20 0xFFFFFFFFFFFFFFFFFFFFFFFFFFFFFFFFFFFFFFFF AND CALLER PUSH20 0xFFFFFFFFFFFFFFFFFFFFFFFFFFFFFFFFFFFFFFFF AND EQ PUSH2 0x9C3 JUMPI PUSH1 0x40 MLOAD PUSH32 0x8C379A000000000000000000000000000000000000000000000000000000000 DUP2 MSTORE PUSH1 0x4 ADD PUSH2 0x9BA SWAP1 PUSH2 0x2E54 JUMP JUMPDEST PUSH1 0x40 MLOAD DUP1 SWAP2 SUB SWAP1 REVERT JUMPDEST PUSH1 0x0 DUP1 PUSH1 0x0 SWAP1 SLOAD SWAP1 PUSH2 0x100 EXP SWAP1 DIV PUSH20 0xFFFFFFFFFFFFFFFFFFFFFFFFFFFFFFFFFFFFFFFF AND SWAP1 POP CALLER PUSH1 0x0 DUP1 PUSH2 0x100 EXP DUP2 SLOAD DUP2 PUSH20 0xFFFFFFFFFFFFFFFFFFFFFFFFFFFFFFFFFFFFFFFF MUL NOT AND SWAP1 DUP4 PUSH20 0xFFFFFFFFFFFFFFFFFFFFFFFFFFFFFFFFFFFFFFFF AND MUL OR SWAP1 SSTORE POP PUSH1 0x0 PUSH1 0x1 PUSH1 0x0 PUSH2 0x100 EXP DUP2 SLOAD DUP2 PUSH20 0xFFFFFFFFFFFFFFFFFFFFFFFFFFFFFFFFFFFFFFFF MUL NOT AND SWAP1 DUP4 PUSH20 0xFFFFFFFFFFFFFFFFFFFFFFFFFFFFFFFFFFFFFFFF AND MUL OR SWAP1 SSTORE POP CALLER PUSH20 0xFFFFFFFFFFFFFFFFFFFFFFFFFFFFFFFFFFFFFFFF AND DUP2 PUSH20 0xFFFFFFFFFFFFFFFFFFFFFFFFFFFFFFFFFFFFFFFF AND PUSH32 0x8BE0079C531659141344CD1FD0A4F28419497F9722A3DAAFE3B4186F6B6457E0 PUSH1 0x40 MLOAD PUSH1 0x40 MLOAD DUP1 SWAP2 SUB SWAP1 LOG3 POP JUMP JUMPDEST PUSH1 0x0 DUP1 PUSH1 0x0 SWAP1 SLOAD SWAP1 PUSH2 0x100 EXP SWAP1 DIV PUSH20 0xFFFFFFFFFFFFFFFFFFFFFFFFFFFFFFFFFFFFFFFF AND SWAP1 POP SWAP1 JUMP JUMPDEST PUSH1 0x4 SLOAD DUP2 JUMP JUMPDEST PUSH1 0x60 PUSH1 0x2 DUP3 DUP2 SLOAD DUP2 LT PUSH2 0xB0D JUMPI PUSH2 0xB0C PUSH2 0x2A8A JUMP JUMPDEST JUMPDEST SWAP1 PUSH1 0x0 MSTORE PUSH1 0x20 PUSH1 0x0 KECCAK256 SWAP1 PUSH1 0x6 MUL ADD PUSH1 0x1 ADD DUP1 SLOAD DUP1 PUSH1 0x20 MUL PUSH1 0x20 ADD PUSH1 0x40 MLOAD SWAP1 DUP2 ADD PUSH1 0x40 MSTORE DUP1 SWAP3 SWAP2 SWAP1 DUP2 DUP2 MSTORE PUSH1 0x20 ADD DUP3 DUP1 SLOAD DUP1 ISZERO PUSH2 0xB9E JUMPI PUSH1 0x20 MUL DUP3 ADD SWAP2 SWAP1 PUSH1 0x0 MSTORE PUSH1 0x20 PUSH1 0x0 KECCAK256 SWAP1 JUMPDEST DUP2 PUSH1 0x0 SWAP1 SLOAD SWAP1 PUSH2 0x100 EXP SWAP1 DIV PUSH20 0xFFFFFFFFFFFFFFFFFFFFFFFFFFFFFFFFFFFFFFFF AND PUSH20 0xFFFFFFFFFFFFFFFFFFFFFFFFFFFFFFFFFFFFFFFF AND DUP2 MSTORE PUSH1 0x20 ADD SWAP1 PUSH1 0x1 ADD SWAP1 DUP1 DUP4 GT PUSH2 0xB54 JUMPI JUMPDEST POP POP POP POP POP SWAP1 POP SWAP2 SWAP1 POP JUMP JUMPDEST PUSH1 0x2 DUP2 DUP2 SLOAD DUP2 LT PUSH2 0xBBE JUMPI PUSH2 0xBBD PUSH2 0x2A8A JUMP JUMPDEST JUMPDEST SWAP1 PUSH1 0x0 MSTORE PUSH1 0x20 PUSH1 0x0 KECCAK256 SWAP1 PUSH1 0x6 MUL ADD PUSH1 0x3 ADD SLOAD CALLVALUE LT ISZERO PUSH2 0xC12 JUMPI PUSH1 0x40 MLOAD PUSH32 0x8C379A000000000000000000000000000000000000000000000000000000000 DUP2 MSTORE PUSH1 0x4 ADD PUSH2 0xC09 SWAP1 PUSH2 0x2EE6 JUMP JUMPDEST PUSH1 0x40 MLOAD DUP1 SWAP2 SUB SWAP1 REVERT JUMPDEST PUSH1 0x0 PUSH1 0x2 DUP3 DUP2 SLOAD DUP2 LT PUSH2 0xC28 JUMPI PUSH2 0xC27 PUSH2 0x2A8A JUMP JUMPDEST JUMPDEST SWAP1 PUSH1 0x0 MSTORE PUSH1 0x20 PUSH1 0x0 KECCAK256 SWAP1 PUSH1 0x6 MUL ADD PUSH1 0x0 ADD PUSH1 0x0 SWAP1 SLOAD SWAP1 PUSH2 0x100 EXP SWAP1 DIV PUSH20 0xFFFFFFFFFFFFFFFFFFFFFFFFFFFFFFFFFFFFFFFF AND PUSH20 0xFFFFFFFFFFFFFFFFFFFFFFFFFFFFFFFFFFFFFFFF AND CALLVALUE PUSH1 0x40 MLOAD PUSH2 0xC7D SWAP1 PUSH2 0x2F37 JUMP JUMPDEST PUSH1 0x0 PUSH1 0x40 MLOAD DUP1 DUP4 SUB DUP2 DUP6 DUP8 GAS CALL SWAP3 POP POP POP RETURNDATASIZE DUP1 PUSH1 0x0 DUP2 EQ PUSH2 0xCBA JUMPI PUSH1 0x40 MLOAD SWAP2 POP PUSH1 0x1F NOT PUSH1 0x3F RETURNDATASIZE ADD AND DUP3 ADD PUSH1 0x40 MSTORE RETURNDATASIZE DUP3 MSTORE RETURNDATASIZE PUSH1 0x0 PUSH1 0x20 DUP5 ADD RETURNDATACOPY PUSH2 0xCBF JUMP JUMPDEST PUSH1 0x60 SWAP2 POP JUMPDEST POP POP SWAP1 POP DUP1 PUSH2 0xD03 JUMPI PUSH1 0x40 MLOAD PUSH32 0x8C379A000000000000000000000000000000000000000000000000000000000 DUP2 MSTORE PUSH1 0x4 ADD PUSH2 0xCFA SWAP1 PUSH2 0x2F98 JUMP JUMPDEST PUSH1 0x40 MLOAD DUP1 SWAP2 SUB SWAP1 REVERT JUMPDEST PUSH1 0x2 DUP3 DUP2 SLOAD DUP2 LT PUSH2 0xD17 JUMPI PUSH2 0xD16 PUSH2 0x2A8A JUMP JUMPDEST JUMPDEST SWAP1 PUSH1 0x0 MSTORE PUSH1 0x20 PUSH1 0x0 KECCAK256 SWAP1 PUSH1 0x6 MUL ADD PUSH1 0x1 ADD CALLER SWAP1 DUP1 PUSH1 0x1 DUP2 SLOAD ADD DUP1 DUP3 SSTORE DUP1 SWAP2 POP POP PUSH1 0x1 SWAP1 SUB SWAP1 PUSH1 0x0 MSTORE PUSH1 0x20 PUSH1 0x0 KECCAK256 ADD PUSH1 0x0 SWAP1 SWAP2 SWAP1 SWAP2 SWAP1 SWAP2 PUSH2 0x100 EXP DUP2 SLOAD DUP2 PUSH20 0xFFFFFFFFFFFFFFFFFFFFFFFFFFFFFFFFFFFFFFFF MUL NOT AND SWAP1 DUP4 PUSH20 0xFFFFFFFFFFFFFFFFFFFFFFFFFFFFFFFFFFFFFFFF AND MUL OR SWAP1 SSTORE POP PUSH32 0xB7805C98CA12CECF0D6D4C9A5BB7F250CBC2A1EB545E287B4AA0DBFF31DF5C93 CALLER PUSH1 0x2 DUP5 DUP2 SLOAD DUP2 LT PUSH2 0xDBF JUMPI PUSH2 0xDBE PUSH2 0x2A8A JUMP JUMPDEST JUMPDEST SWAP1 PUSH1 0x0 MSTORE PUSH1 0x20 PUSH1 0x0 KECCAK256 SWAP1 PUSH1 0x6 MUL ADD PUSH1 0x3 ADD SLOAD DUP5 PUSH1 0x40 MLOAD PUSH2 0xDE1 SWAP4 SWAP3 SWAP2 SWAP1 PUSH2 0x2FB8 JUMP JUMPDEST PUSH1 0x40 MLOAD DUP1 SWAP2 SUB SWAP1 LOG1 POP POP JUMP JUMPDEST PUSH1 0x0 PUSH1 0x2 DUP3 DUP2 SLOAD DUP2 LT PUSH2 0xE03 JUMPI PUSH2 0xE02 PUSH2 0x2A8A JUMP JUMPDEST JUMPDEST SWAP1 PUSH1 0x0 MSTORE PUSH1 0x20 PUSH1 0x0 KECCAK256 SWAP1 PUSH1 0x6 MUL ADD PUSH1 0x3 ADD SLOAD SWAP1 POP SWAP2 SWAP1 POP JUMP JUMPDEST PUSH2 0xE24 PUSH2 0xED7 JUMP JUMPDEST PUSH2 0xE2D DUP2 PUSH2 0x1690 JUMP JUMPDEST POP JUMP JUMPDEST DUP3 PUSH1 0x4 SLOAD EQ PUSH2 0xE76 JUMPI DUP3 PUSH1 0x40 MLOAD PUSH32 0xD068BF5B00000000000000000000000000000000000000000000000000000000 DUP2 MSTORE PUSH1 0x4 ADD PUSH2 0xE6D SWAP2 SWAP1 PUSH2 0x22CB JUMP JUMPDEST PUSH1 0x40 MLOAD DUP1 SWAP2 SUB SWAP1 REVERT JUMPDEST DUP2 PUSH1 0x5 SWAP1 DUP2 PUSH2 0xE85 SWAP2 SWAP1 PUSH2 0x304A JUMP JUMPDEST POP DUP1 PUSH1 0x6 SWAP1 DUP2 PUSH2 0xE95 SWAP2 SWAP1 PUSH2 0x304A JUMP JUMPDEST POP DUP3 PUSH32 0x7873807BF6DDC50401CD3D29BBE0DECEE23FD4D68D273F4B5EB83CDED4D2F172 PUSH1 0x5 PUSH1 0x6 PUSH1 0x40 MLOAD PUSH2 0xECA SWAP3 SWAP2 SWAP1 PUSH2 0x31A0 JUMP JUMPDEST PUSH1 0x40 MLOAD DUP1 SWAP2 SUB SWAP1 LOG2 POP POP POP JUMP JUMPDEST PUSH1 0x0 DUP1 SLOAD SWAP1 PUSH2 0x100 EXP SWAP1 DIV PUSH20 0xFFFFFFFFFFFFFFFFFFFFFFFFFFFFFFFFFFFFFFFF AND PUSH20 0xFFFFFFFFFFFFFFFFFFFFFFFFFFFFFFFFFFFFFFFF AND CALLER PUSH20 0xFFFFFFFFFFFFFFFFFFFFFFFFFFFFFFFFFFFFFFFF AND EQ PUSH2 0xF65 JUMPI PUSH1 0x40 MLOAD PUSH32 0x8C379A000000000000000000000000000000000000000000000000000000000 DUP2 MSTORE PUSH1 0x4 ADD PUSH2 0xF5C SWAP1 PUSH2 0x3223 JUMP JUMPDEST PUSH1 0x40 MLOAD DUP1 SWAP2 SUB SWAP1 REVERT JUMPDEST JUMP JUMPDEST PUSH2 0xF74 DUP3 PUSH1 0x0 DUP1 DUP5 PUSH2 0x17BC JUMP JUMPDEST POP POP JUMP JUMPDEST PUSH1 0x0 DUP2 MLOAD SUB PUSH2 0xFB3 JUMPI PUSH1 0x40 MLOAD PUSH32 0xE889636F00000000000000000000000000000000000000000000000000000000 DUP2 MSTORE PUSH1 0x4 ADD PUSH1 0x40 MLOAD DUP1 SWAP2 SUB SWAP1 REVERT JUMPDEST PUSH1 0x1 DUP3 PUSH1 0x20 ADD SWAP1 PUSH1 0x2 DUP2 GT ISZERO PUSH2 0xFCC JUMPI PUSH2 0xFCB PUSH2 0x3243 JUMP JUMPDEST JUMPDEST SWAP1 DUP2 PUSH1 0x2 DUP2 GT ISZERO PUSH2 0xFE0 JUMPI PUSH2 0xFDF PUSH2 0x3243 JUMP JUMPDEST JUMPDEST DUP2 MSTORE POP POP DUP1 DUP3 PUSH1 0x80 ADD DUP2 SWAP1 MSTORE POP POP POP JUMP JUMPDEST PUSH1 0x0 PUSH2 0xFFE PUSH2 0x100 PUSH2 0x1866 JUMP JUMPDEST SWAP1 POP PUSH2 0x1048 PUSH1 0x40 MLOAD DUP1 PUSH1 0x40 ADD PUSH1 0x40 MSTORE DUP1 PUSH1 0x6 DUP2 MSTORE PUSH1 0x20 ADD PUSH32 0x736C6F7449440000000000000000000000000000000000000000000000000000 DUP2 MSTORE POP DUP3 PUSH2 0x188D SWAP1 SWAP2 SWAP1 PUSH4 0xFFFFFFFF AND JUMP JUMPDEST PUSH2 0x105E DUP4 PUSH1 0xFF AND DUP3 PUSH2 0x18B6 SWAP1 SWAP2 SWAP1 PUSH4 0xFFFFFFFF AND JUMP JUMPDEST PUSH2 0x10A6 PUSH1 0x40 MLOAD DUP1 PUSH1 0x40 ADD PUSH1 0x40 MSTORE DUP1 PUSH1 0x7 DUP2 MSTORE PUSH1 0x20 ADD PUSH32 0x76657273696F6E00000000000000000000000000000000000000000000000000 DUP2 MSTORE POP DUP3 PUSH2 0x188D SWAP1 SWAP2 SWAP1 PUSH4 0xFFFFFFFF AND JUMP JUMPDEST PUSH2 0x10B9 DUP3 DUP3 PUSH2 0x18B6 SWAP1 SWAP2 SWAP1 PUSH4 0xFFFFFFFF AND JUMP JUMPDEST PUSH1 0x2 DUP5 PUSH1 0x20 ADD SWAP1 PUSH1 0x2 DUP2 GT ISZERO PUSH2 0x10D2 JUMPI PUSH2 0x10D1 PUSH2 0x3243 JUMP JUMPDEST JUMPDEST SWAP1 DUP2 PUSH1 0x2 DUP2 GT ISZERO PUSH2 0x10E6 JUMPI PUSH2 0x10E5 PUSH2 0x3243 JUMP JUMPDEST JUMPDEST DUP2 MSTORE POP POP DUP1 PUSH1 0x0 ADD MLOAD PUSH1 0x0 ADD MLOAD DUP5 PUSH1 0x80 ADD DUP2 SWAP1 MSTORE POP POP POP POP POP JUMP JUMPDEST PUSH1 0x0 DUP2 MLOAD SUB PUSH2 0x113C JUMPI PUSH1 0x40 MLOAD PUSH32 0xFE936CB700000000000000000000000000000000000000000000000000000000 DUP2 MSTORE PUSH1 0x4 ADD PUSH1 0x40 MLOAD DUP1 SWAP2 SUB SWAP1 REVERT JUMPDEST DUP1 DUP3 PUSH1 0xA0 ADD DUP2 SWAP1 MSTORE POP POP POP JUMP JUMPDEST PUSH1 0x0 DUP2 MLOAD SUB PUSH2 0x1184 JUMPI PUSH1 0x40 MLOAD PUSH32 0xFE936CB700000000000000000000000000000000000000000000000000000000 DUP2 MSTORE PUSH1 0x4 ADD PUSH1 0x40 MLOAD DUP1 SWAP2 SUB SWAP1 REVERT JUMPDEST DUP1 DUP3 PUSH1 0xC0 ADD DUP2 SWAP1 MSTORE POP POP POP JUMP JUMPDEST PUSH1 0x60 PUSH1 0x0 PUSH2 0x11A0 PUSH2 0x100 PUSH2 0x1866 JUMP JUMPDEST SWAP1 POP PUSH2 0x11EA PUSH1 0x40 MLOAD DUP1 PUSH1 0x40 ADD PUSH1 0x40 MSTORE DUP1 PUSH1 0xC DUP2 MSTORE PUSH1 0x20 ADD PUSH32 0x636F64654C6F636174696F6E0000000000000000000000000000000000000000 DUP2 MSTORE POP DUP3 PUSH2 0x188D SWAP1 SWAP2 SWAP1 PUSH4 0xFFFFFFFF AND JUMP JUMPDEST PUSH2 0x1213 DUP4 PUSH1 0x0 ADD MLOAD PUSH1 0x2 DUP2 GT ISZERO PUSH2 0x1204 JUMPI PUSH2 0x1203 PUSH2 0x3243 JUMP JUMPDEST JUMPDEST DUP3 PUSH2 0x18C6 SWAP1 SWAP2 SWAP1 PUSH4 0xFFFFFFFF AND JUMP JUMPDEST PUSH2 0x125B PUSH1 0x40 MLOAD DUP1 PUSH1 0x40 ADD PUSH1 0x40 MSTORE DUP1 PUSH1 0x8 DUP2 MSTORE PUSH1 0x20 ADD PUSH32 0x6C616E6775616765000000000000000000000000000000000000000000000000 DUP2 MSTORE POP DUP3 PUSH2 0x188D SWAP1 SWAP2 SWAP1 PUSH4 0xFFFFFFFF AND JUMP JUMPDEST PUSH2 0x1284 DUP4 PUSH1 0x40 ADD MLOAD PUSH1 0x0 DUP2 GT ISZERO PUSH2 0x1275 JUMPI PUSH2 0x1274 PUSH2 0x3243 JUMP JUMPDEST JUMPDEST DUP3 PUSH2 0x18C6 SWAP1 SWAP2 SWAP1 PUSH4 0xFFFFFFFF AND JUMP JUMPDEST PUSH2 0x12CC PUSH1 0x40 MLOAD DUP1 PUSH1 0x40 ADD PUSH1 0x40 MSTORE DUP1 PUSH1 0x6 DUP2 MSTORE PUSH1 0x20 ADD PUSH32 0x736F757263650000000000000000000000000000000000000000000000000000 DUP2 MSTORE POP DUP3 PUSH2 0x188D SWAP1 SWAP2 SWAP1 PUSH4 0xFFFFFFFF AND JUMP JUMPDEST PUSH2 0x12E3 DUP4 PUSH1 0x60 ADD MLOAD DUP3 PUSH2 0x188D SWAP1 SWAP2 SWAP1 PUSH4 0xFFFFFFFF AND JUMP JUMPDEST PUSH1 0x0 DUP4 PUSH1 0xA0 ADD MLOAD MLOAD GT ISZERO PUSH2 0x139F JUMPI PUSH2 0x1339 PUSH1 0x40 MLOAD DUP1 PUSH1 0x40 ADD PUSH1 0x40 MSTORE DUP1 PUSH1 0x4 DUP2 MSTORE PUSH1 0x20 ADD PUSH32 0x6172677300000000000000000000000000000000000000000000000000000000 DUP2 MSTORE POP DUP3 PUSH2 0x188D SWAP1 SWAP2 SWAP1 PUSH4 0xFFFFFFFF AND JUMP JUMPDEST PUSH2 0x1342 DUP2 PUSH2 0x1916 JUMP JUMPDEST PUSH1 0x0 JUMPDEST DUP4 PUSH1 0xA0 ADD MLOAD MLOAD DUP2 LT ISZERO PUSH2 0x1394 JUMPI PUSH2 0x1383 DUP5 PUSH1 0xA0 ADD MLOAD DUP3 DUP2 MLOAD DUP2 LT PUSH2 0x136C JUMPI PUSH2 0x136B PUSH2 0x2A8A JUMP JUMPDEST JUMPDEST PUSH1 0x20 MUL PUSH1 0x20 ADD ADD MLOAD DUP4 PUSH2 0x188D SWAP1 SWAP2 SWAP1 PUSH4 0xFFFFFFFF AND JUMP JUMPDEST DUP1 PUSH2 0x138D SWAP1 PUSH2 0x2D66 JUMP JUMPDEST SWAP1 POP PUSH2 0x1345 JUMP JUMPDEST POP PUSH2 0x139E DUP2 PUSH2 0x193E JUMP JUMPDEST JUMPDEST PUSH1 0x0 DUP4 PUSH1 0x80 ADD MLOAD MLOAD GT ISZERO PUSH2 0x14E0 JUMPI PUSH1 0x0 PUSH1 0x2 DUP2 GT ISZERO PUSH2 0x13C1 JUMPI PUSH2 0x13C0 PUSH2 0x3243 JUMP JUMPDEST JUMPDEST DUP4 PUSH1 0x20 ADD MLOAD PUSH1 0x2 DUP2 GT ISZERO PUSH2 0x13D8 JUMPI PUSH2 0x13D7 PUSH2 0x3243 JUMP JUMPDEST JUMPDEST SUB PUSH2 0x140F JUMPI PUSH1 0x40 MLOAD PUSH32 0xA80D31F700000000000000000000000000000000000000000000000000000000 DUP2 MSTORE PUSH1 0x4 ADD PUSH1 0x40 MLOAD DUP1 SWAP2 SUB SWAP1 REVERT JUMPDEST PUSH2 0x1457 PUSH1 0x40 MLOAD DUP1 PUSH1 0x40 ADD PUSH1 0x40 MSTORE DUP1 PUSH1 0xF DUP2 MSTORE PUSH1 0x20 ADD PUSH32 0x736563726574734C6F636174696F6E0000000000000000000000000000000000 DUP2 MSTORE POP DUP3 PUSH2 0x188D SWAP1 SWAP2 SWAP1 PUSH4 0xFFFFFFFF AND JUMP JUMPDEST PUSH2 0x1480 DUP4 PUSH1 0x20 ADD MLOAD PUSH1 0x2 DUP2 GT ISZERO PUSH2 0x1471 JUMPI PUSH2 0x1470 PUSH2 0x3243 JUMP JUMPDEST JUMPDEST DUP3 PUSH2 0x18C6 SWAP1 SWAP2 SWAP1 PUSH4 0xFFFFFFFF AND JUMP JUMPDEST PUSH2 0x14C8 PUSH1 0x40 MLOAD DUP1 PUSH1 0x40 ADD PUSH1 0x40 MSTORE DUP1 PUSH1 0x7 DUP2 MSTORE PUSH1 0x20 ADD PUSH32 0x7365637265747300000000000000000000000000000000000000000000000000 DUP2 MSTORE POP DUP3 PUSH2 0x188D SWAP1 SWAP2 SWAP1 PUSH4 0xFFFFFFFF AND JUMP JUMPDEST PUSH2 0x14DF DUP4 PUSH1 0x80 ADD MLOAD DUP3 PUSH2 0x1966 SWAP1 SWAP2 SWAP1 PUSH4 0xFFFFFFFF AND JUMP JUMPDEST JUMPDEST PUSH1 0x0 DUP4 PUSH1 0xC0 ADD MLOAD MLOAD GT ISZERO PUSH2 0x159C JUMPI PUSH2 0x1536 PUSH1 0x40 MLOAD DUP1 PUSH1 0x40 ADD PUSH1 0x40 MSTORE DUP1 PUSH1 0x9 DUP2 MSTORE PUSH1 0x20 ADD PUSH32 0x6279746573417267730000000000000000000000000000000000000000000000 DUP2 MSTORE POP DUP3 PUSH2 0x188D SWAP1 SWAP2 SWAP1 PUSH4 0xFFFFFFFF AND JUMP JUMPDEST PUSH2 0x153F DUP2 PUSH2 0x1916 JUMP JUMPDEST PUSH1 0x0 JUMPDEST DUP4 PUSH1 0xC0 ADD MLOAD MLOAD DUP2 LT ISZERO PUSH2 0x1591 JUMPI PUSH2 0x1580 DUP5 PUSH1 0xC0 ADD MLOAD DUP3 DUP2 MLOAD DUP2 LT PUSH2 0x1569 JUMPI PUSH2 0x1568 PUSH2 0x2A8A JUMP JUMPDEST JUMPDEST PUSH1 0x20 MUL PUSH1 0x20 ADD ADD MLOAD DUP4 PUSH2 0x1966 SWAP1 SWAP2 SWAP1 PUSH4 0xFFFFFFFF AND JUMP JUMPDEST DUP1 PUSH2 0x158A SWAP1 PUSH2 0x2D66 JUMP JUMPDEST SWAP1 POP PUSH2 0x1542 JUMP JUMPDEST POP PUSH2 0x159B DUP2 PUSH2 0x193E JUMP JUMPDEST JUMPDEST DUP1 PUSH1 0x0 ADD MLOAD PUSH1 0x0 ADD MLOAD SWAP2 POP POP SWAP2 SWAP1 POP JUMP JUMPDEST PUSH1 0x0 DUP1 PUSH32 0x0 PUSH20 0xFFFFFFFFFFFFFFFFFFFFFFFFFFFFFFFFFFFFFFFF AND PUSH4 0x461D2762 DUP7 DUP9 PUSH1 0x1 DUP9 DUP9 PUSH1 0x40 MLOAD DUP7 PUSH4 0xFFFFFFFF AND PUSH1 0xE0 SHL DUP2 MSTORE PUSH1 0x4 ADD PUSH2 0x1612 SWAP6 SWAP5 SWAP4 SWAP3 SWAP2 SWAP1 PUSH2 0x32AD JUMP JUMPDEST PUSH1 0x20 PUSH1 0x40 MLOAD DUP1 DUP4 SUB DUP2 PUSH1 0x0 DUP8 GAS CALL ISZERO DUP1 ISZERO PUSH2 0x1631 JUMPI RETURNDATASIZE PUSH1 0x0 DUP1 RETURNDATACOPY RETURNDATASIZE PUSH1 0x0 REVERT JUMPDEST POP POP POP POP PUSH1 0x40 MLOAD RETURNDATASIZE PUSH1 0x1F NOT PUSH1 0x1F DUP3 ADD AND DUP3 ADD DUP1 PUSH1 0x40 MSTORE POP DUP2 ADD SWAP1 PUSH2 0x1655 SWAP2 SWAP1 PUSH2 0x331C JUMP JUMPDEST SWAP1 POP DUP1 PUSH32 0x1131472297A800FEE664D1D89CFA8F7676FF07189ECC53F80BBB5F4969099DB8 PUSH1 0x40 MLOAD PUSH1 0x40 MLOAD DUP1 SWAP2 SUB SWAP1 LOG2 DUP1 SWAP2 POP POP SWAP5 SWAP4 POP POP POP POP JUMP JUMPDEST CALLER PUSH20 0xFFFFFFFFFFFFFFFFFFFFFFFFFFFFFFFFFFFFFFFF AND DUP2 PUSH20 0xFFFFFFFFFFFFFFFFFFFFFFFFFFFFFFFFFFFFFFFF AND SUB PUSH2 0x16FE JUMPI PUSH1 0x40 MLOAD PUSH32 0x8C379A000000000000000000000000000000000000000000000000000000000 DUP2 MSTORE PUSH1 0x4 ADD PUSH2 0x16F5 SWAP1 PUSH2 0x3395 JUMP JUMPDEST PUSH1 0x40 MLOAD DUP1 SWAP2 SUB SWAP1 REVERT JUMPDEST DUP1 PUSH1 0x1 PUSH1 0x0 PUSH2 0x100 EXP DUP2 SLOAD DUP2 PUSH20 0xFFFFFFFFFFFFFFFFFFFFFFFFFFFFFFFFFFFFFFFF MUL NOT AND SWAP1 DUP4 PUSH20 0xFFFFFFFFFFFFFFFFFFFFFFFFFFFFFFFFFFFFFFFF AND MUL OR SWAP1 SSTORE POP DUP1 PUSH20 0xFFFFFFFFFFFFFFFFFFFFFFFFFFFFFFFFFFFFFFFF AND PUSH1 0x0 DUP1 SLOAD SWAP1 PUSH2 0x100 EXP SWAP1 DIV PUSH20 0xFFFFFFFFFFFFFFFFFFFFFFFFFFFFFFFFFFFFFFFF AND PUSH20 0xFFFFFFFFFFFFFFFFFFFFFFFFFFFFFFFFFFFFFFFF AND PUSH32 0xED8889F560326EB138920D842192F0EB3DD22B4F139C87A2C57538E05BAE1278 PUSH1 0x40 MLOAD PUSH1 0x40 MLOAD DUP1 SWAP2 SUB SWAP1 LOG3 POP JUMP JUMPDEST PUSH1 0x0 DUP2 MLOAD SUB PUSH2 0x17F7 JUMPI PUSH1 0x40 MLOAD PUSH32 0x22CE3EDD00000000000000000000000000000000000000000000000000000000 DUP2 MSTORE PUSH1 0x4 ADD PUSH1 0x40 MLOAD DUP1 SWAP2 SUB SWAP1 REVERT JUMPDEST DUP3 DUP5 PUSH1 0x0 ADD SWAP1 PUSH1 0x2 DUP2 GT ISZERO PUSH2 0x180F JUMPI PUSH2 0x180E PUSH2 0x3243 JUMP JUMPDEST JUMPDEST SWAP1 DUP2 PUSH1 0x2 DUP2 GT ISZERO PUSH2 0x1823 JUMPI PUSH2 0x1822 PUSH2 0x3243 JUMP JUMPDEST JUMPDEST DUP2 MSTORE POP POP DUP2 DUP5 PUSH1 0x40 ADD SWAP1 PUSH1 0x0 DUP2 GT ISZERO PUSH2 0x183F JUMPI PUSH2 0x183E PUSH2 0x3243 JUMP JUMPDEST JUMPDEST SWAP1 DUP2 PUSH1 0x0 DUP2 GT ISZERO PUSH2 0x1853 JUMPI PUSH2 0x1852 PUSH2 0x3243 JUMP JUMPDEST JUMPDEST DUP2 MSTORE POP POP DUP1 DUP5 PUSH1 0x60 ADD DUP2 SWAP1 MSTORE POP POP POP POP POP JUMP JUMPDEST PUSH2 0x186E PUSH2 0x1EED JUMP JUMPDEST PUSH2 0x187C DUP2 PUSH1 0x0 ADD MLOAD DUP4 PUSH2 0x198F JUMP JUMPDEST POP PUSH1 0x0 DUP2 PUSH1 0x20 ADD DUP2 DUP2 MSTORE POP POP SWAP2 SWAP1 POP JUMP JUMPDEST PUSH2 0x189A DUP3 PUSH1 0x3 DUP4 MLOAD PUSH2 0x1A08 JUMP JUMPDEST PUSH2 0x18B1 DUP2 DUP4 PUSH1 0x0 ADD MLOAD PUSH2 0x1BB1 SWAP1 SWAP2 SWAP1 PUSH4 0xFFFFFFFF AND JUMP JUMPDEST POP POP POP JUMP JUMPDEST PUSH2 0x18C2 DUP3 PUSH1 0x0 DUP4 PUSH2 0x1A08 JUMP JUMPDEST POP POP JUMP JUMPDEST PUSH2 0x18E8 PUSH1 0x2 PUSH1 0x5 PUSH1 0x6 PUSH1 0xFF AND SWAP1 SHL OR DUP4 PUSH1 0x0 ADD MLOAD PUSH2 0x1BCD SWAP1 SWAP2 SWAP1 PUSH4 0xFFFFFFFF AND JUMP JUMPDEST POP PUSH2 0x1912 DUP3 DUP3 PUSH1 0x40 MLOAD PUSH1 0x20 ADD PUSH2 0x18FE SWAP2 SWAP1 PUSH2 0x2178 JUMP JUMPDEST PUSH1 0x40 MLOAD PUSH1 0x20 DUP2 DUP4 SUB SUB DUP2 MSTORE SWAP1 PUSH1 0x40 MSTORE PUSH2 0x1966 JUMP JUMPDEST POP POP JUMP JUMPDEST PUSH2 0x1921 DUP2 PUSH1 0x4 PUSH2 0x1C37 JUMP JUMPDEST PUSH1 0x1 DUP2 PUSH1 0x20 ADD DUP2 DUP2 MLOAD PUSH2 0x1934 SWAP2 SWAP1 PUSH2 0x33B5 JUMP JUMPDEST SWAP2 POP DUP2 DUP2 MSTORE POP POP POP JUMP JUMPDEST PUSH2 0x1949 DUP2 PUSH1 0x7 PUSH2 0x1C37 JUMP JUMPDEST PUSH1 0x1 DUP2 PUSH1 0x20 ADD DUP2 DUP2 MLOAD PUSH2 0x195C SWAP2 SWAP1 PUSH2 0x33E9 JUMP JUMPDEST SWAP2 POP DUP2 DUP2 MSTORE POP POP POP JUMP JUMPDEST PUSH2 0x1973 DUP3 PUSH1 0x2 DUP4 MLOAD PUSH2 0x1A08 JUMP JUMPDEST PUSH2 0x198A DUP2 DUP4 PUSH1 0x0 ADD MLOAD PUSH2 0x1BB1 SWAP1 SWAP2 SWAP1 PUSH4 0xFFFFFFFF AND JUMP JUMPDEST POP POP POP JUMP JUMPDEST PUSH2 0x1997 PUSH2 0x1F0D JUMP JUMPDEST PUSH1 0x0 PUSH1 0x20 DUP4 PUSH2 0x19A6 SWAP2 SWAP1 PUSH2 0x344C JUMP JUMPDEST EQ PUSH2 0x19D2 JUMPI PUSH1 0x20 DUP3 PUSH2 0x19B8 SWAP2 SWAP1 PUSH2 0x344C JUMP JUMPDEST PUSH1 0x20 PUSH2 0x19C4 SWAP2 SWAP1 PUSH2 0x33E9 JUMP JUMPDEST DUP3 PUSH2 0x19CF SWAP2 SWAP1 PUSH2 0x33B5 JUMP JUMPDEST SWAP2 POP JUMPDEST DUP2 DUP4 PUSH1 0x20 ADD DUP2 DUP2 MSTORE POP POP PUSH1 0x40 MLOAD DUP1 DUP5 MSTORE PUSH1 0x0 DUP2 MSTORE DUP3 DUP2 ADD PUSH1 0x20 ADD DUP2 DUP2 LT ISZERO PUSH2 0x19F9 JUMPI PUSH1 0x0 DUP1 REVERT JUMPDEST DUP1 PUSH1 0x40 MSTORE POP POP DUP3 SWAP1 POP SWAP3 SWAP2 POP POP JUMP JUMPDEST PUSH1 0x17 DUP2 PUSH8 0xFFFFFFFFFFFFFFFF AND GT PUSH2 0x1A43 JUMPI PUSH2 0x1A3D DUP2 PUSH1 0x5 DUP5 PUSH1 0xFF AND SWAP1 SHL PUSH1 0xFF AND OR DUP5 PUSH1 0x0 ADD MLOAD PUSH2 0x1BCD SWAP1 SWAP2 SWAP1 PUSH4 0xFFFFFFFF AND JUMP JUMPDEST POP PUSH2 0x1BAC JUMP JUMPDEST PUSH1 0xFF DUP2 PUSH8 0xFFFFFFFFFFFFFFFF AND GT PUSH2 0x1AA1 JUMPI PUSH2 0x1A76 PUSH1 0x18 PUSH1 0x5 DUP5 PUSH1 0xFF AND SWAP1 SHL OR DUP5 PUSH1 0x0 ADD MLOAD PUSH2 0x1BCD SWAP1 SWAP2 SWAP1 PUSH4 0xFFFFFFFF AND JUMP JUMPDEST POP PUSH2 0x1A9B DUP2 PUSH8 0xFFFFFFFFFFFFFFFF AND PUSH1 0x1 DUP6 PUSH1 0x0 ADD MLOAD PUSH2 0x1C5D SWAP1 SWAP3 SWAP2 SWAP1 PUSH4 0xFFFFFFFF AND JUMP JUMPDEST POP PUSH2 0x1BAB JUMP JUMPDEST PUSH2 0xFFFF DUP2 PUSH8 0xFFFFFFFFFFFFFFFF AND GT PUSH2 0x1B00 JUMPI PUSH2 0x1AD5 PUSH1 0x19 PUSH1 0x5 DUP5 PUSH1 0xFF AND SWAP1 SHL OR DUP5 PUSH1 0x0 ADD MLOAD PUSH2 0x1BCD SWAP1 SWAP2 SWAP1 PUSH4 0xFFFFFFFF AND JUMP JUMPDEST POP PUSH2 0x1AFA DUP2 PUSH8 0xFFFFFFFFFFFFFFFF AND PUSH1 0x2 DUP6 PUSH1 0x0 ADD MLOAD PUSH2 0x1C5D SWAP1 SWAP3 SWAP2 SWAP1 PUSH4 0xFFFFFFFF AND JUMP JUMPDEST POP PUSH2 0x1BAA JUMP JUMPDEST PUSH4 0xFFFFFFFF DUP2 PUSH8 0xFFFFFFFFFFFFFFFF AND GT PUSH2 0x1B61 JUMPI PUSH2 0x1B36 PUSH1 0x1A PUSH1 0x5 DUP5 PUSH1 0xFF AND SWAP1 SHL OR DUP5 PUSH1 0x0 ADD MLOAD PUSH2 0x1BCD SWAP1 SWAP2 SWAP1 PUSH4 0xFFFFFFFF AND JUMP JUMPDEST POP PUSH2 0x1B5B DUP2 PUSH8 0xFFFFFFFFFFFFFFFF AND PUSH1 0x4 DUP6 PUSH1 0x0 ADD MLOAD PUSH2 0x1C5D SWAP1 SWAP3 SWAP2 SWAP1 PUSH4 0xFFFFFFFF AND JUMP JUMPDEST POP PUSH2 0x1BA9 JUMP JUMPDEST PUSH2 0x1B82 PUSH1 0x1B PUSH1 0x5 DUP5 PUSH1 0xFF AND SWAP1 SHL OR DUP5 PUSH1 0x0 ADD MLOAD PUSH2 0x1BCD SWAP1 SWAP2 SWAP1 PUSH4 0xFFFFFFFF AND JUMP JUMPDEST POP PUSH2 0x1BA7 DUP2 PUSH8 0xFFFFFFFFFFFFFFFF AND PUSH1 0x8 DUP6 PUSH1 0x0 ADD MLOAD PUSH2 0x1C5D SWAP1 SWAP3 SWAP2 SWAP1 PUSH4 0xFFFFFFFF AND JUMP JUMPDEST POP JUMPDEST JUMPDEST JUMPDEST JUMPDEST POP POP POP JUMP JUMPDEST PUSH2 0x1BB9 PUSH2 0x1F0D JUMP JUMPDEST PUSH2 0x1BC5 DUP4 DUP4 DUP5 MLOAD PUSH2 0x1CEA JUMP JUMPDEST SWAP1 POP SWAP3 SWAP2 POP POP JUMP JUMPDEST PUSH2 0x1BD5 PUSH2 0x1F0D JUMP JUMPDEST PUSH1 0x0 DUP4 PUSH1 0x0 ADD MLOAD MLOAD SWAP1 POP PUSH1 0x0 PUSH1 0x1 DUP3 PUSH2 0x1BEE SWAP2 SWAP1 PUSH2 0x33B5 JUMP JUMPDEST SWAP1 POP DUP5 PUSH1 0x20 ADD MLOAD DUP3 LT PUSH2 0x1C12 JUMPI PUSH2 0x1C11 DUP6 PUSH1 0x2 DUP4 PUSH2 0x1C0C SWAP2 SWAP1 PUSH2 0x347D JUMP JUMPDEST PUSH2 0x1DCD JUMP JUMPDEST JUMPDEST DUP5 MLOAD PUSH1 0x20 DUP4 DUP3 ADD ADD DUP6 DUP2 MSTORE8 DUP2 MLOAD DUP4 GT ISZERO PUSH2 0x1C2A JUMPI DUP3 DUP3 MSTORE JUMPDEST POP POP DUP5 SWAP3 POP POP POP SWAP3 SWAP2 POP POP JUMP JUMPDEST PUSH2 0x1C58 PUSH1 0x1F PUSH1 0x5 DUP4 PUSH1 0xFF AND SWAP1 SHL OR DUP4 PUSH1 0x0 ADD MLOAD PUSH2 0x1BCD SWAP1 SWAP2 SWAP1 PUSH4 0xFFFFFFFF AND JUMP JUMPDEST POP POP POP JUMP JUMPDEST PUSH2 0x1C65 PUSH2 0x1F0D JUMP JUMPDEST PUSH1 0x0 DUP5 PUSH1 0x0 ADD MLOAD MLOAD SWAP1 POP PUSH1 0x0 DUP2 DUP5 PUSH2 0x1C7D SWAP2 SWAP1 PUSH2 0x33B5 JUMP JUMPDEST SWAP1 POP DUP6 PUSH1 0x20 ADD MLOAD DUP2 GT ISZERO PUSH2 0x1CA2 JUMPI PUSH2 0x1CA1 DUP7 PUSH1 0x2 DUP4 PUSH2 0x1C9C SWAP2 SWAP1 PUSH2 0x347D JUMP JUMPDEST PUSH2 0x1DCD JUMP JUMPDEST JUMPDEST PUSH1 0x0 PUSH1 0x1 DUP6 PUSH2 0x100 PUSH2 0x1CB4 SWAP2 SWAP1 PUSH2 0x35F2 JUMP JUMPDEST PUSH2 0x1CBE SWAP2 SWAP1 PUSH2 0x33E9 JUMP JUMPDEST SWAP1 POP DUP7 MLOAD DUP3 DUP2 ADD DUP8 DUP4 NOT DUP3 MLOAD AND OR DUP2 MSTORE DUP2 MLOAD DUP5 GT ISZERO PUSH2 0x1CDB JUMPI DUP4 DUP3 MSTORE JUMPDEST POP POP DUP7 SWAP4 POP POP POP POP SWAP4 SWAP3 POP POP POP JUMP JUMPDEST PUSH2 0x1CF2 PUSH2 0x1F0D JUMP JUMPDEST DUP3 MLOAD DUP3 GT ISZERO PUSH2 0x1D00 JUMPI PUSH1 0x0 DUP1 REVERT JUMPDEST PUSH1 0x0 DUP5 PUSH1 0x0 ADD MLOAD MLOAD SWAP1 POP PUSH1 0x0 DUP4 DUP3 PUSH2 0x1D18 SWAP2 SWAP1 PUSH2 0x33B5 JUMP JUMPDEST SWAP1 POP DUP6 PUSH1 0x20 ADD MLOAD DUP2 GT ISZERO PUSH2 0x1D3D JUMPI PUSH2 0x1D3C DUP7 PUSH1 0x2 DUP4 PUSH2 0x1D37 SWAP2 SWAP1 PUSH2 0x347D JUMP JUMPDEST PUSH2 0x1DCD JUMP JUMPDEST JUMPDEST PUSH1 0x0 DUP1 DUP8 MLOAD DUP1 MLOAD DUP6 PUSH1 0x20 DUP4 ADD ADD SWAP4 POP DUP1 DUP6 GT ISZERO PUSH2 0x1D58 JUMPI DUP5 DUP3 MSTORE JUMPDEST PUSH1 0x20 DUP10 ADD SWAP3 POP POP POP JUMPDEST PUSH1 0x20 DUP7 LT PUSH2 0x1D9F JUMPI DUP1 MLOAD DUP3 MSTORE PUSH1 0x20 DUP3 PUSH2 0x1D7A SWAP2 SWAP1 PUSH2 0x33B5 JUMP JUMPDEST SWAP2 POP PUSH1 0x20 DUP2 PUSH2 0x1D89 SWAP2 SWAP1 PUSH2 0x33B5 JUMP JUMPDEST SWAP1 POP PUSH1 0x20 DUP7 PUSH2 0x1D98 SWAP2 SWAP1 PUSH2 0x33E9 JUMP JUMPDEST SWAP6 POP PUSH2 0x1D61 JUMP JUMPDEST PUSH1 0x0 PUSH1 0x1 DUP8 PUSH1 0x20 SUB PUSH2 0x100 EXP SUB SWAP1 POP DUP1 NOT DUP3 MLOAD AND DUP2 DUP5 MLOAD AND DUP2 DUP2 OR DUP6 MSTORE POP POP POP DUP8 SWAP5 POP POP POP POP POP SWAP4 SWAP3 POP POP POP JUMP JUMPDEST PUSH1 0x0 DUP3 PUSH1 0x0 ADD MLOAD SWAP1 POP PUSH2 0x1DE0 DUP4 DUP4 PUSH2 0x198F JUMP JUMPDEST POP PUSH2 0x1DEB DUP4 DUP3 PUSH2 0x1BB1 JUMP JUMPDEST POP POP POP POP JUMP JUMPDEST DUP3 DUP1 SLOAD DUP3 DUP3 SSTORE SWAP1 PUSH1 0x0 MSTORE PUSH1 0x20 PUSH1 0x0 KECCAK256 SWAP1 DUP2 ADD SWAP3 DUP3 ISZERO PUSH2 0x1E6A JUMPI SWAP2 PUSH1 0x20 MUL DUP3 ADD JUMPDEST DUP3 DUP2 GT ISZERO PUSH2 0x1E69 JUMPI DUP3 MLOAD DUP3 PUSH1 0x0 PUSH2 0x100 EXP DUP2 SLOAD DUP2 PUSH20 0xFFFFFFFFFFFFFFFFFFFFFFFFFFFFFFFFFFFFFFFF MUL NOT AND SWAP1 DUP4 PUSH20 0xFFFFFFFFFFFFFFFFFFFFFFFFFFFFFFFFFFFFFFFF AND MUL OR SWAP1 SSTORE POP SWAP2 PUSH1 0x20 ADD SWAP2 SWAP1 PUSH1 0x1 ADD SWAP1 PUSH2 0x1E11 JUMP JUMPDEST JUMPDEST POP SWAP1 POP PUSH2 0x1E77 SWAP2 SWAP1 PUSH2 0x1F27 JUMP JUMPDEST POP SWAP1 JUMP JUMPDEST PUSH1 0x40 MLOAD DUP1 PUSH1 0xE0 ADD PUSH1 0x40 MSTORE DUP1 PUSH1 0x0 PUSH1 0x2 DUP2 GT ISZERO PUSH2 0x1E9A JUMPI PUSH2 0x1E99 PUSH2 0x3243 JUMP JUMPDEST JUMPDEST DUP2 MSTORE PUSH1 0x20 ADD PUSH1 0x0 PUSH1 0x2 DUP2 GT ISZERO PUSH2 0x1EB3 JUMPI PUSH2 0x1EB2 PUSH2 0x3243 JUMP JUMPDEST JUMPDEST DUP2 MSTORE PUSH1 0x20 ADD PUSH1 0x0 DUP1 DUP2 GT ISZERO PUSH2 0x1ECB JUMPI PUSH2 0x1ECA PUSH2 0x3243 JUMP JUMPDEST JUMPDEST DUP2 MSTORE PUSH1 0x20 ADD PUSH1 0x60 DUP2 MSTORE PUSH1 0x20 ADD PUSH1 0x60 DUP2 MSTORE PUSH1 0x20 ADD PUSH1 0x60 DUP2 MSTORE PUSH1 0x20 ADD PUSH1 0x60 DUP2 MSTORE POP SWAP1 JUMP JUMPDEST PUSH1 0x40 MLOAD DUP1 PUSH1 0x40 ADD PUSH1 0x40 MSTORE DUP1 PUSH2 0x1F00 PUSH2 0x1F0D JUMP JUMPDEST DUP2 MSTORE PUSH1 0x20 ADD PUSH1 0x0 DUP2 MSTORE POP SWAP1 JUMP JUMPDEST PUSH1 0x40 MLOAD DUP1 PUSH1 0x40 ADD PUSH1 0x40 MSTORE DUP1 PUSH1 0x60 DUP2 MSTORE PUSH1 0x20 ADD PUSH1 0x0 DUP2 MSTORE POP SWAP1 JUMP JUMPDEST JUMPDEST DUP1 DUP3 GT ISZERO PUSH2 0x1F40 JUMPI PUSH1 0x0 DUP2 PUSH1 0x0 SWAP1 SSTORE POP PUSH1 0x1 ADD PUSH2 0x1F28 JUMP JUMPDEST POP SWAP1 JUMP JUMPDEST PUSH1 0x0 PUSH1 0x40 MLOAD SWAP1 POP SWAP1 JUMP JUMPDEST PUSH1 0x0 DUP1 REVERT JUMPDEST PUSH1 0x0 DUP1 REVERT JUMPDEST PUSH1 0x0 DUP2 SWAP1 POP SWAP2 SWAP1 POP JUMP JUMPDEST PUSH2 0x1F6B DUP2 PUSH2 0x1F58 JUMP JUMPDEST DUP2 EQ PUSH2 0x1F76 JUMPI PUSH1 0x0 DUP1 REVERT JUMPDEST POP JUMP JUMPDEST PUSH1 0x0 DUP2 CALLDATALOAD SWAP1 POP PUSH2 0x1F88 DUP2 PUSH2 0x1F62 JUMP JUMPDEST SWAP3 SWAP2 POP POP JUMP JUMPDEST PUSH1 0x0 DUP1 REVERT JUMPDEST PUSH1 0x0 DUP1 REVERT JUMPDEST PUSH1 0x0 PUSH1 0x1F NOT PUSH1 0x1F DUP4 ADD AND SWAP1 POP SWAP2 SWAP1 POP JUMP JUMPDEST PUSH32 0x4E487B7100000000000000000000000000000000000000000000000000000000 PUSH1 0x0 MSTORE PUSH1 0x41 PUSH1 0x4 MSTORE PUSH1 0x24 PUSH1 0x0 REVERT JUMPDEST PUSH2 0x1FE1 DUP3 PUSH2 0x1F98 JUMP JUMPDEST DUP2 ADD DUP2 DUP2 LT PUSH8 0xFFFFFFFFFFFFFFFF DUP3 GT OR ISZERO PUSH2 0x2000 JUMPI PUSH2 0x1FFF PUSH2 0x1FA9 JUMP JUMPDEST JUMPDEST DUP1 PUSH1 0x40 MSTORE POP POP POP JUMP JUMPDEST PUSH1 0x0 PUSH2 0x2013 PUSH2 0x1F44 JUMP JUMPDEST SWAP1 POP PUSH2 0x201F DUP3 DUP3 PUSH2 0x1FD8 JUMP JUMPDEST SWAP2 SWAP1 POP JUMP JUMPDEST PUSH1 0x0 PUSH8 0xFFFFFFFFFFFFFFFF DUP3 GT ISZERO PUSH2 0x203F JUMPI PUSH2 0x203E PUSH2 0x1FA9 JUMP JUMPDEST JUMPDEST PUSH2 0x2048 DUP3 PUSH2 0x1F98 JUMP JUMPDEST SWAP1 POP PUSH1 0x20 DUP2 ADD SWAP1 POP SWAP2 SWAP1 POP JUMP JUMPDEST DUP3 DUP2 DUP4 CALLDATACOPY PUSH1 0x0 DUP4 DUP4 ADD MSTORE POP POP POP JUMP JUMPDEST PUSH1 0x0 PUSH2 0x2077 PUSH2 0x2072 DUP5 PUSH2 0x2024 JUMP JUMPDEST PUSH2 0x2009 JUMP JUMPDEST SWAP1 POP DUP3 DUP2 MSTORE PUSH1 0x20 DUP2 ADD DUP5 DUP5 DUP5 ADD GT ISZERO PUSH2 0x2093 JUMPI PUSH2 0x2092 PUSH2 0x1F93 JUMP JUMPDEST JUMPDEST PUSH2 0x209E DUP5 DUP3 DUP6 PUSH2 0x2055 JUMP JUMPDEST POP SWAP4 SWAP3 POP POP POP JUMP JUMPDEST PUSH1 0x0 DUP3 PUSH1 0x1F DUP4 ADD SLT PUSH2 0x20BB JUMPI PUSH2 0x20BA PUSH2 0x1F8E JUMP JUMPDEST JUMPDEST DUP2 CALLDATALOAD PUSH2 0x20CB DUP5 DUP3 PUSH1 0x20 DUP7 ADD PUSH2 0x2064 JUMP JUMPDEST SWAP2 POP POP SWAP3 SWAP2 POP POP JUMP JUMPDEST PUSH1 0x0 DUP1 PUSH1 0x0 PUSH1 0x60 DUP5 DUP7 SUB SLT ISZERO PUSH2 0x20ED JUMPI PUSH2 0x20EC PUSH2 0x1F4E JUMP JUMPDEST JUMPDEST PUSH1 0x0 PUSH2 0x20FB DUP7 DUP3 DUP8 ADD PUSH2 0x1F79 JUMP JUMPDEST SWAP4 POP POP PUSH1 0x20 DUP5 ADD CALLDATALOAD PUSH8 0xFFFFFFFFFFFFFFFF DUP2 GT ISZERO PUSH2 0x211C JUMPI PUSH2 0x211B PUSH2 0x1F53 JUMP JUMPDEST JUMPDEST PUSH2 0x2128 DUP7 DUP3 DUP8 ADD PUSH2 0x20A6 JUMP JUMPDEST SWAP3 POP POP PUSH1 0x40 DUP5 ADD CALLDATALOAD PUSH8 0xFFFFFFFFFFFFFFFF DUP2 GT ISZERO PUSH2 0x2149 JUMPI PUSH2 0x2148 PUSH2 0x1F53 JUMP JUMPDEST JUMPDEST PUSH2 0x2155 DUP7 DUP3 DUP8 ADD PUSH2 0x20A6 JUMP JUMPDEST SWAP2 POP POP SWAP3 POP SWAP3 POP SWAP3 JUMP JUMPDEST PUSH1 0x0 DUP2 SWAP1 POP SWAP2 SWAP1 POP JUMP JUMPDEST PUSH2 0x2172 DUP2 PUSH2 0x215F JUMP JUMPDEST DUP3 MSTORE POP POP JUMP JUMPDEST PUSH1 0x0 PUSH1 0x20 DUP3 ADD SWAP1 POP PUSH2 0x218D PUSH1 0x0 DUP4 ADD DUP5 PUSH2 0x2169 JUMP JUMPDEST SWAP3 SWAP2 POP POP JUMP JUMPDEST PUSH1 0x0 PUSH8 0xFFFFFFFFFFFFFFFF DUP3 GT ISZERO PUSH2 0x21AE JUMPI PUSH2 0x21AD PUSH2 0x1FA9 JUMP JUMPDEST JUMPDEST PUSH2 0x21B7 DUP3 PUSH2 0x1F98 JUMP JUMPDEST SWAP1 POP PUSH1 0x20 DUP2 ADD SWAP1 POP SWAP2 SWAP1 POP JUMP JUMPDEST PUSH1 0x0 PUSH2 0x21D7 PUSH2 0x21D2 DUP5 PUSH2 0x2193 JUMP JUMPDEST PUSH2 0x2009 JUMP JUMPDEST SWAP1 POP DUP3 DUP2 MSTORE PUSH1 0x20 DUP2 ADD DUP5 DUP5 DUP5 ADD GT ISZERO PUSH2 0x21F3 JUMPI PUSH2 0x21F2 PUSH2 0x1F93 JUMP JUMPDEST JUMPDEST PUSH2 0x21FE DUP5 DUP3 DUP6 PUSH2 0x2055 JUMP JUMPDEST POP SWAP4 SWAP3 POP POP POP JUMP JUMPDEST PUSH1 0x0 DUP3 PUSH1 0x1F DUP4 ADD SLT PUSH2 0x221B JUMPI PUSH2 0x221A PUSH2 0x1F8E JUMP JUMPDEST JUMPDEST DUP2 CALLDATALOAD PUSH2 0x222B DUP5 DUP3 PUSH1 0x20 DUP7 ADD PUSH2 0x21C4 JUMP JUMPDEST SWAP2 POP POP SWAP3 SWAP2 POP POP JUMP JUMPDEST PUSH2 0x223D DUP2 PUSH2 0x215F JUMP JUMPDEST DUP2 EQ PUSH2 0x2248 JUMPI PUSH1 0x0 DUP1 REVERT JUMPDEST POP JUMP JUMPDEST PUSH1 0x0 DUP2 CALLDATALOAD SWAP1 POP PUSH2 0x225A DUP2 PUSH2 0x2234 JUMP JUMPDEST SWAP3 SWAP2 POP POP JUMP JUMPDEST PUSH1 0x0 DUP1 PUSH1 0x40 DUP4 DUP6 SUB SLT ISZERO PUSH2 0x2277 JUMPI PUSH2 0x2276 PUSH2 0x1F4E JUMP JUMPDEST JUMPDEST PUSH1 0x0 DUP4 ADD CALLDATALOAD PUSH8 0xFFFFFFFFFFFFFFFF DUP2 GT ISZERO PUSH2 0x2295 JUMPI PUSH2 0x2294 PUSH2 0x1F53 JUMP JUMPDEST JUMPDEST PUSH2 0x22A1 DUP6 DUP3 DUP7 ADD PUSH2 0x2206 JUMP JUMPDEST SWAP3 POP POP PUSH1 0x20 PUSH2 0x22B2 DUP6 DUP3 DUP7 ADD PUSH2 0x224B JUMP JUMPDEST SWAP2 POP POP SWAP3 POP SWAP3 SWAP1 POP JUMP JUMPDEST PUSH2 0x22C5 DUP2 PUSH2 0x1F58 JUMP JUMPDEST DUP3 MSTORE POP POP JUMP JUMPDEST PUSH1 0x0 PUSH1 0x20 DUP3 ADD SWAP1 POP PUSH2 0x22E0 PUSH1 0x0 DUP4 ADD DUP5 PUSH2 0x22BC JUMP JUMPDEST SWAP3 SWAP2 POP POP JUMP JUMPDEST PUSH1 0x0 DUP2 MLOAD SWAP1 POP SWAP2 SWAP1 POP JUMP JUMPDEST PUSH1 0x0 DUP3 DUP3 MSTORE PUSH1 0x20 DUP3 ADD SWAP1 POP SWAP3 SWAP2 POP POP JUMP JUMPDEST PUSH1 0x0 JUMPDEST DUP4 DUP2 LT ISZERO PUSH2 0x2320 JUMPI DUP1 DUP3 ADD MLOAD DUP2 DUP5 ADD MSTORE PUSH1 0x20 DUP2 ADD SWAP1 POP PUSH2 0x2305 JUMP JUMPDEST PUSH1 0x0 DUP5 DUP5 ADD MSTORE POP POP POP POP JUMP JUMPDEST PUSH1 0x0 PUSH2 0x2337 DUP3 PUSH2 0x22E6 JUMP JUMPDEST PUSH2 0x2341 DUP2 DUP6 PUSH2 0x22F1 JUMP JUMPDEST SWAP4 POP PUSH2 0x2351 DUP2 DUP6 PUSH1 0x20 DUP7 ADD PUSH2 0x2302 JUMP JUMPDEST PUSH2 0x235A DUP2 PUSH2 0x1F98 JUMP JUMPDEST DUP5 ADD SWAP2 POP POP SWAP3 SWAP2 POP POP JUMP JUMPDEST PUSH1 0x0 PUSH1 0x20 DUP3 ADD SWAP1 POP DUP2 DUP2 SUB PUSH1 0x0 DUP4 ADD MSTORE PUSH2 0x237F DUP2 DUP5 PUSH2 0x232C JUMP JUMPDEST SWAP1 POP SWAP3 SWAP2 POP POP JUMP JUMPDEST PUSH1 0x0 PUSH1 0x20 DUP3 DUP5 SUB SLT ISZERO PUSH2 0x239D JUMPI PUSH2 0x239C PUSH2 0x1F4E JUMP JUMPDEST JUMPDEST PUSH1 0x0 PUSH2 0x23AB DUP5 DUP3 DUP6 ADD PUSH2 0x224B JUMP JUMPDEST SWAP2 POP POP SWAP3 SWAP2 POP POP JUMP JUMPDEST PUSH1 0x0 DUP2 MLOAD SWAP1 POP SWAP2 SWAP1 POP JUMP JUMPDEST PUSH1 0x0 DUP3 DUP3 MSTORE PUSH1 0x20 DUP3 ADD SWAP1 POP SWAP3 SWAP2 POP POP JUMP JUMPDEST PUSH1 0x0 PUSH2 0x23DB DUP3 PUSH2 0x23B4 JUMP JUMPDEST PUSH2 0x23E5 DUP2 DUP6 PUSH2 0x23BF JUMP JUMPDEST SWAP4 POP PUSH2 0x23F5 DUP2 DUP6 PUSH1 0x20 DUP7 ADD PUSH2 0x2302 JUMP JUMPDEST PUSH2 0x23FE DUP2 PUSH2 0x1F98 JUMP JUMPDEST DUP5 ADD SWAP2 POP POP SWAP3 SWAP2 POP POP JUMP JUMPDEST PUSH1 0x0 PUSH1 0x20 DUP3 ADD SWAP1 POP DUP2 DUP2 SUB PUSH1 0x0 DUP4 ADD MSTORE PUSH2 0x2423 DUP2 DUP5 PUSH2 0x23D0 JUMP JUMPDEST SWAP1 POP SWAP3 SWAP2 POP POP JUMP JUMPDEST PUSH1 0x0 DUP1 PUSH1 0x0 PUSH1 0x60 DUP5 DUP7 SUB SLT ISZERO PUSH2 0x2444 JUMPI PUSH2 0x2443 PUSH2 0x1F4E JUMP JUMPDEST JUMPDEST PUSH1 0x0 DUP5 ADD CALLDATALOAD PUSH8 0xFFFFFFFFFFFFFFFF DUP2 GT ISZERO PUSH2 0x2462 JUMPI PUSH2 0x2461 PUSH2 0x1F53 JUMP JUMPDEST JUMPDEST PUSH2 0x246E DUP7 DUP3 DUP8 ADD PUSH2 0x2206 JUMP JUMPDEST SWAP4 POP POP PUSH1 0x20 PUSH2 0x247F DUP7 DUP3 DUP8 ADD PUSH2 0x224B JUMP JUMPDEST SWAP3 POP POP PUSH1 0x40 DUP5 ADD CALLDATALOAD PUSH8 0xFFFFFFFFFFFFFFFF DUP2 GT ISZERO PUSH2 0x24A0 JUMPI PUSH2 0x249F PUSH2 0x1F53 JUMP JUMPDEST JUMPDEST PUSH2 0x24AC DUP7 DUP3 DUP8 ADD PUSH2 0x2206 JUMP JUMPDEST SWAP2 POP POP SWAP3 POP SWAP3 POP SWAP3 JUMP JUMPDEST PUSH1 0x0 PUSH1 0xFF DUP3 AND SWAP1 POP SWAP2 SWAP1 POP JUMP JUMPDEST PUSH2 0x24CC DUP2 PUSH2 0x24B6 JUMP JUMPDEST DUP2 EQ PUSH2 0x24D7 JUMPI PUSH1 0x0 DUP1 REVERT JUMPDEST POP JUMP JUMPDEST PUSH1 0x0 DUP2 CALLDATALOAD SWAP1 POP PUSH2 0x24E9 DUP2 PUSH2 0x24C3 JUMP JUMPDEST SWAP3 SWAP2 POP POP JUMP JUMPDEST PUSH1 0x0 PUSH8 0xFFFFFFFFFFFFFFFF DUP3 AND SWAP1 POP SWAP2 SWAP1 POP JUMP JUMPDEST PUSH2 0x250C DUP2 PUSH2 0x24EF JUMP JUMPDEST DUP2 EQ PUSH2 0x2517 JUMPI PUSH1 0x0 DUP1 REVERT JUMPDEST POP JUMP JUMPDEST PUSH1 0x0 DUP2 CALLDATALOAD SWAP1 POP PUSH2 0x2529 DUP2 PUSH2 0x2503 JUMP JUMPDEST SWAP3 SWAP2 POP POP JUMP JUMPDEST PUSH1 0x0 PUSH8 0xFFFFFFFFFFFFFFFF DUP3 GT ISZERO PUSH2 0x254A JUMPI PUSH2 0x2549 PUSH2 0x1FA9 JUMP JUMPDEST JUMPDEST PUSH1 0x20 DUP3 MUL SWAP1 POP PUSH1 0x20 DUP2 ADD SWAP1 POP SWAP2 SWAP1 POP JUMP JUMPDEST PUSH1 0x0 DUP1 REVERT JUMPDEST PUSH1 0x0 PUSH2 0x2573 PUSH2 0x256E DUP5 PUSH2 0x252F JUMP JUMPDEST PUSH2 0x2009 JUMP JUMPDEST SWAP1 POP DUP1 DUP4 DUP3 MSTORE PUSH1 0x20 DUP3 ADD SWAP1 POP PUSH1 0x20 DUP5 MUL DUP4 ADD DUP6 DUP2 GT ISZERO PUSH2 0x2596 JUMPI PUSH2 0x2595 PUSH2 0x255B JUMP JUMPDEST JUMPDEST DUP4 JUMPDEST DUP2 DUP2 LT ISZERO PUSH2 0x25DD JUMPI DUP1 CALLDATALOAD PUSH8 0xFFFFFFFFFFFFFFFF DUP2 GT ISZERO PUSH2 0x25BB JUMPI PUSH2 0x25BA PUSH2 0x1F8E JUMP JUMPDEST JUMPDEST DUP1 DUP7 ADD PUSH2 0x25C8 DUP10 DUP3 PUSH2 0x2206 JUMP JUMPDEST DUP6 MSTORE PUSH1 0x20 DUP6 ADD SWAP5 POP POP POP PUSH1 0x20 DUP2 ADD SWAP1 POP PUSH2 0x2598 JUMP JUMPDEST POP POP POP SWAP4 SWAP3 POP POP POP JUMP JUMPDEST PUSH1 0x0 DUP3 PUSH1 0x1F DUP4 ADD SLT PUSH2 0x25FC JUMPI PUSH2 0x25FB PUSH2 0x1F8E JUMP JUMPDEST JUMPDEST DUP2 CALLDATALOAD PUSH2 0x260C DUP5 DUP3 PUSH1 0x20 DUP7 ADD PUSH2 0x2560 JUMP JUMPDEST SWAP2 POP POP SWAP3 SWAP2 POP POP JUMP JUMPDEST PUSH1 0x0 PUSH8 0xFFFFFFFFFFFFFFFF DUP3 GT ISZERO PUSH2 0x2630 JUMPI PUSH2 0x262F PUSH2 0x1FA9 JUMP JUMPDEST JUMPDEST PUSH1 0x20 DUP3 MUL SWAP1 POP PUSH1 0x20 DUP2 ADD SWAP1 POP SWAP2 SWAP1 POP JUMP JUMPDEST PUSH1 0x0 PUSH2 0x2654 PUSH2 0x264F DUP5 PUSH2 0x2615 JUMP JUMPDEST PUSH2 0x2009 JUMP JUMPDEST SWAP1 POP DUP1 DUP4 DUP3 MSTORE PUSH1 0x20 DUP3 ADD SWAP1 POP PUSH1 0x20 DUP5 MUL DUP4 ADD DUP6 DUP2 GT ISZERO PUSH2 0x2677 JUMPI PUSH2 0x2676 PUSH2 0x255B JUMP JUMPDEST JUMPDEST DUP4 JUMPDEST DUP2 DUP2 LT ISZERO PUSH2 0x26BE JUMPI DUP1 CALLDATALOAD PUSH8 0xFFFFFFFFFFFFFFFF DUP2 GT ISZERO PUSH2 0x269C JUMPI PUSH2 0x269B PUSH2 0x1F8E JUMP JUMPDEST JUMPDEST DUP1 DUP7 ADD PUSH2 0x26A9 DUP10 DUP3 PUSH2 0x20A6 JUMP JUMPDEST DUP6 MSTORE PUSH1 0x20 DUP6 ADD SWAP5 POP POP POP PUSH1 0x20 DUP2 ADD SWAP1 POP PUSH2 0x2679 JUMP JUMPDEST POP POP POP SWAP4 SWAP3 POP POP POP JUMP JUMPDEST PUSH1 0x0 DUP3 PUSH1 0x1F DUP4 ADD SLT PUSH2 0x26DD JUMPI PUSH2 0x26DC PUSH2 0x1F8E JUMP JUMPDEST JUMPDEST DUP2 CALLDATALOAD PUSH2 0x26ED DUP5 DUP3 PUSH1 0x20 DUP7 ADD PUSH2 0x2641 JUMP JUMPDEST SWAP2 POP POP SWAP3 SWAP2 POP POP JUMP JUMPDEST PUSH1 0x0 PUSH4 0xFFFFFFFF DUP3 AND SWAP1 POP SWAP2 SWAP1 POP JUMP JUMPDEST PUSH2 0x270F DUP2 PUSH2 0x26F6 JUMP JUMPDEST DUP2 EQ PUSH2 0x271A JUMPI PUSH1 0x0 DUP1 REVERT JUMPDEST POP JUMP JUMPDEST PUSH1 0x0 DUP2 CALLDATALOAD SWAP1 POP PUSH2 0x272C DUP2 PUSH2 0x2706 JUMP JUMPDEST SWAP3 SWAP2 POP POP JUMP JUMPDEST PUSH1 0x0 DUP1 PUSH1 0x0 DUP1 PUSH1 0x0 DUP1 PUSH1 0x0 DUP1 PUSH1 0x0 PUSH2 0x120 DUP11 DUP13 SUB SLT ISZERO PUSH2 0x2755 JUMPI PUSH2 0x2754 PUSH2 0x1F4E JUMP JUMPDEST JUMPDEST PUSH1 0x0 DUP11 ADD CALLDATALOAD PUSH8 0xFFFFFFFFFFFFFFFF DUP2 GT ISZERO PUSH2 0x2773 JUMPI PUSH2 0x2772 PUSH2 0x1F53 JUMP JUMPDEST JUMPDEST PUSH2 0x277F DUP13 DUP3 DUP14 ADD PUSH2 0x2206 JUMP JUMPDEST SWAP10 POP POP PUSH1 0x20 DUP11 ADD CALLDATALOAD PUSH8 0xFFFFFFFFFFFFFFFF DUP2 GT ISZERO PUSH2 0x27A0 JUMPI PUSH2 0x279F PUSH2 0x1F53 JUMP JUMPDEST JUMPDEST PUSH2 0x27AC DUP13 DUP3 DUP14 ADD PUSH2 0x20A6 JUMP JUMPDEST SWAP9 POP POP PUSH1 0x40 PUSH2 0x27BD DUP13 DUP3 DUP14 ADD PUSH2 0x24DA JUMP JUMPDEST SWAP8 POP POP PUSH1 0x60 PUSH2 0x27CE DUP13 DUP3 DUP14 ADD PUSH2 0x251A JUMP JUMPDEST SWAP7 POP POP PUSH1 0x80 DUP11 ADD CALLDATALOAD PUSH8 0xFFFFFFFFFFFFFFFF DUP2 GT ISZERO PUSH2 0x27EF JUMPI PUSH2 0x27EE PUSH2 0x1F53 JUMP JUMPDEST JUMPDEST PUSH2 0x27FB DUP13 DUP3 DUP14 ADD PUSH2 0x25E7 JUMP JUMPDEST SWAP6 POP POP PUSH1 0xA0 DUP11 ADD CALLDATALOAD PUSH8 0xFFFFFFFFFFFFFFFF DUP2 GT ISZERO PUSH2 0x281C JUMPI PUSH2 0x281B PUSH2 0x1F53 JUMP JUMPDEST JUMPDEST PUSH2 0x2828 DUP13 DUP3 DUP14 ADD PUSH2 0x26C8 JUMP JUMPDEST SWAP5 POP POP PUSH1 0xC0 PUSH2 0x2839 DUP13 DUP3 DUP14 ADD PUSH2 0x251A JUMP JUMPDEST SWAP4 POP POP PUSH1 0xE0 PUSH2 0x284A DUP13 DUP3 DUP14 ADD PUSH2 0x271D JUMP JUMPDEST SWAP3 POP POP PUSH2 0x100 PUSH2 0x285C DUP13 DUP3 DUP14 ADD PUSH2 0x1F79 JUMP JUMPDEST SWAP2 POP POP SWAP3 SWAP6 SWAP9 POP SWAP3 SWAP6 SWAP9 POP SWAP3 SWAP6 SWAP9 JUMP JUMPDEST PUSH1 0x0 PUSH20 0xFFFFFFFFFFFFFFFFFFFFFFFFFFFFFFFFFFFFFFFF DUP3 AND SWAP1 POP SWAP2 SWAP1 POP JUMP JUMPDEST PUSH1 0x0 PUSH2 0x2897 DUP3 PUSH2 0x286C JUMP JUMPDEST SWAP1 POP SWAP2 SWAP1 POP JUMP JUMPDEST PUSH2 0x28A7 DUP2 PUSH2 0x288C JUMP JUMPDEST DUP3 MSTORE POP POP JUMP JUMPDEST PUSH1 0x0 PUSH1 0x20 DUP3 ADD SWAP1 POP PUSH2 0x28C2 PUSH1 0x0 DUP4 ADD DUP5 PUSH2 0x289E JUMP JUMPDEST SWAP3 SWAP2 POP POP JUMP JUMPDEST PUSH1 0x0 DUP2 MLOAD SWAP1 POP SWAP2 SWAP1 POP JUMP JUMPDEST PUSH1 0x0 DUP3 DUP3 MSTORE PUSH1 0x20 DUP3 ADD SWAP1 POP SWAP3 SWAP2 POP POP JUMP JUMPDEST PUSH1 0x0 DUP2 SWAP1 POP PUSH1 0x20 DUP3 ADD SWAP1 POP SWAP2 SWAP1 POP JUMP JUMPDEST PUSH2 0x28FD DUP2 PUSH2 0x288C JUMP JUMPDEST DUP3 MSTORE POP POP JUMP JUMPDEST PUSH1 0x0 PUSH2 0x290F DUP4 DUP4 PUSH2 0x28F4 JUMP JUMPDEST PUSH1 0x20 DUP4 ADD SWAP1 POP SWAP3 SWAP2 POP POP JUMP JUMPDEST PUSH1 0x0 PUSH1 0x20 DUP3 ADD SWAP1 POP SWAP2 SWAP1 POP JUMP JUMPDEST PUSH1 0x0 PUSH2 0x2933 DUP3 PUSH2 0x28C8 JUMP JUMPDEST PUSH2 0x293D DUP2 DUP6 PUSH2 0x28D3 JUMP JUMPDEST SWAP4 POP PUSH2 0x2948 DUP4 PUSH2 0x28E4 JUMP JUMPDEST DUP1 PUSH1 0x0 JUMPDEST DUP4 DUP2 LT ISZERO PUSH2 0x2979 JUMPI DUP2 MLOAD PUSH2 0x2960 DUP9 DUP3 PUSH2 0x2903 JUMP JUMPDEST SWAP8 POP PUSH2 0x296B DUP4 PUSH2 0x291B JUMP JUMPDEST SWAP3 POP POP PUSH1 0x1 DUP2 ADD SWAP1 POP PUSH2 0x294C JUMP JUMPDEST POP DUP6 SWAP4 POP POP POP POP SWAP3 SWAP2 POP POP JUMP JUMPDEST PUSH1 0x0 PUSH1 0x20 DUP3 ADD SWAP1 POP DUP2 DUP2 SUB PUSH1 0x0 DUP4 ADD MSTORE PUSH2 0x29A0 DUP2 DUP5 PUSH2 0x2928 JUMP JUMPDEST SWAP1 POP SWAP3 SWAP2 POP POP JUMP JUMPDEST PUSH2 0x29B1 DUP2 PUSH2 0x288C JUMP JUMPDEST DUP2 EQ PUSH2 0x29BC JUMPI PUSH1 0x0 DUP1 REVERT JUMPDEST POP JUMP JUMPDEST PUSH1 0x0 DUP2 CALLDATALOAD SWAP1 POP PUSH2 0x29CE DUP2 PUSH2 0x29A8 JUMP JUMPDEST SWAP3 SWAP2 POP POP JUMP JUMPDEST PUSH1 0x0 PUSH1 0x20 DUP3 DUP5 SUB SLT ISZERO PUSH2 0x29EA JUMPI PUSH2 0x29E9 PUSH2 0x1F4E JUMP JUMPDEST JUMPDEST PUSH1 0x0 PUSH2 0x29F8 DUP5 DUP3 DUP6 ADD PUSH2 0x29BF JUMP JUMPDEST SWAP2 POP POP SWAP3 SWAP2 POP POP JUMP JUMPDEST PUSH1 0x0 PUSH1 0x40 DUP3 ADD SWAP1 POP PUSH2 0x2A16 PUSH1 0x0 DUP4 ADD DUP6 PUSH2 0x2169 JUMP JUMPDEST PUSH2 0x2A23 PUSH1 0x20 DUP4 ADD DUP5 PUSH2 0x22BC JUMP JUMPDEST SWAP4 SWAP3 POP POP POP JUMP JUMPDEST PUSH32 0x4E487B7100000000000000000000000000000000000000000000000000000000 PUSH1 0x0 MSTORE PUSH1 0x22 PUSH1 0x4 MSTORE PUSH1 0x24 PUSH1 0x0 REVERT JUMPDEST PUSH1 0x0 PUSH1 0x2 DUP3 DIV SWAP1 POP PUSH1 0x1 DUP3 AND DUP1 PUSH2 0x2A71 JUMPI PUSH1 0x7F DUP3 AND SWAP2 POP JUMPDEST PUSH1 0x20 DUP3 LT DUP2 SUB PUSH2 0x2A84 JUMPI PUSH2 0x2A83 PUSH2 0x2A2A JUMP JUMPDEST JUMPDEST POP SWAP2 SWAP1 POP JUMP JUMPDEST PUSH32 0x4E487B7100000000000000000000000000000000000000000000000000000000 PUSH1 0x0 MSTORE PUSH1 0x32 PUSH1 0x4 MSTORE PUSH1 0x24 PUSH1 0x0 REVERT JUMPDEST PUSH1 0x0 DUP2 SWAP1 POP DUP2 PUSH1 0x0 MSTORE PUSH1 0x20 PUSH1 0x0 KECCAK256 SWAP1 POP SWAP2 SWAP1 POP JUMP JUMPDEST PUSH1 0x0 PUSH1 0x20 PUSH1 0x1F DUP4 ADD DIV SWAP1 POP SWAP2 SWAP1 POP JUMP JUMPDEST PUSH1 0x0 DUP3 DUP3 SHL SWAP1 POP SWAP3 SWAP2 POP POP JUMP JUMPDEST PUSH1 0x0 PUSH1 0x8 DUP4 MUL PUSH2 0x2B1B PUSH32 0xFFFFFFFFFFFFFFFFFFFFFFFFFFFFFFFFFFFFFFFFFFFFFFFFFFFFFFFFFFFFFFFF DUP3 PUSH2 0x2ADE JUMP JUMPDEST PUSH2 0x2B25 DUP7 DUP4 PUSH2 0x2ADE JUMP JUMPDEST SWAP6 POP DUP1 NOT DUP5 AND SWAP4 POP DUP1 DUP7 AND DUP5 OR SWAP3 POP POP POP SWAP4 SWAP3 POP POP POP JUMP JUMPDEST PUSH1 0x0 DUP2 SWAP1 POP SWAP2 SWAP1 POP JUMP JUMPDEST PUSH1 0x0 PUSH2 0x2B62 PUSH2 0x2B5D PUSH2 0x2B58 DUP5 PUSH2 0x215F JUMP JUMPDEST PUSH2 0x2B3D JUMP JUMPDEST PUSH2 0x215F JUMP JUMPDEST SWAP1 POP SWAP2 SWAP1 POP JUMP JUMPDEST PUSH1 0x0 DUP2 SWAP1 POP SWAP2 SWAP1 POP JUMP JUMPDEST PUSH2 0x2B7C DUP4 PUSH2 0x2B47 JUMP JUMPDEST PUSH2 0x2B90 PUSH2 0x2B88 DUP3 PUSH2 0x2B69 JUMP JUMPDEST DUP5 DUP5 SLOAD PUSH2 0x2AEB JUMP JUMPDEST DUP3 SSTORE POP POP POP POP JUMP JUMPDEST PUSH1 0x0 SWAP1 JUMP JUMPDEST PUSH2 0x2BA5 PUSH2 0x2B98 JUMP JUMPDEST PUSH2 0x2BB0 DUP2 DUP5 DUP5 PUSH2 0x2B73 JUMP JUMPDEST POP POP POP JUMP JUMPDEST JUMPDEST DUP2 DUP2 LT ISZERO PUSH2 0x2BD4 JUMPI PUSH2 0x2BC9 PUSH1 0x0 DUP3 PUSH2 0x2B9D JUMP JUMPDEST PUSH1 0x1 DUP2 ADD SWAP1 POP PUSH2 0x2BB6 JUMP JUMPDEST POP POP JUMP JUMPDEST PUSH1 0x1F DUP3 GT ISZERO PUSH2 0x2C19 JUMPI PUSH2 0x2BEA DUP2 PUSH2 0x2AB9 JUMP JUMPDEST PUSH2 0x2BF3 DUP5 PUSH2 0x2ACE JUMP JUMPDEST DUP2 ADD PUSH1 0x20 DUP6 LT ISZERO PUSH2 0x2C02 JUMPI DUP2 SWAP1 POP JUMPDEST PUSH2 0x2C16 PUSH2 0x2C0E DUP6 PUSH2 0x2ACE JUMP JUMPDEST DUP4 ADD DUP3 PUSH2 0x2BB5 JUMP JUMPDEST POP POP JUMPDEST POP POP POP JUMP JUMPDEST PUSH1 0x0 DUP3 DUP3 SHR SWAP1 POP SWAP3 SWAP2 POP POP JUMP JUMPDEST PUSH1 0x0 PUSH2 0x2C3C PUSH1 0x0 NOT DUP5 PUSH1 0x8 MUL PUSH2 0x2C1E JUMP JUMPDEST NOT DUP1 DUP4 AND SWAP2 POP POP SWAP3 SWAP2 POP POP JUMP JUMPDEST PUSH1 0x0 PUSH2 0x2C55 DUP4 DUP4 PUSH2 0x2C2B JUMP JUMPDEST SWAP2 POP DUP3 PUSH1 0x2 MUL DUP3 OR SWAP1 POP SWAP3 SWAP2 POP POP JUMP JUMPDEST PUSH2 0x2C6E DUP3 PUSH2 0x23B4 JUMP JUMPDEST PUSH8 0xFFFFFFFFFFFFFFFF DUP2 GT ISZERO PUSH2 0x2C87 JUMPI PUSH2 0x2C86 PUSH2 0x1FA9 JUMP JUMPDEST JUMPDEST PUSH2 0x2C91 DUP3 SLOAD PUSH2 0x2A59 JUMP JUMPDEST PUSH2 0x2C9C DUP3 DUP3 DUP6 PUSH2 0x2BD8 JUMP JUMPDEST PUSH1 0x0 PUSH1 0x20 SWAP1 POP PUSH1 0x1F DUP4 GT PUSH1 0x1 DUP2 EQ PUSH2 0x2CCF JUMPI PUSH1 0x0 DUP5 ISZERO PUSH2 0x2CBD JUMPI DUP3 DUP8 ADD MLOAD SWAP1 POP JUMPDEST PUSH2 0x2CC7 DUP6 DUP3 PUSH2 0x2C49 JUMP JUMPDEST DUP7 SSTORE POP PUSH2 0x2D2F JUMP JUMPDEST PUSH1 0x1F NOT DUP5 AND PUSH2 0x2CDD DUP7 PUSH2 0x2AB9 JUMP JUMPDEST PUSH1 0x0 JUMPDEST DUP3 DUP2 LT ISZERO PUSH2 0x2D05 JUMPI DUP5 DUP10 ADD MLOAD DUP3 SSTORE PUSH1 0x1 DUP3 ADD SWAP2 POP PUSH1 0x20 DUP6 ADD SWAP5 POP PUSH1 0x20 DUP2 ADD SWAP1 POP PUSH2 0x2CE0 JUMP JUMPDEST DUP7 DUP4 LT ISZERO PUSH2 0x2D22 JUMPI DUP5 DUP10 ADD MLOAD PUSH2 0x2D1E PUSH1 0x1F DUP10 AND DUP3 PUSH2 0x2C2B JUMP JUMPDEST DUP4 SSTORE POP JUMPDEST PUSH1 0x1 PUSH1 0x2 DUP9 MUL ADD DUP9 SSTORE POP POP POP JUMPDEST POP POP POP POP POP POP JUMP JUMPDEST PUSH32 0x4E487B7100000000000000000000000000000000000000000000000000000000 PUSH1 0x0 MSTORE PUSH1 0x11 PUSH1 0x4 MSTORE PUSH1 0x24 PUSH1 0x0 REVERT JUMPDEST PUSH1 0x0 PUSH2 0x2D71 DUP3 PUSH2 0x215F JUMP JUMPDEST SWAP2 POP PUSH32 0xFFFFFFFFFFFFFFFFFFFFFFFFFFFFFFFFFFFFFFFFFFFFFFFFFFFFFFFFFFFFFFFF DUP3 SUB PUSH2 0x2DA3 JUMPI PUSH2 0x2DA2 PUSH2 0x2D37 JUMP JUMPDEST JUMPDEST PUSH1 0x1 DUP3 ADD SWAP1 POP SWAP2 SWAP1 POP JUMP JUMPDEST PUSH1 0x0 PUSH1 0xA0 DUP3 ADD SWAP1 POP PUSH2 0x2DC3 PUSH1 0x0 DUP4 ADD DUP9 PUSH2 0x289E JUMP JUMPDEST PUSH2 0x2DD0 PUSH1 0x20 DUP4 ADD DUP8 PUSH2 0x22BC JUMP JUMPDEST PUSH2 0x2DDD PUSH1 0x40 DUP4 ADD DUP7 PUSH2 0x2169 JUMP JUMPDEST PUSH2 0x2DEA PUSH1 0x60 DUP4 ADD DUP6 PUSH2 0x2169 JUMP JUMPDEST DUP2 DUP2 SUB PUSH1 0x80 DUP4 ADD MSTORE PUSH2 0x2DFC DUP2 DUP5 PUSH2 0x23D0 JUMP JUMPDEST SWAP1 POP SWAP7 SWAP6 POP POP POP POP POP POP JUMP JUMPDEST PUSH32 0x4D7573742062652070726F706F736564206F776E657200000000000000000000 PUSH1 0x0 DUP3 ADD MSTORE POP JUMP JUMPDEST PUSH1 0x0 PUSH2 0x2E3E PUSH1 0x16 DUP4 PUSH2 0x23BF JUMP JUMPDEST SWAP2 POP PUSH2 0x2E49 DUP3 PUSH2 0x2E08 JUMP JUMPDEST PUSH1 0x20 DUP3 ADD SWAP1 POP SWAP2 SWAP1 POP JUMP JUMPDEST PUSH1 0x0 PUSH1 0x20 DUP3 ADD SWAP1 POP DUP2 DUP2 SUB PUSH1 0x0 DUP4 ADD MSTORE PUSH2 0x2E6D DUP2 PUSH2 0x2E31 JUMP JUMPDEST SWAP1 POP SWAP2 SWAP1 POP JUMP JUMPDEST PUSH32 0x596F7520646F6E27742073656E6420656E6F7567682065746820746F20627579 PUSH1 0x0 DUP3 ADD MSTORE PUSH32 0x2074686520646174612100000000000000000000000000000000000000000000 PUSH1 0x20 DUP3 ADD MSTORE POP JUMP JUMPDEST PUSH1 0x0 PUSH2 0x2ED0 PUSH1 0x2A DUP4 PUSH2 0x23BF JUMP JUMPDEST SWAP2 POP PUSH2 0x2EDB DUP3 PUSH2 0x2E74 JUMP JUMPDEST PUSH1 0x40 DUP3 ADD SWAP1 POP SWAP2 SWAP1 POP JUMP JUMPDEST PUSH1 0x0 PUSH1 0x20 DUP3 ADD SWAP1 POP DUP2 DUP2 SUB PUSH1 0x0 DUP4 ADD MSTORE PUSH2 0x2EFF DUP2 PUSH2 0x2EC3 JUMP JUMPDEST SWAP1 POP SWAP2 SWAP1 POP JUMP JUMPDEST PUSH1 0x0 DUP2 SWAP1 POP SWAP3 SWAP2 POP POP JUMP JUMPDEST POP JUMP JUMPDEST PUSH1 0x0 PUSH2 0x2F21 PUSH1 0x0 DUP4 PUSH2 0x2F06 JUMP JUMPDEST SWAP2 POP PUSH2 0x2F2C DUP3 PUSH2 0x2F11 JUMP JUMPDEST PUSH1 0x0 DUP3 ADD SWAP1 POP SWAP2 SWAP1 POP JUMP JUMPDEST PUSH1 0x0 PUSH2 0x2F42 DUP3 PUSH2 0x2F14 JUMP JUMPDEST SWAP2 POP DUP2 SWAP1 POP SWAP2 SWAP1 POP JUMP JUMPDEST PUSH32 0x5472616E73616374696F6E28627579206461746129204661696C656421000000 PUSH1 0x0 DUP3 ADD MSTORE POP JUMP JUMPDEST PUSH1 0x0 PUSH2 0x2F82 PUSH1 0x1D DUP4 PUSH2 0x23BF JUMP JUMPDEST SWAP2 POP PUSH2 0x2F8D DUP3 PUSH2 0x2F4C JUMP JUMPDEST PUSH1 0x20 DUP3 ADD SWAP1 POP SWAP2 SWAP1 POP JUMP JUMPDEST PUSH1 0x0 PUSH1 0x20 DUP3 ADD SWAP1 POP DUP2 DUP2 SUB PUSH1 0x0 DUP4 ADD MSTORE PUSH2 0x2FB1 DUP2 PUSH2 0x2F75 JUMP JUMPDEST SWAP1 POP SWAP2 SWAP1 POP JUMP JUMPDEST PUSH1 0x0 PUSH1 0x60 DUP3 ADD SWAP1 POP PUSH2 0x2FCD PUSH1 0x0 DUP4 ADD DUP7 PUSH2 0x289E JUMP JUMPDEST PUSH2 0x2FDA PUSH1 0x20 DUP4 ADD DUP6 PUSH2 0x2169 JUMP JUMPDEST PUSH2 0x2FE7 PUSH1 0x40 DUP4 ADD DUP5 PUSH2 0x2169 JUMP JUMPDEST SWAP5 SWAP4 POP POP POP POP JUMP JUMPDEST PUSH1 0x0 DUP2 SWAP1 POP DUP2 PUSH1 0x0 MSTORE PUSH1 0x20 PUSH1 0x0 KECCAK256 SWAP1 POP SWAP2 SWAP1 POP JUMP JUMPDEST PUSH1 0x1F DUP3 GT ISZERO PUSH2 0x3045 JUMPI PUSH2 0x3016 DUP2 PUSH2 0x2FEF JUMP JUMPDEST PUSH2 0x301F DUP5 PUSH2 0x2ACE JUMP JUMPDEST DUP2 ADD PUSH1 0x20 DUP6 LT ISZERO PUSH2 0x302E JUMPI DUP2 SWAP1 POP JUMPDEST PUSH2 0x3042 PUSH2 0x303A DUP6 PUSH2 0x2ACE JUMP JUMPDEST DUP4 ADD DUP3 PUSH2 0x2BB5 JUMP JUMPDEST POP POP JUMPDEST POP POP POP JUMP JUMPDEST PUSH2 0x3053 DUP3 PUSH2 0x22E6 JUMP JUMPDEST PUSH8 0xFFFFFFFFFFFFFFFF DUP2 GT ISZERO PUSH2 0x306C JUMPI PUSH2 0x306B PUSH2 0x1FA9 JUMP JUMPDEST JUMPDEST PUSH2 0x3076 DUP3 SLOAD PUSH2 0x2A59 JUMP JUMPDEST PUSH2 0x3081 DUP3 DUP3 DUP6 PUSH2 0x3004 JUMP JUMPDEST PUSH1 0x0 PUSH1 0x20 SWAP1 POP PUSH1 0x1F DUP4 GT PUSH1 0x1 DUP2 EQ PUSH2 0x30B4 JUMPI PUSH1 0x0 DUP5 ISZERO PUSH2 0x30A2 JUMPI DUP3 DUP8 ADD MLOAD SWAP1 POP JUMPDEST PUSH2 0x30AC DUP6 DUP3 PUSH2 0x2C49 JUMP JUMPDEST DUP7 SSTORE POP PUSH2 0x3114 JUMP JUMPDEST PUSH1 0x1F NOT DUP5 AND PUSH2 0x30C2 DUP7 PUSH2 0x2FEF JUMP JUMPDEST PUSH1 0x0 JUMPDEST DUP3 DUP2 LT ISZERO PUSH2 0x30EA JUMPI DUP5 DUP10 ADD MLOAD DUP3 SSTORE PUSH1 0x1 DUP3 ADD SWAP2 POP PUSH1 0x20 DUP6 ADD SWAP5 POP PUSH1 0x20 DUP2 ADD SWAP1 POP PUSH2 0x30C5 JUMP JUMPDEST DUP7 DUP4 LT ISZERO PUSH2 0x3107 JUMPI DUP5 DUP10 ADD MLOAD PUSH2 0x3103 PUSH1 0x1F DUP10 AND DUP3 PUSH2 0x2C2B JUMP JUMPDEST DUP4 SSTORE POP JUMPDEST PUSH1 0x1 PUSH1 0x2 DUP9 MUL ADD DUP9 SSTORE POP POP POP JUMPDEST POP POP POP POP POP POP JUMP JUMPDEST PUSH1 0x0 DUP2 SLOAD PUSH2 0x3129 DUP2 PUSH2 0x2A59 JUMP JUMPDEST PUSH2 0x3133 DUP2 DUP7 PUSH2 0x22F1 JUMP JUMPDEST SWAP5 POP PUSH1 0x1 DUP3 AND PUSH1 0x0 DUP2 EQ PUSH2 0x314E JUMPI PUSH1 0x1 DUP2 EQ PUSH2 0x3164 JUMPI PUSH2 0x3197 JUMP JUMPDEST PUSH1 0xFF NOT DUP4 AND DUP7 MSTORE DUP2 ISZERO ISZERO PUSH1 0x20 MUL DUP7 ADD SWAP4 POP PUSH2 0x3197 JUMP JUMPDEST PUSH2 0x316D DUP6 PUSH2 0x2FEF JUMP JUMPDEST PUSH1 0x0 JUMPDEST DUP4 DUP2 LT ISZERO PUSH2 0x318F JUMPI DUP2 SLOAD DUP2 DUP10 ADD MSTORE PUSH1 0x1 DUP3 ADD SWAP2 POP PUSH1 0x20 DUP2 ADD SWAP1 POP PUSH2 0x3170 JUMP JUMPDEST DUP1 DUP9 ADD SWAP6 POP POP POP JUMPDEST POP POP POP SWAP3 SWAP2 POP POP JUMP JUMPDEST PUSH1 0x0 PUSH1 0x40 DUP3 ADD SWAP1 POP DUP2 DUP2 SUB PUSH1 0x0 DUP4 ADD MSTORE PUSH2 0x31BA DUP2 DUP6 PUSH2 0x311C JUMP JUMPDEST SWAP1 POP DUP2 DUP2 SUB PUSH1 0x20 DUP4 ADD MSTORE PUSH2 0x31CE DUP2 DUP5 PUSH2 0x311C JUMP JUMPDEST SWAP1 POP SWAP4 SWAP3 POP POP POP JUMP JUMPDEST PUSH32 0x4F6E6C792063616C6C61626C65206279206F776E657200000000000000000000 PUSH1 0x0 DUP3 ADD MSTORE POP JUMP JUMPDEST PUSH1 0x0 PUSH2 0x320D PUSH1 0x16 DUP4 PUSH2 0x23BF JUMP JUMPDEST SWAP2 POP PUSH2 0x3218 DUP3 PUSH2 0x31D7 JUMP JUMPDEST PUSH1 0x20 DUP3 ADD SWAP1 POP SWAP2 SWAP1 POP JUMP JUMPDEST PUSH1 0x0 PUSH1 0x20 DUP3 ADD SWAP1 POP DUP2 DUP2 SUB PUSH1 0x0 DUP4 ADD MSTORE PUSH2 0x323C DUP2 PUSH2 0x3200 JUMP JUMPDEST SWAP1 POP SWAP2 SWAP1 POP JUMP JUMPDEST PUSH32 0x4E487B7100000000000000000000000000000000000000000000000000000000 PUSH1 0x0 MSTORE PUSH1 0x21 PUSH1 0x4 MSTORE PUSH1 0x24 PUSH1 0x0 REVERT JUMPDEST PUSH2 0x327B DUP2 PUSH2 0x24EF JUMP JUMPDEST DUP3 MSTORE POP POP JUMP JUMPDEST PUSH1 0x0 PUSH2 0xFFFF DUP3 AND SWAP1 POP SWAP2 SWAP1 POP JUMP JUMPDEST PUSH2 0x3298 DUP2 PUSH2 0x3281 JUMP JUMPDEST DUP3 MSTORE POP POP JUMP JUMPDEST PUSH2 0x32A7 DUP2 PUSH2 0x26F6 JUMP JUMPDEST DUP3 MSTORE POP POP JUMP JUMPDEST PUSH1 0x0 PUSH1 0xA0 DUP3 ADD SWAP1 POP PUSH2 0x32C2 PUSH1 0x0 DUP4 ADD DUP9 PUSH2 0x3272 JUMP JUMPDEST DUP2 DUP2 SUB PUSH1 0x20 DUP4 ADD MSTORE PUSH2 0x32D4 DUP2 DUP8 PUSH2 0x232C JUMP JUMPDEST SWAP1 POP PUSH2 0x32E3 PUSH1 0x40 DUP4 ADD DUP7 PUSH2 0x328F JUMP JUMPDEST PUSH2 0x32F0 PUSH1 0x60 DUP4 ADD DUP6 PUSH2 0x329E JUMP JUMPDEST PUSH2 0x32FD PUSH1 0x80 DUP4 ADD DUP5 PUSH2 0x22BC JUMP JUMPDEST SWAP7 SWAP6 POP POP POP POP POP POP JUMP JUMPDEST PUSH1 0x0 DUP2 MLOAD SWAP1 POP PUSH2 0x3316 DUP2 PUSH2 0x1F62 JUMP JUMPDEST SWAP3 SWAP2 POP POP JUMP JUMPDEST PUSH1 0x0 PUSH1 0x20 DUP3 DUP5 SUB SLT ISZERO PUSH2 0x3332 JUMPI PUSH2 0x3331 PUSH2 0x1F4E JUMP JUMPDEST JUMPDEST PUSH1 0x0 PUSH2 0x3340 DUP5 DUP3 DUP6 ADD PUSH2 0x3307 JUMP JUMPDEST SWAP2 POP POP SWAP3 SWAP2 POP POP JUMP JUMPDEST PUSH32 0x43616E6E6F74207472616E7366657220746F2073656C66000000000000000000 PUSH1 0x0 DUP3 ADD MSTORE POP JUMP JUMPDEST PUSH1 0x0 PUSH2 0x337F PUSH1 0x17 DUP4 PUSH2 0x23BF JUMP JUMPDEST SWAP2 POP PUSH2 0x338A DUP3 PUSH2 0x3349 JUMP JUMPDEST PUSH1 0x20 DUP3 ADD SWAP1 POP SWAP2 SWAP1 POP JUMP JUMPDEST PUSH1 0x0 PUSH1 0x20 DUP3 ADD SWAP1 POP DUP2 DUP2 SUB PUSH1 0x0 DUP4 ADD MSTORE PUSH2 0x33AE DUP2 PUSH2 0x3372 JUMP JUMPDEST SWAP1 POP SWAP2 SWAP1 POP JUMP JUMPDEST PUSH1 0x0 PUSH2 0x33C0 DUP3 PUSH2 0x215F JUMP JUMPDEST SWAP2 POP PUSH2 0x33CB DUP4 PUSH2 0x215F JUMP JUMPDEST SWAP3 POP DUP3 DUP3 ADD SWAP1 POP DUP1 DUP3 GT ISZERO PUSH2 0x33E3 JUMPI PUSH2 0x33E2 PUSH2 0x2D37 JUMP JUMPDEST JUMPDEST SWAP3 SWAP2 POP POP JUMP JUMPDEST PUSH1 0x0 PUSH2 0x33F4 DUP3 PUSH2 0x215F JUMP JUMPDEST SWAP2 POP PUSH2 0x33FF DUP4 PUSH2 0x215F JUMP JUMPDEST SWAP3 POP DUP3 DUP3 SUB SWAP1 POP DUP2 DUP2 GT ISZERO PUSH2 0x3417 JUMPI PUSH2 0x3416 PUSH2 0x2D37 JUMP JUMPDEST JUMPDEST SWAP3 SWAP2 POP POP JUMP JUMPDEST PUSH32 0x4E487B7100000000000000000000000000000000000000000000000000000000 PUSH1 0x0 MSTORE PUSH1 0x12 PUSH1 0x4 MSTORE PUSH1 0x24 PUSH1 0x0 REVERT JUMPDEST PUSH1 0x0 PUSH2 0x3457 DUP3 PUSH2 0x215F JUMP JUMPDEST SWAP2 POP PUSH2 0x3462 DUP4 PUSH2 0x215F JUMP JUMPDEST SWAP3 POP DUP3 PUSH2 0x3472 JUMPI PUSH2 0x3471 PUSH2 0x341D JUMP JUMPDEST JUMPDEST DUP3 DUP3 MOD SWAP1 POP SWAP3 SWAP2 POP POP JUMP JUMPDEST PUSH1 0x0 PUSH2 0x3488 DUP3 PUSH2 0x215F JUMP JUMPDEST SWAP2 POP PUSH2 0x3493 DUP4 PUSH2 0x215F JUMP JUMPDEST SWAP3 POP DUP3 DUP3 MUL PUSH2 0x34A1 DUP2 PUSH2 0x215F JUMP JUMPDEST SWAP2 POP DUP3 DUP3 DIV DUP5 EQ DUP4 ISZERO OR PUSH2 0x34B8 JUMPI PUSH2 0x34B7 PUSH2 0x2D37 JUMP JUMPDEST JUMPDEST POP SWAP3 SWAP2 POP POP JUMP JUMPDEST PUSH1 0x0 DUP2 PUSH1 0x1 SHR SWAP1 POP SWAP2 SWAP1 POP JUMP JUMPDEST PUSH1 0x0 DUP1 DUP3 SWAP2 POP DUP4 SWAP1 POP JUMPDEST PUSH1 0x1 DUP6 GT ISZERO PUSH2 0x3516 JUMPI DUP1 DUP7 DIV DUP2 GT ISZERO PUSH2 0x34F2 JUMPI PUSH2 0x34F1 PUSH2 0x2D37 JUMP JUMPDEST JUMPDEST PUSH1 0x1 DUP6 AND ISZERO PUSH2 0x3501 JUMPI DUP1 DUP3 MUL SWAP2 POP JUMPDEST DUP1 DUP2 MUL SWAP1 POP PUSH2 0x350F DUP6 PUSH2 0x34BF JUMP JUMPDEST SWAP5 POP PUSH2 0x34D6 JUMP JUMPDEST SWAP5 POP SWAP5 SWAP3 POP POP POP JUMP JUMPDEST PUSH1 0x0 DUP3 PUSH2 0x352F JUMPI PUSH1 0x1 SWAP1 POP PUSH2 0x35EB JUMP JUMPDEST DUP2 PUSH2 0x353D JUMPI PUSH1 0x0 SWAP1 POP PUSH2 0x35EB JUMP JUMPDEST DUP2 PUSH1 0x1 DUP2 EQ PUSH2 0x3553 JUMPI PUSH1 0x2 DUP2 EQ PUSH2 0x355D JUMPI PUSH2 0x358C JUMP JUMPDEST PUSH1 0x1 SWAP2 POP POP PUSH2 0x35EB JUMP JUMPDEST PUSH1 0xFF DUP5 GT ISZERO PUSH2 0x356F JUMPI PUSH2 0x356E PUSH2 0x2D37 JUMP JUMPDEST JUMPDEST DUP4 PUSH1 0x2 EXP SWAP2 POP DUP5 DUP3 GT ISZERO PUSH2 0x3586 JUMPI PUSH2 0x3585 PUSH2 0x2D37 JUMP JUMPDEST JUMPDEST POP PUSH2 0x35EB JUMP JUMPDEST POP PUSH1 0x20 DUP4 LT PUSH2 0x133 DUP4 LT AND PUSH1 0x4E DUP5 LT PUSH1 0xB DUP5 LT AND OR ISZERO PUSH2 0x35C1 JUMPI DUP3 DUP3 EXP SWAP1 POP DUP4 DUP2 GT ISZERO PUSH2 0x35BC JUMPI PUSH2 0x35BB PUSH2 0x2D37 JUMP JUMPDEST JUMPDEST PUSH2 0x35EB JUMP JUMPDEST PUSH2 0x35CE DUP5 DUP5 DUP5 PUSH1 0x1 PUSH2 0x34CC JUMP JUMPDEST SWAP3 POP SWAP1 POP DUP2 DUP5 DIV DUP2 GT ISZERO PUSH2 0x35E5 JUMPI PUSH2 0x35E4 PUSH2 0x2D37 JUMP JUMPDEST JUMPDEST DUP2 DUP2 MUL SWAP1 POP JUMPDEST SWAP4 SWAP3 POP POP POP JUMP JUMPDEST PUSH1 0x0 PUSH2 0x35FD DUP3 PUSH2 0x215F JUMP JUMPDEST SWAP2 POP PUSH2 0x3608 DUP4 PUSH2 0x215F JUMP JUMPDEST SWAP3 POP PUSH2 0x3635 PUSH32 0xFFFFFFFFFFFFFFFFFFFFFFFFFFFFFFFFFFFFFFFFFFFFFFFFFFFFFFFFFFFFFFFF DUP5 DUP5 PUSH2 0x351F JUMP JUMPDEST SWAP1 POP SWAP3 SWAP2 POP POP JUMP INVALID LOG2 PUSH5 0x6970667358 0x22 SLT KECCAK256 0xD5 0xD2 CALLVALUE 0x2C 0xBC 0x27 CHAINID PREVRANDAO 0x4C 0x2D COINBASE SLOAD 0xCA COINBASE PUSH23 0x51DFFA54CBD8A0433F88C0661C5A03E88564736F6C6343 STOP ADDMOD EQ STOP CALLER "},"gasEstimates":{"creation":{"codeDepositCost":"2787800","executionCost":"infinite","totalCost":"infinite"},"external":{"CreateData(string,uint256,string)":"infinite","CreateUser(uint256)":"infinite","GetDataDescribe(uint256)":"infinite","GetDataHash(string,uint256)":"infinite","GetDataLength()":"2491","GetDataPrice(uint256)":"infinite","GetDataUser(uint256)":"infinite","acceptOwnership()":"54585","handleOracleFulfillment(bytes32,bytes,bytes)":"infinite","owner()":"2589","s_lastError()":"infinite","s_lastRequestId()":"2518","s_lastResponse()":"infinite","sendRequest(string,bytes,uint8,uint64,string[],bytes[],uint64,uint32,bytes32)":"infinite","transferOwnership(address)":"30742"},"internal":{"fulfillRequest(bytes32,bytes memory,bytes memory)":"infinite"}},"methodIdentifiers":{"CreateData(string,uint256,string)":"491d98f4","CreateUser(uint256)":"e9c8c97d","GetDataDescribe(uint256)":"468926bf","GetDataHash(string,uint256)":"227fd8e6","GetDataLength()":"0e1d1957","GetDataPrice(uint256)":"edea7dfd","GetDataUser(uint256)":"c6922b54","acceptOwnership()":"79ba5097","handleOracleFulfillment(bytes32,bytes,bytes)":"0ca76175","owner()":"8da5cb5b","s_lastError()":"4b0795a8","s_lastRequestId()":"b1e21749","s_lastResponse()":"3944ea3a","sendRequest(string,bytes,uint8,uint64,string[],bytes[],uint64,uint32,bytes32)":"52a81eeb","transferOwnership(address)":"f2fde38b"}},"storageLayout":{"storage":[{"astId":991,"contract":"contracts/Verifydata.sol:VerifyData","label":"s_owner","offset":0,"slot":"0","type":"t_address"},{"astId":993,"contract":"contracts/Verifydata.sol:VerifyData","label":"s_pendingOwner","offset":0,"slot":"1","type":"t_address"},{"astId":2510,"contract":"contracts/Verifydata.sol:VerifyData","label":"dataList","offset":0,"slot":"2","type":"t_array(t_struct(Data)2468_storage)dyn_storage"},{"astId":2512,"contract":"contracts/Verifydata.sol:VerifyData","label":"data_id","offset":0,"slot":"3","type":"t_uint256"},{"astId":2518,"contract":"contracts/Verifydata.sol:VerifyData","label":"s_lastRequestId","offset":0,"slot":"4","type":"t_bytes32"},{"astId":2520,"contract":"contracts/Verifydata.sol:VerifyData","label":"s_lastResponse","offset":0,"slot":"5","type":"t_bytes_storage"},{"astId":2522,"contract":"contracts/Verifydata.sol:VerifyData","label":"s_lastError","offset":0,"slot":"6","type":"t_bytes_storage"}],"types":{"t_address":{"encoding":"inplace","label":"address","numberOfBytes":"20"},"t_array(t_address)dyn_storage":{"base":"t_address","encoding":"dynamic_array","label":"address[]","numberOfBytes":"32"},"t_array(t_struct(Data)2468_storage)dyn_storage":{"base":"t_struct(Data)2468_storage","encoding":"dynamic_array","label":"struct VerifyData.Data[]","numberOfBytes":"32"},"t_bytes32":{"encoding":"inplace","label":"bytes32","numberOfBytes":"32"},"t_bytes_storage":{"encoding":"bytes","label":"bytes","numberOfBytes":"32"},"t_string_storage":{"encoding":"bytes","label":"string","numberOfBytes":"32"},"t_struct(Data)2468_storage":{"encoding":"inplace","label":"struct VerifyData.Data","members":[{"astId":2456,"contract":"contracts/Verifydata.sol:VerifyData","label":"Creater","offset":0,"slot":"0","type":"t_address"},{"astId":2459,"contract":"contracts/Verifydata.sol:VerifyData","label":"User","offset":0,"slot":"1","type":"t_array(t_address)dyn_storage"},{"astId":2461,"contract":"contracts/Verifydata.sol:VerifyData","label":"dataHash","offset":0,"slot":"2","type":"t_bytes32"},{"astId":2463,"contract":"contracts/Verifydata.sol:VerifyData","label":"dataPrice","offset":0,"slot":"3","type":"t_uint256"},{"astId":2465,"contract":"contracts/Verifydata.sol:VerifyData","label":"dataId","offset":0,"slot":"4","type":"t_uint256"},{"astId":2467,"contract":"contracts/Verifydata.sol:VerifyData","label":"dataDescribe","offset":0,"slot":"5","type":"t_string_storage"}],"numberOfBytes":"192"},"t_uint256":{"encoding":"inplace","label":"uint256","numberOfBytes":"32"}}},"userdoc":{"kind":"user","methods":{"acceptOwnership()":{"notice":"Allows an ownership transfer to be completed by the recipient."},"handleOracleFulfillment(bytes32,bytes,bytes)":{"notice":"Chainlink Functions response handler called by the Functions Router during fullilment from the designated transmitter node in an OCR round."},"owner()":{"notice":"Get the current owner"},"sendRequest(string,bytes,uint8,uint64,string[],bytes[],uint64,uint32,bytes32)":{"notice":"Send a simple request"},"transferOwnership(address)":{"notice":"Allows an owner to begin transferring ownership to a new address, pending."}},"version":1}}}}