{
  "_format": "hh-sol-artifact-1",
  "contractName": "VerifyData",
  "sourceName": "contracts/Verifydata.sol",
  "abi": [
    {
      "inputs": [
        {
          "internalType": "address",
          "name": "router",
          "type": "address"
        }
      ],
      "stateMutability": "nonpayable",
      "type": "constructor"
    },
    {
      "inputs": [],
      "name": "EmptyArgs",
      "type": "error"
    },
    {
      "inputs": [],
      "name": "EmptySecrets",
      "type": "error"
    },
    {
      "inputs": [],
      "name": "EmptySource",
      "type": "error"
    },
    {
      "inputs": [],
      "name": "NoInlineSecrets",
      "type": "error"
    },
    {
      "inputs": [],
      "name": "OnlyRouterCanFulfill",
      "type": "error"
    },
    {
      "inputs": [
        {
          "internalType": "bytes32",
          "name": "requestId",
          "type": "bytes32"
        }
      ],
      "name": "UnexpectedRequestID",
      "type": "error"
    },
    {
      "anonymous": false,
      "inputs": [
        {
          "indexed": false,
          "internalType": "address",
          "name": "Creater",
          "type": "address"
        },
        {
          "indexed": false,
          "internalType": "bytes32",
          "name": "dataHash",
          "type": "bytes32"
        },
        {
          "indexed": false,
          "internalType": "uint256",
          "name": "dataPrice",
          "type": "uint256"
        },
        {
          "indexed": false,
          "internalType": "uint256",
          "name": "dataId",
          "type": "uint256"
        },
        {
          "indexed": false,
          "internalType": "string",
          "name": "dataDescribe",
          "type": "string"
        }
      ],
      "name": "CreaterCreated",
      "type": "event"
    },
    {
      "anonymous": false,
      "inputs": [
        {
          "indexed": false,
          "internalType": "uint256",
          "name": "dataId",
          "type": "uint256"
        },
        {
          "indexed": false,
          "internalType": "bytes32",
          "name": "dataHash",
          "type": "bytes32"
        }
      ],
      "name": "DataHashGenerated",
      "type": "event"
    },
    {
      "anonymous": false,
      "inputs": [
        {
          "indexed": true,
          "internalType": "address",
          "name": "from",
          "type": "address"
        },
        {
          "indexed": true,
          "internalType": "address",
          "name": "to",
          "type": "address"
        }
      ],
      "name": "OwnershipTransferRequested",
      "type": "event"
    },
    {
      "anonymous": false,
      "inputs": [
        {
          "indexed": true,
          "internalType": "address",
          "name": "from",
          "type": "address"
        },
        {
          "indexed": true,
          "internalType": "address",
          "name": "to",
          "type": "address"
        }
      ],
      "name": "OwnershipTransferred",
      "type": "event"
    },
    {
      "anonymous": false,
      "inputs": [
        {
          "indexed": true,
          "internalType": "bytes32",
          "name": "id",
          "type": "bytes32"
        }
      ],
      "name": "RequestFulfilled",
      "type": "event"
    },
    {
      "anonymous": false,
      "inputs": [
        {
          "indexed": true,
          "internalType": "bytes32",
          "name": "id",
          "type": "bytes32"
        }
      ],
      "name": "RequestSent",
      "type": "event"
    },
    {
      "anonymous": false,
      "inputs": [
        {
          "indexed": true,
          "internalType": "bytes32",
          "name": "requestId",
          "type": "bytes32"
        },
        {
          "indexed": false,
          "internalType": "bytes",
          "name": "response",
          "type": "bytes"
        },
        {
          "indexed": false,
          "internalType": "bytes",
          "name": "err",
          "type": "bytes"
        }
      ],
      "name": "Response",
      "type": "event"
    },
    {
      "anonymous": false,
      "inputs": [
        {
          "indexed": false,
          "internalType": "address",
          "name": "User",
          "type": "address"
        },
        {
          "indexed": false,
          "internalType": "uint256",
          "name": "dataPrice",
          "type": "uint256"
        },
        {
          "indexed": false,
          "internalType": "uint256",
          "name": "selectId",
          "type": "uint256"
        }
      ],
      "name": "UserCreated",
      "type": "event"
    },
    {
      "inputs": [
        {
          "internalType": "string",
          "name": "uri",
          "type": "string"
        },
        {
          "internalType": "uint256",
          "name": "price",
          "type": "uint256"
        },
        {
          "internalType": "string",
          "name": "descriptor",
          "type": "string"
        }
      ],
      "name": "CreateData",
      "outputs": [],
      "stateMutability": "nonpayable",
      "type": "function"
    },
    {
      "inputs": [
        {
          "internalType": "uint256",
          "name": "selectId",
          "type": "uint256"
        }
      ],
      "name": "CreateUser",
      "outputs": [],
      "stateMutability": "payable",
      "type": "function"
    },
    {
      "inputs": [
        {
          "internalType": "uint256",
          "name": "dataId",
          "type": "uint256"
        }
      ],
      "name": "GetDataDescribe",
      "outputs": [
        {
          "internalType": "string",
          "name": "",
          "type": "string"
        }
      ],
      "stateMutability": "view",
      "type": "function"
    },
    {
      "inputs": [
        {
          "internalType": "string",
          "name": "uri",
          "type": "string"
        },
        {
          "internalType": "uint256",
          "name": "dataId",
          "type": "uint256"
        }
      ],
      "name": "GetDataHash",
      "outputs": [
        {
          "internalType": "bytes32",
          "name": "",
          "type": "bytes32"
        }
      ],
      "stateMutability": "nonpayable",
      "type": "function"
    },
    {
      "inputs": [],
      "name": "GetDataLength",
      "outputs": [
        {
          "internalType": "uint256",
          "name": "",
          "type": "uint256"
        }
      ],
      "stateMutability": "view",
      "type": "function"
    },
    {
      "inputs": [
        {
          "internalType": "uint256",
          "name": "dataId",
          "type": "uint256"
        }
      ],
      "name": "GetDataPrice",
      "outputs": [
        {
          "internalType": "uint256",
          "name": "",
          "type": "uint256"
        }
      ],
      "stateMutability": "view",
      "type": "function"
    },
    {
      "inputs": [
        {
          "internalType": "uint256",
          "name": "dataId",
          "type": "uint256"
        }
      ],
      "name": "GetDataUser",
      "outputs": [
        {
          "internalType": "address[]",
          "name": "",
          "type": "address[]"
        }
      ],
      "stateMutability": "view",
      "type": "function"
    },
    {
      "inputs": [],
      "name": "acceptOwnership",
      "outputs": [],
      "stateMutability": "nonpayable",
      "type": "function"
    },
    {
      "inputs": [
        {
          "internalType": "bytes32",
          "name": "requestId",
          "type": "bytes32"
        },
        {
          "internalType": "bytes",
          "name": "response",
          "type": "bytes"
        },
        {
          "internalType": "bytes",
          "name": "err",
          "type": "bytes"
        }
      ],
      "name": "handleOracleFulfillment",
      "outputs": [],
      "stateMutability": "nonpayable",
      "type": "function"
    },
    {
      "inputs": [],
      "name": "owner",
      "outputs": [
        {
          "internalType": "address",
          "name": "",
          "type": "address"
        }
      ],
      "stateMutability": "view",
      "type": "function"
    },
    {
      "inputs": [],
      "name": "s_lastError",
      "outputs": [
        {
          "internalType": "bytes",
          "name": "",
          "type": "bytes"
        }
      ],
      "stateMutability": "view",
      "type": "function"
    },
    {
      "inputs": [],
      "name": "s_lastRequestId",
      "outputs": [
        {
          "internalType": "bytes32",
          "name": "",
          "type": "bytes32"
        }
      ],
      "stateMutability": "view",
      "type": "function"
    },
    {
      "inputs": [],
      "name": "s_lastResponse",
      "outputs": [
        {
          "internalType": "bytes",
          "name": "",
          "type": "bytes"
        }
      ],
      "stateMutability": "view",
      "type": "function"
    },
    {
      "inputs": [
        {
          "internalType": "string",
          "name": "source",
          "type": "string"
        },
        {
          "internalType": "bytes",
          "name": "encryptedSecretsUrls",
          "type": "bytes"
        },
        {
          "internalType": "uint8",
          "name": "donHostedSecretsSlotID",
          "type": "uint8"
        },
        {
          "internalType": "uint64",
          "name": "donHostedSecretsVersion",
          "type": "uint64"
        },
        {
          "internalType": "string[]",
          "name": "args",
          "type": "string[]"
        },
        {
          "internalType": "bytes[]",
          "name": "bytesArgs",
          "type": "bytes[]"
        },
        {
          "internalType": "uint64",
          "name": "subscriptionId",
          "type": "uint64"
        },
        {
          "internalType": "uint32",
          "name": "gasLimit",
          "type": "uint32"
        },
        {
          "internalType": "bytes32",
          "name": "donID",
          "type": "bytes32"
        }
      ],
      "name": "sendRequest",
      "outputs": [
        {
          "internalType": "bytes32",
          "name": "requestId",
          "type": "bytes32"
        }
      ],
      "stateMutability": "nonpayable",
      "type": "function"
    },
    {
      "inputs": [
        {
          "internalType": "address",
          "name": "to",
          "type": "address"
        }
      ],
      "name": "transferOwnership",
      "outputs": [],
      "stateMutability": "nonpayable",
      "type": "function"
    }
  ],
  "bytecode": "0x60a06040523480156200001157600080fd5b5060405162003aca38038062003aca83398181016040528101906200003791906200030d565b33806000838073ffffffffffffffffffffffffffffffffffffffff1660808173ffffffffffffffffffffffffffffffffffffffff168152505050600073ffffffffffffffffffffffffffffffffffffffff168273ffffffffffffffffffffffffffffffffffffffff1603620000e3576040517f08c379a0000000000000000000000000000000000000000000000000000000008152600401620000da90620003a0565b60405180910390fd5b816000806101000a81548173ffffffffffffffffffffffffffffffffffffffff021916908373ffffffffffffffffffffffffffffffffffffffff160217905550600073ffffffffffffffffffffffffffffffffffffffff168173ffffffffffffffffffffffffffffffffffffffff16146200016a5762000169816200017460201b60201c565b5b5050505062000434565b3373ffffffffffffffffffffffffffffffffffffffff168173ffffffffffffffffffffffffffffffffffffffff1603620001e5576040517f08c379a0000000000000000000000000000000000000000000000000000000008152600401620001dc9062000412565b60405180910390fd5b80600160006101000a81548173ffffffffffffffffffffffffffffffffffffffff021916908373ffffffffffffffffffffffffffffffffffffffff1602179055508073ffffffffffffffffffffffffffffffffffffffff1660008054906101000a900473ffffffffffffffffffffffffffffffffffffffff1673ffffffffffffffffffffffffffffffffffffffff167fed8889f560326eb138920d842192f0eb3dd22b4f139c87a2c57538e05bae127860405160405180910390a350565b600080fd5b600073ffffffffffffffffffffffffffffffffffffffff82169050919050565b6000620002d582620002a8565b9050919050565b620002e781620002c8565b8114620002f357600080fd5b50565b6000815190506200030781620002dc565b92915050565b600060208284031215620003265762000325620002a3565b5b60006200033684828501620002f6565b91505092915050565b600082825260208201905092915050565b7f43616e6e6f7420736574206f776e657220746f207a65726f0000000000000000600082015250565b6000620003886018836200033f565b9150620003958262000350565b602082019050919050565b60006020820190508181036000830152620003bb8162000379565b9050919050565b7f43616e6e6f74207472616e7366657220746f2073656c66000000000000000000600082015250565b6000620003fa6017836200033f565b91506200040782620003c2565b602082019050919050565b600060208201905081810360008301526200042d81620003eb565b9050919050565b60805161367362000457600039600081816103a501526115b201526136736000f3fe6080604052600436106100e85760003560e01c806352a81eeb1161008a578063c6922b5411610059578063c6922b54146102e4578063e9c8c97d14610321578063edea7dfd1461033d578063f2fde38b1461037a576100e8565b806352a81eeb1461023a57806379ba5097146102775780638da5cb5b1461028e578063b1e21749146102b9576100e8565b80633944ea3a116100c65780633944ea3a1461017e578063468926bf146101a9578063491d98f4146101e65780634b0795a81461020f576100e8565b80630ca76175146100ed5780630e1d195714610116578063227fd8e614610141575b600080fd5b3480156100f957600080fd5b50610114600480360381019061010f91906120d4565b6103a3565b005b34801561012257600080fd5b5061012b610465565b6040516101389190612178565b60405180910390f35b34801561014d57600080fd5b5061016860048036038101906101639190612260565b610472565b60405161017591906122cb565b60405180910390f35b34801561018a57600080fd5b506101936104b9565b6040516101a09190612365565b60405180910390f35b3480156101b557600080fd5b506101d060048036038101906101cb9190612387565b610547565b6040516101dd9190612409565b60405180910390f35b3480156101f257600080fd5b5061020d6004803603810190610208919061242b565b6105fe565b005b34801561021b57600080fd5b506102246107cb565b6040516102319190612365565b60405180910390f35b34801561024657600080fd5b50610261600480360381019061025c9190612732565b610859565b60405161026e91906122cb565b60405180910390f35b34801561028357600080fd5b5061028c610933565b005b34801561029a57600080fd5b506102a3610ac8565b6040516102b091906128ad565b60405180910390f35b3480156102c557600080fd5b506102ce610af1565b6040516102db91906122cb565b60405180910390f35b3480156102f057600080fd5b5061030b60048036038101906103069190612387565b610af7565b6040516103189190612986565b60405180910390f35b61033b60048036038101906103369190612387565b610baa565b005b34801561034957600080fd5b50610364600480360381019061035f9190612387565b610ded565b6040516103719190612178565b60405180910390f35b34801561038657600080fd5b506103a1600480360381019061039c91906129d4565b610e1c565b005b7f000000000000000000000000000000000000000000000000000000000000000073ffffffffffffffffffffffffffffffffffffffff163373ffffffffffffffffffffffffffffffffffffffff1614610428576040517fc6829f8300000000000000000000000000000000000000000000000000000000815260040160405180910390fd5b610433838383610e30565b827f85e1543bf2f84fe80c6badbce3648c8539ad1df4d2b3d822938ca0538be727e660405160405180910390a2505050565b6000600280549050905090565b600080600090507f1544746eae3c1b8f427233b95f131f429cd2a05d31552f70f9a221ee65b0201283826040516104aa929190612a01565b60405180910390a15092915050565b600580546104c690612a59565b80601f01602080910402602001604051908101604052809291908181526020018280546104f290612a59565b801561053f5780601f106105145761010080835404028352916020019161053f565b820191906000526020600020905b81548152906001019060200180831161052257829003601f168201915b505050505081565b60606002828154811061055d5761055c612a8a565b5b9060005260206000209060060201600501805461057990612a59565b80601f01602080910402602001604051908101604052809291908181526020018280546105a590612a59565b80156105f25780601f106105c7576101008083540402835291602001916105f2565b820191906000526020600020905b8154815290600101906020018083116105d557829003601f168201915b50505050509050919050565b60008067ffffffffffffffff81111561061a57610619611fa9565b5b6040519080825280602002602001820160405280156106485781602001602082028036833780820191505090505b509050600061065985600354610472565b905060006040518060c001604052803373ffffffffffffffffffffffffffffffffffffffff1681526020018481526020018381526020018681526020016003548152602001858152509050600281908060018154018082558091505060019003906000526020600020906006020160009091909190915060008201518160000160006101000a81548173ffffffffffffffffffffffffffffffffffffffff021916908373ffffffffffffffffffffffffffffffffffffffff1602179055506020820151816001019080519060200190610733929190611df1565b5060408201518160020155606082015181600301556080820151816004015560a08201518160050190816107679190612c65565b5050506003600081548092919061077d90612d66565b91905055507f9574f6c8401ed36a66ec5b76eebd8617deb7f5629780ba001b08629662471dfa338387600354886040516107bb959493929190612dae565b60405180910390a1505050505050565b600680546107d890612a59565b80601f016020809104026020016040519081016040528092919081815260200182805461080490612a59565b80156108515780601f1061082657610100808354040283529160200191610851565b820191906000526020600020905b81548152906001019060200180831161083457829003601f168201915b505050505081565b6000610863610ed7565b61086b611e7b565b61087e8b82610f6790919063ffffffff16565b60008a5111156108a05761089b8a82610f7890919063ffffffff16565b6108ca565b60008867ffffffffffffffff1611156108c9576108c8898983610ff19092919063ffffffff16565b5b5b6000875111156108e8576108e7878261110190919063ffffffff16565b5b60008651111561090657610905868261114990919063ffffffff16565b5b61091a61091282611191565b8686866115ad565b6004819055506004549150509998505050505050505050565b600160009054906101000a900473ffffffffffffffffffffffffffffffffffffffff1673ffffffffffffffffffffffffffffffffffffffff163373ffffffffffffffffffffffffffffffffffffffff16146109c3576040517f08c379a00000000000000000000000000000000000000000000000000000000081526004016109ba90612e54565b60405180910390fd5b60008060009054906101000a900473ffffffffffffffffffffffffffffffffffffffff169050336000806101000a81548173ffffffffffffffffffffffffffffffffffffffff021916908373ffffffffffffffffffffffffffffffffffffffff1602179055506000600160006101000a81548173ffffffffffffffffffffffffffffffffffffffff021916908373ffffffffffffffffffffffffffffffffffffffff1602179055503373ffffffffffffffffffffffffffffffffffffffff168173ffffffffffffffffffffffffffffffffffffffff167f8be0079c531659141344cd1fd0a4f28419497f9722a3daafe3b4186f6b6457e060405160405180910390a350565b60008060009054906101000a900473ffffffffffffffffffffffffffffffffffffffff16905090565b60045481565b606060028281548110610b0d57610b0c612a8a565b5b9060005260206000209060060201600101805480602002602001604051908101604052809291908181526020018280548015610b9e57602002820191906000526020600020905b8160009054906101000a900473ffffffffffffffffffffffffffffffffffffffff1673ffffffffffffffffffffffffffffffffffffffff1681526020019060010190808311610b54575b50505050509050919050565b60028181548110610bbe57610bbd612a8a565b5b906000526020600020906006020160030154341015610c12576040517f08c379a0000000000000000000000000000000000000000000000000000000008152600401610c0990612ee6565b60405180910390fd5b600060028281548110610c2857610c27612a8a565b5b906000526020600020906006020160000160009054906101000a900473ffffffffffffffffffffffffffffffffffffffff1673ffffffffffffffffffffffffffffffffffffffff1634604051610c7d90612f37565b60006040518083038185875af1925050503d8060008114610cba576040519150601f19603f3d011682016040523d82523d6000602084013e610cbf565b606091505b5050905080610d03576040517f08c379a0000000000000000000000000000000000000000000000000000000008152600401610cfa90612f98565b60405180910390fd5b60028281548110610d1757610d16612a8a565b5b9060005260206000209060060201600101339080600181540180825580915050600190039060005260206000200160009091909190916101000a81548173ffffffffffffffffffffffffffffffffffffffff021916908373ffffffffffffffffffffffffffffffffffffffff1602179055507fb7805c98ca12cecf0d6d4c9a5bb7f250cbc2a1eb545e287b4aa0dbff31df5c933360028481548110610dbf57610dbe612a8a565b5b90600052602060002090600602016003015484604051610de193929190612fb8565b60405180910390a15050565b600060028281548110610e0357610e02612a8a565b5b9060005260206000209060060201600301549050919050565b610e24610ed7565b610e2d81611690565b50565b8260045414610e7657826040517fd068bf5b000000000000000000000000000000000000000000000000000000008152600401610e6d91906122cb565b60405180910390fd5b8160059081610e85919061304a565b508060069081610e95919061304a565b50827f7873807bf6ddc50401cd3d29bbe0decee23fd4d68d273f4b5eb83cded4d2f17260056006604051610eca9291906131a0565b60405180910390a2505050565b60008054906101000a900473ffffffffffffffffffffffffffffffffffffffff1673ffffffffffffffffffffffffffffffffffffffff163373ffffffffffffffffffffffffffffffffffffffff1614610f65576040517f08c379a0000000000000000000000000000000000000000000000000000000008152600401610f5c90613223565b60405180910390fd5b565b610f7482600080846117bc565b5050565b6000815103610fb3576040517fe889636f00000000000000000000000000000000000000000000000000000000815260040160405180910390fd5b600182602001906002811115610fcc57610fcb613243565b5b90816002811115610fe057610fdf613243565b5b815250508082608001819052505050565b6000610ffe610100611866565b90506110486040518060400160405280600681526020017f736c6f74494400000000000000000000000000000000000000000000000000008152508261188d90919063ffffffff16565b61105e8360ff16826118b690919063ffffffff16565b6110a66040518060400160405280600781526020017f76657273696f6e000000000000000000000000000000000000000000000000008152508261188d90919063ffffffff16565b6110b982826118b690919063ffffffff16565b6002846020019060028111156110d2576110d1613243565b5b908160028111156110e6576110e5613243565b5b81525050806000015160000151846080018190525050505050565b600081510361113c576040517ffe936cb700000000000000000000000000000000000000000000000000000000815260040160405180910390fd5b808260a001819052505050565b6000815103611184576040517ffe936cb700000000000000000000000000000000000000000000000000000000815260040160405180910390fd5b808260c001819052505050565b606060006111a0610100611866565b90506111ea6040518060400160405280600c81526020017f636f64654c6f636174696f6e00000000000000000000000000000000000000008152508261188d90919063ffffffff16565b6112138360000151600281111561120457611203613243565b5b826118c690919063ffffffff16565b61125b6040518060400160405280600881526020017f6c616e67756167650000000000000000000000000000000000000000000000008152508261188d90919063ffffffff16565b6112848360400151600081111561127557611274613243565b5b826118c690919063ffffffff16565b6112cc6040518060400160405280600681526020017f736f7572636500000000000000000000000000000000000000000000000000008152508261188d90919063ffffffff16565b6112e383606001518261188d90919063ffffffff16565b60008360a0015151111561139f576113396040518060400160405280600481526020017f61726773000000000000000000000000000000000000000000000000000000008152508261188d90919063ffffffff16565b61134281611916565b60005b8360a0015151811015611394576113838460a00151828151811061136c5761136b612a8a565b5b60200260200101518361188d90919063ffffffff16565b8061138d90612d66565b9050611345565b5061139e8161193e565b5b600083608001515111156114e057600060028111156113c1576113c0613243565b5b836020015160028111156113d8576113d7613243565b5b0361140f576040517fa80d31f700000000000000000000000000000000000000000000000000000000815260040160405180910390fd5b6114576040518060400160405280600f81526020017f736563726574734c6f636174696f6e00000000000000000000000000000000008152508261188d90919063ffffffff16565b6114808360200151600281111561147157611470613243565b5b826118c690919063ffffffff16565b6114c86040518060400160405280600781526020017f73656372657473000000000000000000000000000000000000000000000000008152508261188d90919063ffffffff16565b6114df83608001518261196690919063ffffffff16565b5b60008360c0015151111561159c576115366040518060400160405280600981526020017f62797465734172677300000000000000000000000000000000000000000000008152508261188d90919063ffffffff16565b61153f81611916565b60005b8360c0015151811015611591576115808460c00151828151811061156957611568612a8a565b5b60200260200101518361196690919063ffffffff16565b8061158a90612d66565b9050611542565b5061159b8161193e565b5b806000015160000151915050919050565b6000807f000000000000000000000000000000000000000000000000000000000000000073ffffffffffffffffffffffffffffffffffffffff1663461d27628688600188886040518663ffffffff1660e01b81526004016116129594939291906132ad565b6020604051808303816000875af1158015611631573d6000803e3d6000fd5b505050506040513d601f19601f82011682018060405250810190611655919061331c565b9050807f1131472297a800fee664d1d89cfa8f7676ff07189ecc53f80bbb5f4969099db860405160405180910390a280915050949350505050565b3373ffffffffffffffffffffffffffffffffffffffff168173ffffffffffffffffffffffffffffffffffffffff16036116fe576040517f08c379a00000000000000000000000000000000000000000000000000000000081526004016116f590613395565b60405180910390fd5b80600160006101000a81548173ffffffffffffffffffffffffffffffffffffffff021916908373ffffffffffffffffffffffffffffffffffffffff1602179055508073ffffffffffffffffffffffffffffffffffffffff1660008054906101000a900473ffffffffffffffffffffffffffffffffffffffff1673ffffffffffffffffffffffffffffffffffffffff167fed8889f560326eb138920d842192f0eb3dd22b4f139c87a2c57538e05bae127860405160405180910390a350565b60008151036117f7576040517f22ce3edd00000000000000000000000000000000000000000000000000000000815260040160405180910390fd5b828460000190600281111561180f5761180e613243565b5b9081600281111561182357611822613243565b5b81525050818460400190600081111561183f5761183e613243565b5b9081600081111561185357611852613243565b5b8152505080846060018190525050505050565b61186e611eed565b61187c81600001518361198f565b506000816020018181525050919050565b61189a8260038351611a08565b6118b1818360000151611bb190919063ffffffff16565b505050565b6118c282600083611a08565b5050565b6118e860026005600660ff16901b178360000151611bcd90919063ffffffff16565b5061191282826040516020016118fe9190612178565b604051602081830303815290604052611966565b5050565b611921816004611c37565b60018160200181815161193491906133b5565b9150818152505050565b611949816007611c37565b60018160200181815161195c91906133e9565b9150818152505050565b6119738260028351611a08565b61198a818360000151611bb190919063ffffffff16565b505050565b611997611f0d565b60006020836119a6919061344c565b146119d2576020826119b8919061344c565b60206119c491906133e9565b826119cf91906133b5565b91505b8183602001818152505060405180845260008152828101602001818110156119f957600080fd5b80604052505082905092915050565b60178167ffffffffffffffff1611611a4357611a3d8160058460ff16901b60ff16178460000151611bcd90919063ffffffff16565b50611bac565b60ff8167ffffffffffffffff1611611aa157611a76601860058460ff16901b178460000151611bcd90919063ffffffff16565b50611a9b8167ffffffffffffffff1660018560000151611c5d9092919063ffffffff16565b50611bab565b61ffff8167ffffffffffffffff1611611b0057611ad5601960058460ff16901b178460000151611bcd90919063ffffffff16565b50611afa8167ffffffffffffffff1660028560000151611c5d9092919063ffffffff16565b50611baa565b63ffffffff8167ffffffffffffffff1611611b6157611b36601a60058460ff16901b178460000151611bcd90919063ffffffff16565b50611b5b8167ffffffffffffffff1660048560000151611c5d9092919063ffffffff16565b50611ba9565b611b82601b60058460ff16901b178460000151611bcd90919063ffffffff16565b50611ba78167ffffffffffffffff1660088560000151611c5d9092919063ffffffff16565b505b5b5b5b505050565b611bb9611f0d565b611bc583838451611cea565b905092915050565b611bd5611f0d565b600083600001515190506000600182611bee91906133b5565b905084602001518210611c1257611c1185600283611c0c919061347d565b611dcd565b5b84516020838201018581538151831115611c2a578282525b5050849250505092915050565b611c58601f60058360ff16901b178360000151611bcd90919063ffffffff16565b505050565b611c65611f0d565b6000846000015151905060008184611c7d91906133b5565b90508560200151811115611ca257611ca186600283611c9c919061347d565b611dcd565b5b6000600185610100611cb491906135f2565b611cbe91906133e9565b905086518281018783198251161781528151841115611cdb578382525b50508693505050509392505050565b611cf2611f0d565b8251821115611d0057600080fd5b6000846000015151905060008382611d1891906133b5565b90508560200151811115611d3d57611d3c86600283611d37919061347d565b611dcd565b5b60008087518051856020830101935080851115611d58578482525b60208901925050505b60208610611d9f5780518252602082611d7a91906133b5565b9150602081611d8991906133b5565b9050602086611d9891906133e9565b9550611d61565b60006001876020036101000a0390508019825116818451168181178552505050879450505050509392505050565b600082600001519050611de0838361198f565b50611deb8382611bb1565b50505050565b828054828255906000526020600020908101928215611e6a579160200282015b82811115611e695782518260006101000a81548173ffffffffffffffffffffffffffffffffffffffff021916908373ffffffffffffffffffffffffffffffffffffffff16021790555091602001919060010190611e11565b5b509050611e779190611f27565b5090565b6040518060e0016040528060006002811115611e9a57611e99613243565b5b815260200160006002811115611eb357611eb2613243565b5b8152602001600080811115611ecb57611eca613243565b5b8152602001606081526020016060815260200160608152602001606081525090565b6040518060400160405280611f00611f0d565b8152602001600081525090565b604051806040016040528060608152602001600081525090565b5b80821115611f40576000816000905550600101611f28565b5090565b6000604051905090565b600080fd5b600080fd5b6000819050919050565b611f6b81611f58565b8114611f7657600080fd5b50565b600081359050611f8881611f62565b92915050565b600080fd5b600080fd5b6000601f19601f8301169050919050565b7f4e487b7100000000000000000000000000000000000000000000000000000000600052604160045260246000fd5b611fe182611f98565b810181811067ffffffffffffffff8211171561200057611fff611fa9565b5b80604052505050565b6000612013611f44565b905061201f8282611fd8565b919050565b600067ffffffffffffffff82111561203f5761203e611fa9565b5b61204882611f98565b9050602081019050919050565b82818337600083830152505050565b600061207761207284612024565b612009565b90508281526020810184848401111561209357612092611f93565b5b61209e848285612055565b509392505050565b600082601f8301126120bb576120ba611f8e565b5b81356120cb848260208601612064565b91505092915050565b6000806000606084860312156120ed576120ec611f4e565b5b60006120fb86828701611f79565b935050602084013567ffffffffffffffff81111561211c5761211b611f53565b5b612128868287016120a6565b925050604084013567ffffffffffffffff81111561214957612148611f53565b5b612155868287016120a6565b9150509250925092565b6000819050919050565b6121728161215f565b82525050565b600060208201905061218d6000830184612169565b92915050565b600067ffffffffffffffff8211156121ae576121ad611fa9565b5b6121b782611f98565b9050602081019050919050565b60006121d76121d284612193565b612009565b9050828152602081018484840111156121f3576121f2611f93565b5b6121fe848285612055565b509392505050565b600082601f83011261221b5761221a611f8e565b5b813561222b8482602086016121c4565b91505092915050565b61223d8161215f565b811461224857600080fd5b50565b60008135905061225a81612234565b92915050565b6000806040838503121561227757612276611f4e565b5b600083013567ffffffffffffffff81111561229557612294611f53565b5b6122a185828601612206565b92505060206122b28582860161224b565b9150509250929050565b6122c581611f58565b82525050565b60006020820190506122e060008301846122bc565b92915050565b600081519050919050565b600082825260208201905092915050565b60005b83811015612320578082015181840152602081019050612305565b60008484015250505050565b6000612337826122e6565b61234181856122f1565b9350612351818560208601612302565b61235a81611f98565b840191505092915050565b6000602082019050818103600083015261237f818461232c565b905092915050565b60006020828403121561239d5761239c611f4e565b5b60006123ab8482850161224b565b91505092915050565b600081519050919050565b600082825260208201905092915050565b60006123db826123b4565b6123e581856123bf565b93506123f5818560208601612302565b6123fe81611f98565b840191505092915050565b6000602082019050818103600083015261242381846123d0565b905092915050565b60008060006060848603121561244457612443611f4e565b5b600084013567ffffffffffffffff81111561246257612461611f53565b5b61246e86828701612206565b935050602061247f8682870161224b565b925050604084013567ffffffffffffffff8111156124a05761249f611f53565b5b6124ac86828701612206565b9150509250925092565b600060ff82169050919050565b6124cc816124b6565b81146124d757600080fd5b50565b6000813590506124e9816124c3565b92915050565b600067ffffffffffffffff82169050919050565b61250c816124ef565b811461251757600080fd5b50565b60008135905061252981612503565b92915050565b600067ffffffffffffffff82111561254a57612549611fa9565b5b602082029050602081019050919050565b600080fd5b600061257361256e8461252f565b612009565b905080838252602082019050602084028301858111156125965761259561255b565b5b835b818110156125dd57803567ffffffffffffffff8111156125bb576125ba611f8e565b5b8086016125c88982612206565b85526020850194505050602081019050612598565b5050509392505050565b600082601f8301126125fc576125fb611f8e565b5b813561260c848260208601612560565b91505092915050565b600067ffffffffffffffff8211156126305761262f611fa9565b5b602082029050602081019050919050565b600061265461264f84612615565b612009565b905080838252602082019050602084028301858111156126775761267661255b565b5b835b818110156126be57803567ffffffffffffffff81111561269c5761269b611f8e565b5b8086016126a989826120a6565b85526020850194505050602081019050612679565b5050509392505050565b600082601f8301126126dd576126dc611f8e565b5b81356126ed848260208601612641565b91505092915050565b600063ffffffff82169050919050565b61270f816126f6565b811461271a57600080fd5b50565b60008135905061272c81612706565b92915050565b60008060008060008060008060006101208a8c03121561275557612754611f4e565b5b60008a013567ffffffffffffffff81111561277357612772611f53565b5b61277f8c828d01612206565b99505060208a013567ffffffffffffffff8111156127a05761279f611f53565b5b6127ac8c828d016120a6565b98505060406127bd8c828d016124da565b97505060606127ce8c828d0161251a565b96505060808a013567ffffffffffffffff8111156127ef576127ee611f53565b5b6127fb8c828d016125e7565b95505060a08a013567ffffffffffffffff81111561281c5761281b611f53565b5b6128288c828d016126c8565b94505060c06128398c828d0161251a565b93505060e061284a8c828d0161271d565b92505061010061285c8c828d01611f79565b9150509295985092959850929598565b600073ffffffffffffffffffffffffffffffffffffffff82169050919050565b60006128978261286c565b9050919050565b6128a78161288c565b82525050565b60006020820190506128c2600083018461289e565b92915050565b600081519050919050565b600082825260208201905092915050565b6000819050602082019050919050565b6128fd8161288c565b82525050565b600061290f83836128f4565b60208301905092915050565b6000602082019050919050565b6000612933826128c8565b61293d81856128d3565b9350612948836128e4565b8060005b838110156129795781516129608882612903565b975061296b8361291b565b92505060018101905061294c565b5085935050505092915050565b600060208201905081810360008301526129a08184612928565b905092915050565b6129b18161288c565b81146129bc57600080fd5b50565b6000813590506129ce816129a8565b92915050565b6000602082840312156129ea576129e9611f4e565b5b60006129f8848285016129bf565b91505092915050565b6000604082019050612a166000830185612169565b612a2360208301846122bc565b9392505050565b7f4e487b7100000000000000000000000000000000000000000000000000000000600052602260045260246000fd5b60006002820490506001821680612a7157607f821691505b602082108103612a8457612a83612a2a565b5b50919050565b7f4e487b7100000000000000000000000000000000000000000000000000000000600052603260045260246000fd5b60008190508160005260206000209050919050565b60006020601f8301049050919050565b600082821b905092915050565b600060088302612b1b7fffffffffffffffffffffffffffffffffffffffffffffffffffffffffffffffff82612ade565b612b258683612ade565b95508019841693508086168417925050509392505050565b6000819050919050565b6000612b62612b5d612b588461215f565b612b3d565b61215f565b9050919050565b6000819050919050565b612b7c83612b47565b612b90612b8882612b69565b848454612aeb565b825550505050565b600090565b612ba5612b98565b612bb0818484612b73565b505050565b5b81811015612bd457612bc9600082612b9d565b600181019050612bb6565b5050565b601f821115612c1957612bea81612ab9565b612bf384612ace565b81016020851015612c02578190505b612c16612c0e85612ace565b830182612bb5565b50505b505050565b600082821c905092915050565b6000612c3c60001984600802612c1e565b1980831691505092915050565b6000612c558383612c2b565b9150826002028217905092915050565b612c6e826123b4565b67ffffffffffffffff811115612c8757612c86611fa9565b5b612c918254612a59565b612c9c828285612bd8565b600060209050601f831160018114612ccf5760008415612cbd578287015190505b612cc78582612c49565b865550612d2f565b601f198416612cdd86612ab9565b60005b82811015612d0557848901518255600182019150602085019450602081019050612ce0565b86831015612d225784890151612d1e601f891682612c2b565b8355505b6001600288020188555050505b505050505050565b7f4e487b7100000000000000000000000000000000000000000000000000000000600052601160045260246000fd5b6000612d718261215f565b91507fffffffffffffffffffffffffffffffffffffffffffffffffffffffffffffffff8203612da357612da2612d37565b5b600182019050919050565b600060a082019050612dc3600083018861289e565b612dd060208301876122bc565b612ddd6040830186612169565b612dea6060830185612169565b8181036080830152612dfc81846123d0565b90509695505050505050565b7f4d7573742062652070726f706f736564206f776e657200000000000000000000600082015250565b6000612e3e6016836123bf565b9150612e4982612e08565b602082019050919050565b60006020820190508181036000830152612e6d81612e31565b9050919050565b7f596f7520646f6e27742073656e6420656e6f7567682065746820746f2062757960008201527f2074686520646174612100000000000000000000000000000000000000000000602082015250565b6000612ed0602a836123bf565b9150612edb82612e74565b604082019050919050565b60006020820190508181036000830152612eff81612ec3565b9050919050565b600081905092915050565b50565b6000612f21600083612f06565b9150612f2c82612f11565b600082019050919050565b6000612f4282612f14565b9150819050919050565b7f5472616e73616374696f6e28627579206461746129204661696c656421000000600082015250565b6000612f82601d836123bf565b9150612f8d82612f4c565b602082019050919050565b60006020820190508181036000830152612fb181612f75565b9050919050565b6000606082019050612fcd600083018661289e565b612fda6020830185612169565b612fe76040830184612169565b949350505050565b60008190508160005260206000209050919050565b601f8211156130455761301681612fef565b61301f84612ace565b8101602085101561302e578190505b61304261303a85612ace565b830182612bb5565b50505b505050565b613053826122e6565b67ffffffffffffffff81111561306c5761306b611fa9565b5b6130768254612a59565b613081828285613004565b600060209050601f8311600181146130b457600084156130a2578287015190505b6130ac8582612c49565b865550613114565b601f1984166130c286612fef565b60005b828110156130ea578489015182556001820191506020850194506020810190506130c5565b868310156131075784890151613103601f891682612c2b565b8355505b6001600288020188555050505b505050505050565b6000815461312981612a59565b61313381866122f1565b9450600182166000811461314e576001811461316457613197565b60ff198316865281151560200286019350613197565b61316d85612fef565b60005b8381101561318f57815481890152600182019150602081019050613170565b808801955050505b50505092915050565b600060408201905081810360008301526131ba818561311c565b905081810360208301526131ce818461311c565b90509392505050565b7f4f6e6c792063616c6c61626c65206279206f776e657200000000000000000000600082015250565b600061320d6016836123bf565b9150613218826131d7565b602082019050919050565b6000602082019050818103600083015261323c81613200565b9050919050565b7f4e487b7100000000000000000000000000000000000000000000000000000000600052602160045260246000fd5b61327b816124ef565b82525050565b600061ffff82169050919050565b61329881613281565b82525050565b6132a7816126f6565b82525050565b600060a0820190506132c26000830188613272565b81810360208301526132d4818761232c565b90506132e3604083018661328f565b6132f0606083018561329e565b6132fd60808301846122bc565b9695505050505050565b60008151905061331681611f62565b92915050565b60006020828403121561333257613331611f4e565b5b600061334084828501613307565b91505092915050565b7f43616e6e6f74207472616e7366657220746f2073656c66000000000000000000600082015250565b600061337f6017836123bf565b915061338a82613349565b602082019050919050565b600060208201905081810360008301526133ae81613372565b9050919050565b60006133c08261215f565b91506133cb8361215f565b92508282019050808211156133e3576133e2612d37565b5b92915050565b60006133f48261215f565b91506133ff8361215f565b925082820390508181111561341757613416612d37565b5b92915050565b7f4e487b7100000000000000000000000000000000000000000000000000000000600052601260045260246000fd5b60006134578261215f565b91506134628361215f565b9250826134725761347161341d565b5b828206905092915050565b60006134888261215f565b91506134938361215f565b92508282026134a18161215f565b915082820484148315176134b8576134b7612d37565b5b5092915050565b60008160011c9050919050565b6000808291508390505b6001851115613516578086048111156134f2576134f1612d37565b5b60018516156135015780820291505b808102905061350f856134bf565b94506134d6565b94509492505050565b60008261352f57600190506135eb565b8161353d57600090506135eb565b8160018114613553576002811461355d5761358c565b60019150506135eb565b60ff84111561356f5761356e612d37565b5b8360020a91508482111561358657613585612d37565b5b506135eb565b5060208310610133831016604e8410600b84101617156135c15782820a9050838111156135bc576135bb612d37565b5b6135eb565b6135ce84848460016134cc565b925090508184048111156135e5576135e4612d37565b5b81810290505b9392505050565b60006135fd8261215f565b91506136088361215f565b92506136357fffffffffffffffffffffffffffffffffffffffffffffffffffffffffffffffff848461351f565b90509291505056fea2646970667358221220d5d2342cbc2746444c2d4154ca417651dffa54cbd8a0433f88c0661c5a03e88564736f6c63430008140033",
  "linkReferences": {},
  "deployedLinkReferences": {}
}