{
  "_format": "hh-sol-artifact-1",
  "contractName": "VerifyData",
  "sourceName": "contracts/verifyNFT.sol",
  "abi": [
    {
      "inputs": [
        {
          "internalType": "address",
          "name": "initialOwner",
          "type": "address"
        }
      ],
      "stateMutability": "nonpayable",
      "type": "constructor"
    },
    {
      "inputs": [],
      "name": "CheckpointUnorderedInsertion",
      "type": "error"
    },
    {
      "inputs": [],
      "name": "ECDSAInvalidSignature",
      "type": "error"
    },
    {
      "inputs": [
        {
          "internalType": "uint256",
          "name": "length",
          "type": "uint256"
        }
      ],
      "name": "ECDSAInvalidSignatureLength",
      "type": "error"
    },
    {
      "inputs": [
        {
          "internalType": "bytes32",
          "name": "s",
          "type": "bytes32"
        }
      ],
      "name": "ECDSAInvalidSignatureS",
      "type": "error"
    },
    {
      "inputs": [
        {
          "internalType": "uint256",
          "name": "timepoint",
          "type": "uint256"
        },
        {
          "internalType": "uint48",
          "name": "clock",
          "type": "uint48"
        }
      ],
      "name": "ERC5805FutureLookup",
      "type": "error"
    },
    {
      "inputs": [],
      "name": "ERC6372InconsistentClock",
      "type": "error"
    },
    {
      "inputs": [
        {
          "internalType": "address",
          "name": "sender",
          "type": "address"
        },
        {
          "internalType": "uint256",
          "name": "tokenId",
          "type": "uint256"
        },
        {
          "internalType": "address",
          "name": "owner",
          "type": "address"
        }
      ],
      "name": "ERC721IncorrectOwner",
      "type": "error"
    },
    {
      "inputs": [
        {
          "internalType": "address",
          "name": "operator",
          "type": "address"
        },
        {
          "internalType": "uint256",
          "name": "tokenId",
          "type": "uint256"
        }
      ],
      "name": "ERC721InsufficientApproval",
      "type": "error"
    },
    {
      "inputs": [
        {
          "internalType": "address",
          "name": "approver",
          "type": "address"
        }
      ],
      "name": "ERC721InvalidApprover",
      "type": "error"
    },
    {
      "inputs": [
        {
          "internalType": "address",
          "name": "operator",
          "type": "address"
        }
      ],
      "name": "ERC721InvalidOperator",
      "type": "error"
    },
    {
      "inputs": [
        {
          "internalType": "address",
          "name": "owner",
          "type": "address"
        }
      ],
      "name": "ERC721InvalidOwner",
      "type": "error"
    },
    {
      "inputs": [
        {
          "internalType": "address",
          "name": "receiver",
          "type": "address"
        }
      ],
      "name": "ERC721InvalidReceiver",
      "type": "error"
    },
    {
      "inputs": [
        {
          "internalType": "address",
          "name": "sender",
          "type": "address"
        }
      ],
      "name": "ERC721InvalidSender",
      "type": "error"
    },
    {
      "inputs": [
        {
          "internalType": "uint256",
          "name": "tokenId",
          "type": "uint256"
        }
      ],
      "name": "ERC721NonexistentToken",
      "type": "error"
    },
    {
      "inputs": [
        {
          "internalType": "address",
          "name": "account",
          "type": "address"
        },
        {
          "internalType": "uint256",
          "name": "currentNonce",
          "type": "uint256"
        }
      ],
      "name": "InvalidAccountNonce",
      "type": "error"
    },
    {
      "inputs": [],
      "name": "InvalidShortString",
      "type": "error"
    },
    {
      "inputs": [
        {
          "internalType": "address",
          "name": "owner",
          "type": "address"
        }
      ],
      "name": "OwnableInvalidOwner",
      "type": "error"
    },
    {
      "inputs": [
        {
          "internalType": "address",
          "name": "account",
          "type": "address"
        }
      ],
      "name": "OwnableUnauthorizedAccount",
      "type": "error"
    },
    {
      "inputs": [
        {
          "internalType": "uint8",
          "name": "bits",
          "type": "uint8"
        },
        {
          "internalType": "uint256",
          "name": "value",
          "type": "uint256"
        }
      ],
      "name": "SafeCastOverflowedUintDowncast",
      "type": "error"
    },
    {
      "inputs": [
        {
          "internalType": "string",
          "name": "str",
          "type": "string"
        }
      ],
      "name": "StringTooLong",
      "type": "error"
    },
    {
      "inputs": [
        {
          "internalType": "uint256",
          "name": "expiry",
          "type": "uint256"
        }
      ],
      "name": "VotesExpiredSignature",
      "type": "error"
    },
    {
      "anonymous": false,
      "inputs": [
        {
          "indexed": true,
          "internalType": "address",
          "name": "owner",
          "type": "address"
        },
        {
          "indexed": true,
          "internalType": "address",
          "name": "approved",
          "type": "address"
        },
        {
          "indexed": true,
          "internalType": "uint256",
          "name": "tokenId",
          "type": "uint256"
        }
      ],
      "name": "Approval",
      "type": "event"
    },
    {
      "anonymous": false,
      "inputs": [
        {
          "indexed": true,
          "internalType": "address",
          "name": "owner",
          "type": "address"
        },
        {
          "indexed": true,
          "internalType": "address",
          "name": "operator",
          "type": "address"
        },
        {
          "indexed": false,
          "internalType": "bool",
          "name": "approved",
          "type": "bool"
        }
      ],
      "name": "ApprovalForAll",
      "type": "event"
    },
    {
      "anonymous": false,
      "inputs": [
        {
          "indexed": false,
          "internalType": "uint256",
          "name": "_fromTokenId",
          "type": "uint256"
        },
        {
          "indexed": false,
          "internalType": "uint256",
          "name": "_toTokenId",
          "type": "uint256"
        }
      ],
      "name": "BatchMetadataUpdate",
      "type": "event"
    },
    {
      "anonymous": false,
      "inputs": [
        {
          "indexed": true,
          "internalType": "address",
          "name": "delegator",
          "type": "address"
        },
        {
          "indexed": true,
          "internalType": "address",
          "name": "fromDelegate",
          "type": "address"
        },
        {
          "indexed": true,
          "internalType": "address",
          "name": "toDelegate",
          "type": "address"
        }
      ],
      "name": "DelegateChanged",
      "type": "event"
    },
    {
      "anonymous": false,
      "inputs": [
        {
          "indexed": true,
          "internalType": "address",
          "name": "delegate",
          "type": "address"
        },
        {
          "indexed": false,
          "internalType": "uint256",
          "name": "previousVotes",
          "type": "uint256"
        },
        {
          "indexed": false,
          "internalType": "uint256",
          "name": "newVotes",
          "type": "uint256"
        }
      ],
      "name": "DelegateVotesChanged",
      "type": "event"
    },
    {
      "anonymous": false,
      "inputs": [],
      "name": "EIP712DomainChanged",
      "type": "event"
    },
    {
      "anonymous": false,
      "inputs": [
        {
          "indexed": false,
          "internalType": "uint256",
          "name": "_tokenId",
          "type": "uint256"
        }
      ],
      "name": "MetadataUpdate",
      "type": "event"
    },
    {
      "anonymous": false,
      "inputs": [
        {
          "indexed": true,
          "internalType": "address",
          "name": "previousOwner",
          "type": "address"
        },
        {
          "indexed": true,
          "internalType": "address",
          "name": "newOwner",
          "type": "address"
        }
      ],
      "name": "OwnershipTransferred",
      "type": "event"
    },
    {
      "anonymous": false,
      "inputs": [
        {
          "indexed": true,
          "internalType": "address",
          "name": "from",
          "type": "address"
        },
        {
          "indexed": true,
          "internalType": "address",
          "name": "to",
          "type": "address"
        },
        {
          "indexed": true,
          "internalType": "uint256",
          "name": "tokenId",
          "type": "uint256"
        }
      ],
      "name": "Transfer",
      "type": "event"
    },
    {
      "inputs": [],
      "name": "CLOCK_MODE",
      "outputs": [
        {
          "internalType": "string",
          "name": "",
          "type": "string"
        }
      ],
      "stateMutability": "view",
      "type": "function"
    },
    {
      "inputs": [
        {
          "internalType": "address",
          "name": "to",
          "type": "address"
        },
        {
          "internalType": "uint256",
          "name": "tokenId",
          "type": "uint256"
        }
      ],
      "name": "approve",
      "outputs": [],
      "stateMutability": "nonpayable",
      "type": "function"
    },
    {
      "inputs": [
        {
          "internalType": "address",
          "name": "owner",
          "type": "address"
        }
      ],
      "name": "balanceOf",
      "outputs": [
        {
          "internalType": "uint256",
          "name": "",
          "type": "uint256"
        }
      ],
      "stateMutability": "view",
      "type": "function"
    },
    {
      "inputs": [],
      "name": "clock",
      "outputs": [
        {
          "internalType": "uint48",
          "name": "",
          "type": "uint48"
        }
      ],
      "stateMutability": "view",
      "type": "function"
    },
    {
      "inputs": [
        {
          "internalType": "address",
          "name": "delegatee",
          "type": "address"
        }
      ],
      "name": "delegate",
      "outputs": [],
      "stateMutability": "nonpayable",
      "type": "function"
    },
    {
      "inputs": [
        {
          "internalType": "address",
          "name": "delegatee",
          "type": "address"
        },
        {
          "internalType": "uint256",
          "name": "nonce",
          "type": "uint256"
        },
        {
          "internalType": "uint256",
          "name": "expiry",
          "type": "uint256"
        },
        {
          "internalType": "uint8",
          "name": "v",
          "type": "uint8"
        },
        {
          "internalType": "bytes32",
          "name": "r",
          "type": "bytes32"
        },
        {
          "internalType": "bytes32",
          "name": "s",
          "type": "bytes32"
        }
      ],
      "name": "delegateBySig",
      "outputs": [],
      "stateMutability": "nonpayable",
      "type": "function"
    },
    {
      "inputs": [
        {
          "internalType": "address",
          "name": "account",
          "type": "address"
        }
      ],
      "name": "delegates",
      "outputs": [
        {
          "internalType": "address",
          "name": "",
          "type": "address"
        }
      ],
      "stateMutability": "view",
      "type": "function"
    },
    {
      "inputs": [],
      "name": "eip712Domain",
      "outputs": [
        {
          "internalType": "bytes1",
          "name": "fields",
          "type": "bytes1"
        },
        {
          "internalType": "string",
          "name": "name",
          "type": "string"
        },
        {
          "internalType": "string",
          "name": "version",
          "type": "string"
        },
        {
          "internalType": "uint256",
          "name": "chainId",
          "type": "uint256"
        },
        {
          "internalType": "address",
          "name": "verifyingContract",
          "type": "address"
        },
        {
          "internalType": "bytes32",
          "name": "salt",
          "type": "bytes32"
        },
        {
          "internalType": "uint256[]",
          "name": "extensions",
          "type": "uint256[]"
        }
      ],
      "stateMutability": "view",
      "type": "function"
    },
    {
      "inputs": [
        {
          "internalType": "uint256",
          "name": "tokenId",
          "type": "uint256"
        }
      ],
      "name": "getApproved",
      "outputs": [
        {
          "internalType": "address",
          "name": "",
          "type": "address"
        }
      ],
      "stateMutability": "view",
      "type": "function"
    },
    {
      "inputs": [
        {
          "internalType": "uint256",
          "name": "timepoint",
          "type": "uint256"
        }
      ],
      "name": "getPastTotalSupply",
      "outputs": [
        {
          "internalType": "uint256",
          "name": "",
          "type": "uint256"
        }
      ],
      "stateMutability": "view",
      "type": "function"
    },
    {
      "inputs": [
        {
          "internalType": "address",
          "name": "account",
          "type": "address"
        },
        {
          "internalType": "uint256",
          "name": "timepoint",
          "type": "uint256"
        }
      ],
      "name": "getPastVotes",
      "outputs": [
        {
          "internalType": "uint256",
          "name": "",
          "type": "uint256"
        }
      ],
      "stateMutability": "view",
      "type": "function"
    },
    {
      "inputs": [
        {
          "internalType": "address",
          "name": "account",
          "type": "address"
        }
      ],
      "name": "getVotes",
      "outputs": [
        {
          "internalType": "uint256",
          "name": "",
          "type": "uint256"
        }
      ],
      "stateMutability": "view",
      "type": "function"
    },
    {
      "inputs": [
        {
          "internalType": "address",
          "name": "owner",
          "type": "address"
        },
        {
          "internalType": "address",
          "name": "operator",
          "type": "address"
        }
      ],
      "name": "isApprovedForAll",
      "outputs": [
        {
          "internalType": "bool",
          "name": "",
          "type": "bool"
        }
      ],
      "stateMutability": "view",
      "type": "function"
    },
    {
      "inputs": [],
      "name": "name",
      "outputs": [
        {
          "internalType": "string",
          "name": "",
          "type": "string"
        }
      ],
      "stateMutability": "view",
      "type": "function"
    },
    {
      "inputs": [
        {
          "internalType": "address",
          "name": "owner",
          "type": "address"
        }
      ],
      "name": "nonces",
      "outputs": [
        {
          "internalType": "uint256",
          "name": "",
          "type": "uint256"
        }
      ],
      "stateMutability": "view",
      "type": "function"
    },
    {
      "inputs": [],
      "name": "owner",
      "outputs": [
        {
          "internalType": "address",
          "name": "",
          "type": "address"
        }
      ],
      "stateMutability": "view",
      "type": "function"
    },
    {
      "inputs": [
        {
          "internalType": "uint256",
          "name": "tokenId",
          "type": "uint256"
        }
      ],
      "name": "ownerOf",
      "outputs": [
        {
          "internalType": "address",
          "name": "",
          "type": "address"
        }
      ],
      "stateMutability": "view",
      "type": "function"
    },
    {
      "inputs": [],
      "name": "renounceOwnership",
      "outputs": [],
      "stateMutability": "nonpayable",
      "type": "function"
    },
    {
      "inputs": [
        {
          "internalType": "address",
          "name": "to",
          "type": "address"
        },
        {
          "internalType": "string",
          "name": "uri",
          "type": "string"
        }
      ],
      "name": "safeMint",
      "outputs": [],
      "stateMutability": "nonpayable",
      "type": "function"
    },
    {
      "inputs": [
        {
          "internalType": "address",
          "name": "from",
          "type": "address"
        },
        {
          "internalType": "address",
          "name": "to",
          "type": "address"
        },
        {
          "internalType": "uint256",
          "name": "tokenId",
          "type": "uint256"
        }
      ],
      "name": "safeTransferFrom",
      "outputs": [],
      "stateMutability": "nonpayable",
      "type": "function"
    },
    {
      "inputs": [
        {
          "internalType": "address",
          "name": "from",
          "type": "address"
        },
        {
          "internalType": "address",
          "name": "to",
          "type": "address"
        },
        {
          "internalType": "uint256",
          "name": "tokenId",
          "type": "uint256"
        },
        {
          "internalType": "bytes",
          "name": "data",
          "type": "bytes"
        }
      ],
      "name": "safeTransferFrom",
      "outputs": [],
      "stateMutability": "nonpayable",
      "type": "function"
    },
    {
      "inputs": [
        {
          "internalType": "address",
          "name": "operator",
          "type": "address"
        },
        {
          "internalType": "bool",
          "name": "approved",
          "type": "bool"
        }
      ],
      "name": "setApprovalForAll",
      "outputs": [],
      "stateMutability": "nonpayable",
      "type": "function"
    },
    {
      "inputs": [
        {
          "internalType": "bytes4",
          "name": "interfaceId",
          "type": "bytes4"
        }
      ],
      "name": "supportsInterface",
      "outputs": [
        {
          "internalType": "bool",
          "name": "",
          "type": "bool"
        }
      ],
      "stateMutability": "view",
      "type": "function"
    },
    {
      "inputs": [],
      "name": "symbol",
      "outputs": [
        {
          "internalType": "string",
          "name": "",
          "type": "string"
        }
      ],
      "stateMutability": "view",
      "type": "function"
    },
    {
      "inputs": [
        {
          "internalType": "uint256",
          "name": "tokenId",
          "type": "uint256"
        }
      ],
      "name": "tokenURI",
      "outputs": [
        {
          "internalType": "string",
          "name": "",
          "type": "string"
        }
      ],
      "stateMutability": "view",
      "type": "function"
    },
    {
      "inputs": [
        {
          "internalType": "address",
          "name": "from",
          "type": "address"
        },
        {
          "internalType": "address",
          "name": "to",
          "type": "address"
        },
        {
          "internalType": "uint256",
          "name": "tokenId",
          "type": "uint256"
        }
      ],
      "name": "transferFrom",
      "outputs": [],
      "stateMutability": "nonpayable",
      "type": "function"
    },
    {
      "inputs": [
        {
          "internalType": "address",
          "name": "newOwner",
          "type": "address"
        }
      ],
      "name": "transferOwnership",
      "outputs": [],
      "stateMutability": "nonpayable",
      "type": "function"
    }
  ],
  "bytecode": "0x6101606040523480156200001257600080fd5b50604051620052e7380380620052e78339818101604052810190620000389190620004d1565b6040518060400160405280600a81526020017f56657269667944617461000000000000000000000000000000000000000000008152506040518060400160405280600181526020017f3100000000000000000000000000000000000000000000000000000000000000815250826040518060400160405280600a81526020017f56657269667944617461000000000000000000000000000000000000000000008152506040518060400160405280600581526020017f566461746100000000000000000000000000000000000000000000000000000081525081600090816200012291906200077d565b5080600190816200013491906200077d565b505050600073ffffffffffffffffffffffffffffffffffffffff168173ffffffffffffffffffffffffffffffffffffffff1603620001ac5760006040517f1e4fbdf7000000000000000000000000000000000000000000000000000000008152600401620001a3919062000875565b60405180910390fd5b620001bd816200027560201b60201c565b50620001d46008836200033b60201b90919060201c565b6101208181525050620001f26009826200033b60201b90919060201c565b6101408181525050818051906020012060e08181525050808051906020012061010081815250504660a08181525050620002316200039360201b60201c565b608081815250503073ffffffffffffffffffffffffffffffffffffffff1660c08173ffffffffffffffffffffffffffffffffffffffff168152505050505062000a70565b6000600760009054906101000a900473ffffffffffffffffffffffffffffffffffffffff16905081600760006101000a81548173ffffffffffffffffffffffffffffffffffffffff021916908373ffffffffffffffffffffffffffffffffffffffff1602179055508173ffffffffffffffffffffffffffffffffffffffff168173ffffffffffffffffffffffffffffffffffffffff167f8be0079c531659141344cd1fd0a4f28419497f9722a3daafe3b4186f6b6457e060405160405180910390a35050565b600060208351101562000361576200035983620003f060201b60201c565b90506200038d565b8262000373836200045d60201b60201c565b60000190816200038491906200077d565b5060ff60001b90505b92915050565b60007f8b73c3c69bb8fe3d512ecc4cf759cc79239f7b179b0ffacaa9a75d522b39400f60e051610100514630604051602001620003d5959493929190620008be565b60405160208183030381529060405280519060200120905090565b600080829050601f815111156200044057826040517f305a27a9000000000000000000000000000000000000000000000000000000008152600401620004379190620009aa565b60405180910390fd5b8051816200044e9062000a00565b60001c1760001b915050919050565b6000819050919050565b600080fd5b600073ffffffffffffffffffffffffffffffffffffffff82169050919050565b600062000499826200046c565b9050919050565b620004ab816200048c565b8114620004b757600080fd5b50565b600081519050620004cb81620004a0565b92915050565b600060208284031215620004ea57620004e962000467565b5b6000620004fa84828501620004ba565b91505092915050565b600081519050919050565b7f4e487b7100000000000000000000000000000000000000000000000000000000600052604160045260246000fd5b7f4e487b7100000000000000000000000000000000000000000000000000000000600052602260045260246000fd5b600060028204905060018216806200058557607f821691505b6020821081036200059b576200059a6200053d565b5b50919050565b60008190508160005260206000209050919050565b60006020601f8301049050919050565b600082821b905092915050565b600060088302620006057fffffffffffffffffffffffffffffffffffffffffffffffffffffffffffffffff82620005c6565b620006118683620005c6565b95508019841693508086168417925050509392505050565b6000819050919050565b6000819050919050565b60006200065e62000658620006528462000629565b62000633565b62000629565b9050919050565b6000819050919050565b6200067a836200063d565b62000692620006898262000665565b848454620005d3565b825550505050565b600090565b620006a96200069a565b620006b68184846200066f565b505050565b5b81811015620006de57620006d26000826200069f565b600181019050620006bc565b5050565b601f8211156200072d57620006f781620005a1565b6200070284620005b6565b8101602085101562000712578190505b6200072a6200072185620005b6565b830182620006bb565b50505b505050565b600082821c905092915050565b6000620007526000198460080262000732565b1980831691505092915050565b60006200076d83836200073f565b9150826002028217905092915050565b620007888262000503565b67ffffffffffffffff811115620007a457620007a36200050e565b5b620007b082546200056c565b620007bd828285620006e2565b600060209050601f831160018114620007f55760008415620007e0578287015190505b620007ec85826200075f565b8655506200085c565b601f1984166200080586620005a1565b60005b828110156200082f5784890151825560018201915060208501945060208101905062000808565b868310156200084f57848901516200084b601f8916826200073f565b8355505b6001600288020188555050505b505050505050565b6200086f816200048c565b82525050565b60006020820190506200088c600083018462000864565b92915050565b6000819050919050565b620008a78162000892565b82525050565b620008b88162000629565b82525050565b600060a082019050620008d560008301886200089c565b620008e460208301876200089c565b620008f360408301866200089c565b620009026060830185620008ad565b62000911608083018462000864565b9695505050505050565b600082825260208201905092915050565b60005b838110156200094c5780820151818401526020810190506200092f565b60008484015250505050565b6000601f19601f8301169050919050565b6000620009768262000503565b6200098281856200091b565b9350620009948185602086016200092c565b6200099f8162000958565b840191505092915050565b60006020820190508181036000830152620009c6818462000969565b905092915050565b600081519050919050565b6000819050602082019050919050565b6000620009f7825162000892565b80915050919050565b600062000a0d82620009ce565b8262000a1984620009d9565b905062000a2681620009e9565b9250602082101562000a695762000a647fffffffffffffffffffffffffffffffffffffffffffffffffffffffffffffffff83602003600802620005c6565b831692505b5050919050565b60805160a05160c05160e05161010051610120516101405161481c62000acb60003960006114cb0152600061149001526000612cbc01526000612c9b0152600061228b015260006122e10152600061230a015261481c6000f3fe608060405234801561001057600080fd5b50600436106101a95760003560e01c80637ecebe00116100f9578063a22cb46511610097578063c87b56dd11610071578063c87b56dd146104e6578063d204c45e14610516578063e985e9c514610532578063f2fde38b14610562576101a9565b8063a22cb46514610492578063b88d4fde146104ae578063c3cda520146104ca576101a9565b80638e539e8c116100d35780638e539e8c146103f657806391ddadf41461042657806395d89b41146104445780639ab24eb014610462576101a9565b80637ecebe001461038457806384b0196e146103b45780638da5cb5b146103d8576101a9565b806342842e0e116101665780635c19a95c116101405780635c19a95c146102fe5780636352211e1461031a57806370a082311461034a578063715018a61461037a576101a9565b806342842e0e146102945780634bf5d7e9146102b0578063587cde1e146102ce576101a9565b806301ffc9a7146101ae57806306fdde03146101de578063081812fc146101fc578063095ea7b31461022c57806323b872dd146102485780633a46b1a814610264575b600080fd5b6101c860048036038101906101c39190613605565b61057e565b6040516101d5919061364d565b60405180910390f35b6101e6610590565b6040516101f391906136f8565b60405180910390f35b61021660048036038101906102119190613750565b610622565b60405161022391906137be565b60405180910390f35b61024660048036038101906102419190613805565b61063e565b005b610262600480360381019061025d9190613845565b610654565b005b61027e60048036038101906102799190613805565b610756565b60405161028b91906138a7565b60405180910390f35b6102ae60048036038101906102a99190613845565b61082f565b005b6102b861084f565b6040516102c591906136f8565b60405180910390f35b6102e860048036038101906102e391906138c2565b6108e3565b6040516102f591906137be565b60405180910390f35b610318600480360381019061031391906138c2565b61094c565b005b610334600480360381019061032f9190613750565b610966565b60405161034191906137be565b60405180910390f35b610364600480360381019061035f91906138c2565b610978565b60405161037191906138a7565b60405180910390f35b610382610a32565b005b61039e600480360381019061039991906138c2565b610a46565b6040516103ab91906138a7565b60405180910390f35b6103bc610a8f565b6040516103cf9796959493929190613a01565b60405180910390f35b6103e0610b39565b6040516103ed91906137be565b60405180910390f35b610410600480360381019061040b9190613750565b610b63565b60405161041d91906138a7565b60405180910390f35b61042e610bfe565b60405161043b9190613aa6565b60405180910390f35b61044c610c0d565b60405161045991906136f8565b60405180910390f35b61047c600480360381019061047791906138c2565b610c9f565b60405161048991906138a7565b60405180910390f35b6104ac60048036038101906104a79190613aed565b610d0b565b005b6104c860048036038101906104c39190613c62565b610d21565b005b6104e460048036038101906104df9190613d4a565b610d3e565b005b61050060048036038101906104fb9190613750565b610e04565b60405161050d91906136f8565b60405180910390f35b610530600480360381019061052b9190613e78565b610e16565b005b61054c60048036038101906105479190613ed4565b610e52565b604051610559919061364d565b60405180910390f35b61057c600480360381019061057791906138c2565b610ee6565b005b600061058982610f6c565b9050919050565b60606000805461059f90613f43565b80601f01602080910402602001604051908101604052809291908181526020018280546105cb90613f43565b80156106185780601f106105ed57610100808354040283529160200191610618565b820191906000526020600020905b8154815290600101906020018083116105fb57829003601f168201915b5050505050905090565b600061062d82610fcd565b5061063782611055565b9050919050565b610650828261064b611092565b61109a565b5050565b600073ffffffffffffffffffffffffffffffffffffffff168273ffffffffffffffffffffffffffffffffffffffff16036106c65760006040517f64a0ae920000000000000000000000000000000000000000000000000000000081526004016106bd91906137be565b60405180910390fd5b60006106da83836106d5611092565b6110ac565b90508373ffffffffffffffffffffffffffffffffffffffff168173ffffffffffffffffffffffffffffffffffffffff1614610750578382826040517f64283d7b00000000000000000000000000000000000000000000000000000000815260040161074793929190613f74565b60405180910390fd5b50505050565b600080610761610bfe565b90508065ffffffffffff1683106107b15782816040517fecd3f81e0000000000000000000000000000000000000000000000000000000081526004016107a8929190613fab565b60405180910390fd5b61080a6107bd846110c2565b600c60008773ffffffffffffffffffffffffffffffffffffffff1673ffffffffffffffffffffffffffffffffffffffff16815260200190815260200160002061111c90919063ffffffff16565b79ffffffffffffffffffffffffffffffffffffffffffffffffffff1691505092915050565b61084a83838360405180602001604052806000815250610d21565b505050565b6060610859611216565b65ffffffffffff16610869610bfe565b65ffffffffffff16146108a8576040517f6ff0714000000000000000000000000000000000000000000000000000000000815260040160405180910390fd5b6040518060400160405280601d81526020017f6d6f64653d626c6f636b6e756d6265722666726f6d3d64656661756c74000000815250905090565b6000600b60008373ffffffffffffffffffffffffffffffffffffffff1673ffffffffffffffffffffffffffffffffffffffff16815260200190815260200160002060009054906101000a900473ffffffffffffffffffffffffffffffffffffffff169050919050565b6000610956611092565b90506109628183611226565b5050565b600061097182610fcd565b9050919050565b60008073ffffffffffffffffffffffffffffffffffffffff168273ffffffffffffffffffffffffffffffffffffffff16036109eb5760006040517f89c62b640000000000000000000000000000000000000000000000000000000081526004016109e291906137be565b60405180910390fd5b600360008373ffffffffffffffffffffffffffffffffffffffff1673ffffffffffffffffffffffffffffffffffffffff168152602001908152602001600020549050919050565b610a3a61133a565b610a4460006113c1565b565b6000600a60008373ffffffffffffffffffffffffffffffffffffffff1673ffffffffffffffffffffffffffffffffffffffff168152602001908152602001600020549050919050565b600060608060008060006060610aa3611487565b610aab6114c2565b46306000801b600067ffffffffffffffff811115610acc57610acb613b37565b5b604051908082528060200260200182016040528015610afa5781602001602082028036833780820191505090505b507f0f00000000000000000000000000000000000000000000000000000000000000959493929190965096509650965096509650965090919293949596565b6000600760009054906101000a900473ffffffffffffffffffffffffffffffffffffffff16905090565b600080610b6e610bfe565b90508065ffffffffffff168310610bbe5782816040517fecd3f81e000000000000000000000000000000000000000000000000000000008152600401610bb5929190613fab565b60405180910390fd5b610bda610bca846110c2565b600d61111c90919063ffffffff16565b79ffffffffffffffffffffffffffffffffffffffffffffffffffff16915050919050565b6000610c08611216565b905090565b606060018054610c1c90613f43565b80601f0160208091040260200160405190810160405280929190818152602001828054610c4890613f43565b8015610c955780601f10610c6a57610100808354040283529160200191610c95565b820191906000526020600020905b815481529060010190602001808311610c7857829003601f168201915b5050505050905090565b6000610ce8600c60008473ffffffffffffffffffffffffffffffffffffffff1673ffffffffffffffffffffffffffffffffffffffff1681526020019081526020016000206114fd565b79ffffffffffffffffffffffffffffffffffffffffffffffffffff169050919050565b610d1d610d16611092565b8383611565565b5050565b610d2c848484610654565b610d38848484846116d4565b50505050565b83421115610d8357836040517f4683af0e000000000000000000000000000000000000000000000000000000008152600401610d7a91906138a7565b60405180910390fd5b6000610de5610ddd7fe48329057bfd03d55e49b547132e39cffd9c1820ad7b9d4c5307691425d15adf898989604051602001610dc29493929190613fd4565b6040516020818303038152906040528051906020012061188b565b8585856118a5565b9050610df181876118d5565b610dfb8188611226565b50505050505050565b6060610e0f8261192d565b9050919050565b610e1e61133a565b6000600e6000815480929190610e3390614048565b919050559050610e438382611a40565b610e4d8183611a5e565b505050565b6000600560008473ffffffffffffffffffffffffffffffffffffffff1673ffffffffffffffffffffffffffffffffffffffff16815260200190815260200160002060008373ffffffffffffffffffffffffffffffffffffffff1673ffffffffffffffffffffffffffffffffffffffff16815260200190815260200160002060009054906101000a900460ff16905092915050565b610eee61133a565b600073ffffffffffffffffffffffffffffffffffffffff168173ffffffffffffffffffffffffffffffffffffffff1603610f605760006040517f1e4fbdf7000000000000000000000000000000000000000000000000000000008152600401610f5791906137be565b60405180910390fd5b610f69816113c1565b50565b6000634906490660e01b7bffffffffffffffffffffffffffffffffffffffffffffffffffffffff1916827bffffffffffffffffffffffffffffffffffffffffffffffffffffffff19161480610fc65750610fc582611aba565b5b9050919050565b600080610fd983611b9c565b9050600073ffffffffffffffffffffffffffffffffffffffff168173ffffffffffffffffffffffffffffffffffffffff160361104c57826040517f7e27328900000000000000000000000000000000000000000000000000000000815260040161104391906138a7565b60405180910390fd5b80915050919050565b60006004600083815260200190815260200160002060009054906101000a900473ffffffffffffffffffffffffffffffffffffffff169050919050565b600033905090565b6110a78383836001611bd9565b505050565b60006110b9848484611d9e565b90509392505050565b600065ffffffffffff8016821115611114576030826040517f6dfcc65000000000000000000000000000000000000000000000000000000000815260040161110b9291906140d5565b60405180910390fd5b819050919050565b6000808360000180549050905060008082905060058311156111a457600061114384611dc5565b8461114e91906140fe565b905061115d8760000182611ebe565b60000160009054906101000a900465ffffffffffff1665ffffffffffff168665ffffffffffff161015611192578091506111a2565b60018161119f9190614132565b92505b505b60006111b587600001878585611ed3565b905060008114611207576111d8876000016001836111d391906140fe565b611ebe565b60000160069054906101000a900479ffffffffffffffffffffffffffffffffffffffffffffffffffff1661120a565b60005b94505050505092915050565b6000611221436110c2565b905090565b6000611231836108e3565b905081600b60008573ffffffffffffffffffffffffffffffffffffffff1673ffffffffffffffffffffffffffffffffffffffff16815260200190815260200160002060006101000a81548173ffffffffffffffffffffffffffffffffffffffff021916908373ffffffffffffffffffffffffffffffffffffffff1602179055508173ffffffffffffffffffffffffffffffffffffffff168173ffffffffffffffffffffffffffffffffffffffff168473ffffffffffffffffffffffffffffffffffffffff167f3134e8a2e6d97e929a7e54011ea5485d7d196dd5f0ba4d4ef95803e8e3fc257f60405160405180910390a4611335818361133086611f4c565b611f5e565b505050565b611342611092565b73ffffffffffffffffffffffffffffffffffffffff16611360610b39565b73ffffffffffffffffffffffffffffffffffffffff16146113bf57611383611092565b6040517f118cdaa70000000000000000000000000000000000000000000000000000000081526004016113b691906137be565b60405180910390fd5b565b6000600760009054906101000a900473ffffffffffffffffffffffffffffffffffffffff16905081600760006101000a81548173ffffffffffffffffffffffffffffffffffffffff021916908373ffffffffffffffffffffffffffffffffffffffff1602179055508173ffffffffffffffffffffffffffffffffffffffff168173ffffffffffffffffffffffffffffffffffffffff167f8be0079c531659141344cd1fd0a4f28419497f9722a3daafe3b4186f6b6457e060405160405180910390a35050565b60606114bd60087f00000000000000000000000000000000000000000000000000000000000000006121d790919063ffffffff16565b905090565b60606114f860097f00000000000000000000000000000000000000000000000000000000000000006121d790919063ffffffff16565b905090565b600080826000018054905090506000811461155a5761152b8360000160018361152691906140fe565b611ebe565b60000160069054906101000a900479ffffffffffffffffffffffffffffffffffffffffffffffffffff1661155d565b60005b915050919050565b600073ffffffffffffffffffffffffffffffffffffffff168273ffffffffffffffffffffffffffffffffffffffff16036115d657816040517f5b08ba180000000000000000000000000000000000000000000000000000000081526004016115cd91906137be565b60405180910390fd5b80600560008573ffffffffffffffffffffffffffffffffffffffff1673ffffffffffffffffffffffffffffffffffffffff16815260200190815260200160002060008473ffffffffffffffffffffffffffffffffffffffff1673ffffffffffffffffffffffffffffffffffffffff16815260200190815260200160002060006101000a81548160ff0219169083151502179055508173ffffffffffffffffffffffffffffffffffffffff168373ffffffffffffffffffffffffffffffffffffffff167f17307eab39ab6107e8899845ad3d59bd9653f200f220920489ca2b5937696c31836040516116c7919061364d565b60405180910390a3505050565b60008373ffffffffffffffffffffffffffffffffffffffff163b1115611885578273ffffffffffffffffffffffffffffffffffffffff1663150b7a02611718611092565b8685856040518563ffffffff1660e01b815260040161173a94939291906141bb565b6020604051808303816000875af192505050801561177657506040513d601f19601f82011682018060405250810190611773919061421c565b60015b6117fa573d80600081146117a6576040519150601f19603f3d011682016040523d82523d6000602084013e6117ab565b606091505b5060008151036117f257836040517f64a0ae920000000000000000000000000000000000000000000000000000000081526004016117e991906137be565b60405180910390fd5b805181602001fd5b63150b7a0260e01b7bffffffffffffffffffffffffffffffffffffffffffffffffffffffff1916817bffffffffffffffffffffffffffffffffffffffffffffffffffffffff19161461188357836040517f64a0ae9200000000000000000000000000000000000000000000000000000000815260040161187a91906137be565b60405180910390fd5b505b50505050565b600061189e611898612287565b8361233e565b9050919050565b6000806000806118b78888888861237f565b9250925092506118c78282612473565b829350505050949350505050565b60006118e0836125d7565b90508082146119285782816040517f752d88c000000000000000000000000000000000000000000000000000000000815260040161191f929190614249565b60405180910390fd5b505050565b606061193882610fcd565b50600060066000848152602001908152602001600020805461195990613f43565b80601f016020809104026020016040519081016040528092919081815260200182805461198590613f43565b80156119d25780601f106119a7576101008083540402835291602001916119d2565b820191906000526020600020905b8154815290600101906020018083116119b557829003601f168201915b5050505050905060006119e361262e565b905060008151036119f8578192505050611a3b565b600082511115611a2d578082604051602001611a159291906142ae565b60405160208183030381529060405292505050611a3b565b611a3684612645565b925050505b919050565b611a5a8282604051806020016040528060008152506126ae565b5050565b80600660008481526020019081526020016000209081611a7e9190614474565b507ff8e1a15aba9398e019f0b49df1a4fde98ee17ae345cb5f6b5e2c27f5033e8ce782604051611aae91906138a7565b60405180910390a15050565b60007f80ac58cd000000000000000000000000000000000000000000000000000000007bffffffffffffffffffffffffffffffffffffffffffffffffffffffff1916827bffffffffffffffffffffffffffffffffffffffffffffffffffffffff19161480611b8557507f5b5e139f000000000000000000000000000000000000000000000000000000007bffffffffffffffffffffffffffffffffffffffffffffffffffffffff1916827bffffffffffffffffffffffffffffffffffffffffffffffffffffffff1916145b80611b955750611b94826126ca565b5b9050919050565b60006002600083815260200190815260200160002060009054906101000a900473ffffffffffffffffffffffffffffffffffffffff169050919050565b8080611c125750600073ffffffffffffffffffffffffffffffffffffffff168273ffffffffffffffffffffffffffffffffffffffff1614155b15611d46576000611c2284610fcd565b9050600073ffffffffffffffffffffffffffffffffffffffff168373ffffffffffffffffffffffffffffffffffffffff1614158015611c8d57508273ffffffffffffffffffffffffffffffffffffffff168173ffffffffffffffffffffffffffffffffffffffff1614155b8015611ca05750611c9e8184610e52565b155b15611ce257826040517fa9fbf51f000000000000000000000000000000000000000000000000000000008152600401611cd991906137be565b60405180910390fd5b8115611d4457838573ffffffffffffffffffffffffffffffffffffffff168273ffffffffffffffffffffffffffffffffffffffff167f8c5be1e5ebec7d5bd14f71427d1e84f3dd0314c0f7b2291e5b200ac8c7c3b92560405160405180910390a45b505b836004600085815260200190815260200160002060006101000a81548173ffffffffffffffffffffffffffffffffffffffff021916908373ffffffffffffffffffffffffffffffffffffffff16021790555050505050565b600080611dac858585612734565b9050611dba8186600161294e565b809150509392505050565b6000808203611dd75760009050611eb9565b60006001611de484612a08565b901c6001901b90506001818481611dfe57611dfd614546565b5b048201901c90506001818481611e1757611e16614546565b5b048201901c90506001818481611e3057611e2f614546565b5b048201901c90506001818481611e4957611e48614546565b5b048201901c90506001818481611e6257611e61614546565b5b048201901c90506001818481611e7b57611e7a614546565b5b048201901c90506001818481611e9457611e93614546565b5b048201901c9050611eb581828581611eaf57611eae614546565b5b04612ae9565b9150505b919050565b60008260005281602060002001905092915050565b60005b81831015611f41576000611eea8484612b02565b90508465ffffffffffff16611eff8783611ebe565b60000160009054906101000a900465ffffffffffff1665ffffffffffff161115611f2b57809250611f3b565b600181611f389190614132565b93505b50611ed6565b819050949350505050565b6000611f5782610978565b9050919050565b8173ffffffffffffffffffffffffffffffffffffffff168373ffffffffffffffffffffffffffffffffffffffff1614158015611f9a5750600081115b156121d257600073ffffffffffffffffffffffffffffffffffffffff168373ffffffffffffffffffffffffffffffffffffffff16146120b857600080612029600c60008773ffffffffffffffffffffffffffffffffffffffff1673ffffffffffffffffffffffffffffffffffffffff168152602001908152602001600020612b2861202486612b3e565b612bac565b79ffffffffffffffffffffffffffffffffffffffffffffffffffff16915079ffffffffffffffffffffffffffffffffffffffffffffffffffff1691508473ffffffffffffffffffffffffffffffffffffffff167fdec2bacdd2f05b59de34da9b523dff8be42e5e38e818c82fdb0bae774387a72483836040516120ad929190614575565b60405180910390a250505b600073ffffffffffffffffffffffffffffffffffffffff168273ffffffffffffffffffffffffffffffffffffffff16146121d157600080612142600c60008673ffffffffffffffffffffffffffffffffffffffff1673ffffffffffffffffffffffffffffffffffffffff168152602001908152602001600020612bec61213d86612b3e565b612bac565b79ffffffffffffffffffffffffffffffffffffffffffffffffffff16915079ffffffffffffffffffffffffffffffffffffffffffffffffffff1691508373ffffffffffffffffffffffffffffffffffffffff167fdec2bacdd2f05b59de34da9b523dff8be42e5e38e818c82fdb0bae774387a72483836040516121c6929190614575565b60405180910390a250505b5b505050565b606060ff60001b83146121f4576121ed83612c02565b9050612281565b81805461220090613f43565b80601f016020809104026020016040519081016040528092919081815260200182805461222c90613f43565b80156122795780601f1061224e57610100808354040283529160200191612279565b820191906000526020600020905b81548152906001019060200180831161225c57829003601f168201915b505050505090505b92915050565b60007f000000000000000000000000000000000000000000000000000000000000000073ffffffffffffffffffffffffffffffffffffffff163073ffffffffffffffffffffffffffffffffffffffff1614801561230357507f000000000000000000000000000000000000000000000000000000000000000046145b15612330577f0000000000000000000000000000000000000000000000000000000000000000905061233b565b612338612c76565b90505b90565b60006040517f190100000000000000000000000000000000000000000000000000000000000081528360028201528260228201526042812091505092915050565b60008060007f7fffffffffffffffffffffffffffffff5d576e7357a4501ddfe92f46681b20a08460001c11156123bf576000600385925092509250612469565b6000600188888888604051600081526020016040526040516123e494939291906145ad565b6020604051602081039080840390855afa158015612406573d6000803e3d6000fd5b505050602060405103519050600073ffffffffffffffffffffffffffffffffffffffff168173ffffffffffffffffffffffffffffffffffffffff160361245a57600060016000801b93509350935050612469565b8060008060001b935093509350505b9450945094915050565b60006003811115612487576124866145f2565b5b82600381111561249a576124996145f2565b5b03156125d357600160038111156124b4576124b36145f2565b5b8260038111156124c7576124c66145f2565b5b036124fe576040517ff645eedf00000000000000000000000000000000000000000000000000000000815260040160405180910390fd5b60026003811115612512576125116145f2565b5b826003811115612525576125246145f2565b5b0361256a578060001c6040517ffce698f700000000000000000000000000000000000000000000000000000000815260040161256191906138a7565b60405180910390fd5b60038081111561257d5761257c6145f2565b5b8260038111156125905761258f6145f2565b5b036125d257806040517fd78bce0c0000000000000000000000000000000000000000000000000000000081526004016125c99190614621565b60405180910390fd5b5b5050565b6000600a60008373ffffffffffffffffffffffffffffffffffffffff1673ffffffffffffffffffffffffffffffffffffffff1681526020019081526020016000206000815480929190600101919050559050919050565b606060405180602001604052806000815250905090565b606061265082610fcd565b50600061265b61262e565b9050600081511161267b57604051806020016040528060008152506126a6565b8061268584612d0c565b6040516020016126969291906142ae565b6040516020818303038152906040525b915050919050565b6126b88383612dda565b6126c560008484846116d4565b505050565b60007f01ffc9a7000000000000000000000000000000000000000000000000000000007bffffffffffffffffffffffffffffffffffffffffffffffffffffffff1916827bffffffffffffffffffffffffffffffffffffffffffffffffffffffff1916149050919050565b60008061274084611b9c565b9050600073ffffffffffffffffffffffffffffffffffffffff168373ffffffffffffffffffffffffffffffffffffffff161461278257612781818486612ed3565b5b600073ffffffffffffffffffffffffffffffffffffffff168173ffffffffffffffffffffffffffffffffffffffff1614612813576127c4600085600080611bd9565b6001600360008373ffffffffffffffffffffffffffffffffffffffff1673ffffffffffffffffffffffffffffffffffffffff168152602001908152602001600020600082825403925050819055505b600073ffffffffffffffffffffffffffffffffffffffff168573ffffffffffffffffffffffffffffffffffffffff1614612896576001600360008773ffffffffffffffffffffffffffffffffffffffff1673ffffffffffffffffffffffffffffffffffffffff168152602001908152602001600020600082825401925050819055505b846002600086815260200190815260200160002060006101000a81548173ffffffffffffffffffffffffffffffffffffffff021916908373ffffffffffffffffffffffffffffffffffffffff160217905550838573ffffffffffffffffffffffffffffffffffffffff168273ffffffffffffffffffffffffffffffffffffffff167fddf252ad1be2c89b69c2b068fc378daa952ba7f163c4a11628f55a4df523b3ef60405160405180910390a4809150509392505050565b600073ffffffffffffffffffffffffffffffffffffffff168373ffffffffffffffffffffffffffffffffffffffff160361299b57612998600d612bec61299384612b3e565b612bac565b50505b600073ffffffffffffffffffffffffffffffffffffffff168273ffffffffffffffffffffffffffffffffffffffff16036129e8576129e5600d612b286129e084612b3e565b612bac565b50505b612a036129f4846108e3565b6129fd846108e3565b83611f5e565b505050565b600080600090506000608084901c1115612a2a57608083901c92506080810190505b6000604084901c1115612a4557604083901c92506040810190505b6000602084901c1115612a6057602083901c92506020810190505b6000601084901c1115612a7b57601083901c92506010810190505b6000600884901c1115612a9657600883901c92506008810190505b6000600484901c1115612ab157600483901c92506004810190505b6000600284901c1115612acc57600283901c92506002810190505b6000600184901c1115612ae0576001810190505b80915050919050565b6000818310612af85781612afa565b825b905092915050565b60006002828418612b13919061463c565b828416612b209190614132565b905092915050565b60008183612b369190614693565b905092915050565b600079ffffffffffffffffffffffffffffffffffffffffffffffffffff8016821115612ba45760d0826040517f6dfcc650000000000000000000000000000000000000000000000000000000008152600401612b9b92919061471c565b60405180910390fd5b819050919050565b600080612be0612bba610bfe565b612bd0612bc6886114fd565b868863ffffffff16565b87612f979092919063ffffffff16565b91509150935093915050565b60008183612bfa9190614745565b905092915050565b60606000612c0f83612fb4565b90506000602067ffffffffffffffff811115612c2e57612c2d613b37565b5b6040519080825280601f01601f191660200182016040528015612c605781602001600182028036833780820191505090505b5090508181528360208201528092505050919050565b60007f8b73c3c69bb8fe3d512ecc4cf759cc79239f7b179b0ffacaa9a75d522b39400f7f00000000000000000000000000000000000000000000000000000000000000007f00000000000000000000000000000000000000000000000000000000000000004630604051602001612cf1959493929190614793565b60405160208183030381529060405280519060200120905090565b606060006001612d1b84613004565b01905060008167ffffffffffffffff811115612d3a57612d39613b37565b5b6040519080825280601f01601f191660200182016040528015612d6c5781602001600182028036833780820191505090505b509050600082602001820190505b600115612dcf578080600190039150507f3031323334353637383961626364656600000000000000000000000000000000600a86061a8153600a8581612dc357612dc2614546565b5b04945060008503612d7a575b819350505050919050565b600073ffffffffffffffffffffffffffffffffffffffff168273ffffffffffffffffffffffffffffffffffffffff1603612e4c5760006040517f64a0ae92000000000000000000000000000000000000000000000000000000008152600401612e4391906137be565b60405180910390fd5b6000612e5a838360006110ac565b9050600073ffffffffffffffffffffffffffffffffffffffff168173ffffffffffffffffffffffffffffffffffffffff1614612ece5760006040517f73c6ac6e000000000000000000000000000000000000000000000000000000008152600401612ec591906137be565b60405180910390fd5b505050565b612ede838383613157565b612f9257600073ffffffffffffffffffffffffffffffffffffffff168373ffffffffffffffffffffffffffffffffffffffff1603612f5357806040517f7e273289000000000000000000000000000000000000000000000000000000008152600401612f4a91906138a7565b60405180910390fd5b81816040517f177e802f000000000000000000000000000000000000000000000000000000008152600401612f89929190614249565b60405180910390fd5b505050565b600080612fa8856000018585613218565b91509150935093915050565b60008060ff8360001c169050601f811115612ffb576040517fb3512b0c00000000000000000000000000000000000000000000000000000000815260040160405180910390fd5b80915050919050565b600080600090507a184f03e93ff9f4daa797ed6e38ed64bf6a1f0100000000000000008310613062577a184f03e93ff9f4daa797ed6e38ed64bf6a1f010000000000000000838161305857613057614546565b5b0492506040810190505b6d04ee2d6d415b85acef8100000000831061309f576d04ee2d6d415b85acef8100000000838161309557613094614546565b5b0492506020810190505b662386f26fc1000083106130ce57662386f26fc1000083816130c4576130c3614546565b5b0492506010810190505b6305f5e10083106130f7576305f5e10083816130ed576130ec614546565b5b0492506008810190505b612710831061311c57612710838161311257613111614546565b5b0492506004810190505b6064831061313f576064838161313557613134614546565b5b0492506002810190505b600a831061314e576001810190505b80915050919050565b60008073ffffffffffffffffffffffffffffffffffffffff168373ffffffffffffffffffffffffffffffffffffffff161415801561320f57508273ffffffffffffffffffffffffffffffffffffffff168473ffffffffffffffffffffffffffffffffffffffff1614806131d057506131cf8484610e52565b5b8061320e57508273ffffffffffffffffffffffffffffffffffffffff166131f683611055565b73ffffffffffffffffffffffffffffffffffffffff16145b5b90509392505050565b60008060008580549050905060008111156134a95760006132458760018461324091906140fe565b611ebe565b6040518060400160405290816000820160009054906101000a900465ffffffffffff1665ffffffffffff1665ffffffffffff1681526020016000820160069054906101000a900479ffffffffffffffffffffffffffffffffffffffffffffffffffff1679ffffffffffffffffffffffffffffffffffffffffffffffffffff1679ffffffffffffffffffffffffffffffffffffffffffffffffffff168152505090508565ffffffffffff16816000015165ffffffffffff161115613334576040517f2520601d00000000000000000000000000000000000000000000000000000000815260040160405180910390fd5b8565ffffffffffff16816000015165ffffffffffff16036133b857846133668860018561336191906140fe565b611ebe565b60000160066101000a81548179ffffffffffffffffffffffffffffffffffffffffffffffffffff021916908379ffffffffffffffffffffffffffffffffffffffffffffffffffff160217905550613498565b8660405180604001604052808865ffffffffffff1681526020018779ffffffffffffffffffffffffffffffffffffffffffffffffffff168152509080600181540180825580915050600190039060005260206000200160009091909190915060008201518160000160006101000a81548165ffffffffffff021916908365ffffffffffff16021790555060208201518160000160066101000a81548179ffffffffffffffffffffffffffffffffffffffffffffffffffff021916908379ffffffffffffffffffffffffffffffffffffffffffffffffffff16021790555050505b806020015185935093505050613591565b8560405180604001604052808765ffffffffffff1681526020018679ffffffffffffffffffffffffffffffffffffffffffffffffffff168152509080600181540180825580915050600190039060005260206000200160009091909190915060008201518160000160006101000a81548165ffffffffffff021916908365ffffffffffff16021790555060208201518160000160066101000a81548179ffffffffffffffffffffffffffffffffffffffffffffffffffff021916908379ffffffffffffffffffffffffffffffffffffffffffffffffffff160217905550505060008492509250505b935093915050565b6000604051905090565b600080fd5b600080fd5b60007fffffffff0000000000000000000000000000000000000000000000000000000082169050919050565b6135e2816135ad565b81146135ed57600080fd5b50565b6000813590506135ff816135d9565b92915050565b60006020828403121561361b5761361a6135a3565b5b6000613629848285016135f0565b91505092915050565b60008115159050919050565b61364781613632565b82525050565b6000602082019050613662600083018461363e565b92915050565b600081519050919050565b600082825260208201905092915050565b60005b838110156136a2578082015181840152602081019050613687565b60008484015250505050565b6000601f19601f8301169050919050565b60006136ca82613668565b6136d48185613673565b93506136e4818560208601613684565b6136ed816136ae565b840191505092915050565b6000602082019050818103600083015261371281846136bf565b905092915050565b6000819050919050565b61372d8161371a565b811461373857600080fd5b50565b60008135905061374a81613724565b92915050565b600060208284031215613766576137656135a3565b5b60006137748482850161373b565b91505092915050565b600073ffffffffffffffffffffffffffffffffffffffff82169050919050565b60006137a88261377d565b9050919050565b6137b88161379d565b82525050565b60006020820190506137d360008301846137af565b92915050565b6137e28161379d565b81146137ed57600080fd5b50565b6000813590506137ff816137d9565b92915050565b6000806040838503121561381c5761381b6135a3565b5b600061382a858286016137f0565b925050602061383b8582860161373b565b9150509250929050565b60008060006060848603121561385e5761385d6135a3565b5b600061386c868287016137f0565b935050602061387d868287016137f0565b925050604061388e8682870161373b565b9150509250925092565b6138a18161371a565b82525050565b60006020820190506138bc6000830184613898565b92915050565b6000602082840312156138d8576138d76135a3565b5b60006138e6848285016137f0565b91505092915050565b60007fff0000000000000000000000000000000000000000000000000000000000000082169050919050565b613924816138ef565b82525050565b6000819050919050565b61393d8161392a565b82525050565b600081519050919050565b600082825260208201905092915050565b6000819050602082019050919050565b6139788161371a565b82525050565b600061398a838361396f565b60208301905092915050565b6000602082019050919050565b60006139ae82613943565b6139b8818561394e565b93506139c38361395f565b8060005b838110156139f45781516139db888261397e565b97506139e683613996565b9250506001810190506139c7565b5085935050505092915050565b600060e082019050613a16600083018a61391b565b8181036020830152613a2881896136bf565b90508181036040830152613a3c81886136bf565b9050613a4b6060830187613898565b613a5860808301866137af565b613a6560a0830185613934565b81810360c0830152613a7781846139a3565b905098975050505050505050565b600065ffffffffffff82169050919050565b613aa081613a85565b82525050565b6000602082019050613abb6000830184613a97565b92915050565b613aca81613632565b8114613ad557600080fd5b50565b600081359050613ae781613ac1565b92915050565b60008060408385031215613b0457613b036135a3565b5b6000613b12858286016137f0565b9250506020613b2385828601613ad8565b9150509250929050565b600080fd5b600080fd5b7f4e487b7100000000000000000000000000000000000000000000000000000000600052604160045260246000fd5b613b6f826136ae565b810181811067ffffffffffffffff82111715613b8e57613b8d613b37565b5b80604052505050565b6000613ba1613599565b9050613bad8282613b66565b919050565b600067ffffffffffffffff821115613bcd57613bcc613b37565b5b613bd6826136ae565b9050602081019050919050565b82818337600083830152505050565b6000613c05613c0084613bb2565b613b97565b905082815260208101848484011115613c2157613c20613b32565b5b613c2c848285613be3565b509392505050565b600082601f830112613c4957613c48613b2d565b5b8135613c59848260208601613bf2565b91505092915050565b60008060008060808587031215613c7c57613c7b6135a3565b5b6000613c8a878288016137f0565b9450506020613c9b878288016137f0565b9350506040613cac8782880161373b565b925050606085013567ffffffffffffffff811115613ccd57613ccc6135a8565b5b613cd987828801613c34565b91505092959194509250565b600060ff82169050919050565b613cfb81613ce5565b8114613d0657600080fd5b50565b600081359050613d1881613cf2565b92915050565b613d278161392a565b8114613d3257600080fd5b50565b600081359050613d4481613d1e565b92915050565b60008060008060008060c08789031215613d6757613d666135a3565b5b6000613d7589828a016137f0565b9650506020613d8689828a0161373b565b9550506040613d9789828a0161373b565b9450506060613da889828a01613d09565b9350506080613db989828a01613d35565b92505060a0613dca89828a01613d35565b9150509295509295509295565b600067ffffffffffffffff821115613df257613df1613b37565b5b613dfb826136ae565b9050602081019050919050565b6000613e1b613e1684613dd7565b613b97565b905082815260208101848484011115613e3757613e36613b32565b5b613e42848285613be3565b509392505050565b600082601f830112613e5f57613e5e613b2d565b5b8135613e6f848260208601613e08565b91505092915050565b60008060408385031215613e8f57613e8e6135a3565b5b6000613e9d858286016137f0565b925050602083013567ffffffffffffffff811115613ebe57613ebd6135a8565b5b613eca85828601613e4a565b9150509250929050565b60008060408385031215613eeb57613eea6135a3565b5b6000613ef9858286016137f0565b9250506020613f0a858286016137f0565b9150509250929050565b7f4e487b7100000000000000000000000000000000000000000000000000000000600052602260045260246000fd5b60006002820490506001821680613f5b57607f821691505b602082108103613f6e57613f6d613f14565b5b50919050565b6000606082019050613f8960008301866137af565b613f966020830185613898565b613fa360408301846137af565b949350505050565b6000604082019050613fc06000830185613898565b613fcd6020830184613a97565b9392505050565b6000608082019050613fe96000830187613934565b613ff660208301866137af565b6140036040830185613898565b6140106060830184613898565b95945050505050565b7f4e487b7100000000000000000000000000000000000000000000000000000000600052601160045260246000fd5b60006140538261371a565b91507fffffffffffffffffffffffffffffffffffffffffffffffffffffffffffffffff820361408557614084614019565b5b600182019050919050565b6000819050919050565b6000819050919050565b60006140bf6140ba6140b584614090565b61409a565b613ce5565b9050919050565b6140cf816140a4565b82525050565b60006040820190506140ea60008301856140c6565b6140f76020830184613898565b9392505050565b60006141098261371a565b91506141148361371a565b925082820390508181111561412c5761412b614019565b5b92915050565b600061413d8261371a565b91506141488361371a565b92508282019050808211156141605761415f614019565b5b92915050565b600081519050919050565b600082825260208201905092915050565b600061418d82614166565b6141978185614171565b93506141a7818560208601613684565b6141b0816136ae565b840191505092915050565b60006080820190506141d060008301876137af565b6141dd60208301866137af565b6141ea6040830185613898565b81810360608301526141fc8184614182565b905095945050505050565b600081519050614216816135d9565b92915050565b600060208284031215614232576142316135a3565b5b600061424084828501614207565b91505092915050565b600060408201905061425e60008301856137af565b61426b6020830184613898565b9392505050565b600081905092915050565b600061428882613668565b6142928185614272565b93506142a2818560208601613684565b80840191505092915050565b60006142ba828561427d565b91506142c6828461427d565b91508190509392505050565b60008190508160005260206000209050919050565b60006020601f8301049050919050565b600082821b905092915050565b6000600883026143347fffffffffffffffffffffffffffffffffffffffffffffffffffffffffffffffff826142f7565b61433e86836142f7565b95508019841693508086168417925050509392505050565b600061437161436c6143678461371a565b61409a565b61371a565b9050919050565b6000819050919050565b61438b83614356565b61439f61439782614378565b848454614304565b825550505050565b600090565b6143b46143a7565b6143bf818484614382565b505050565b5b818110156143e3576143d86000826143ac565b6001810190506143c5565b5050565b601f821115614428576143f9816142d2565b614402846142e7565b81016020851015614411578190505b61442561441d856142e7565b8301826143c4565b50505b505050565b600082821c905092915050565b600061444b6000198460080261442d565b1980831691505092915050565b6000614464838361443a565b9150826002028217905092915050565b61447d82613668565b67ffffffffffffffff81111561449657614495613b37565b5b6144a08254613f43565b6144ab8282856143e7565b600060209050601f8311600181146144de57600084156144cc578287015190505b6144d68582614458565b86555061453e565b601f1984166144ec866142d2565b60005b82811015614514578489015182556001820191506020850194506020810190506144ef565b86831015614531578489015161452d601f89168261443a565b8355505b6001600288020188555050505b505050505050565b7f4e487b7100000000000000000000000000000000000000000000000000000000600052601260045260246000fd5b600060408201905061458a6000830185613898565b6145976020830184613898565b9392505050565b6145a781613ce5565b82525050565b60006080820190506145c26000830187613934565b6145cf602083018661459e565b6145dc6040830185613934565b6145e96060830184613934565b95945050505050565b7f4e487b7100000000000000000000000000000000000000000000000000000000600052602160045260246000fd5b60006020820190506146366000830184613934565b92915050565b60006146478261371a565b91506146528361371a565b92508261466257614661614546565b5b828204905092915050565b600079ffffffffffffffffffffffffffffffffffffffffffffffffffff82169050919050565b600061469e8261466d565b91506146a98361466d565b9250828203905079ffffffffffffffffffffffffffffffffffffffffffffffffffff8111156146db576146da614019565b5b92915050565b6000819050919050565b60006147066147016146fc846146e1565b61409a565b613ce5565b9050919050565b614716816146eb565b82525050565b6000604082019050614731600083018561470d565b61473e6020830184613898565b9392505050565b60006147508261466d565b915061475b8361466d565b9250828201905079ffffffffffffffffffffffffffffffffffffffffffffffffffff81111561478d5761478c614019565b5b92915050565b600060a0820190506147a86000830188613934565b6147b56020830187613934565b6147c26040830186613934565b6147cf6060830185613898565b6147dc60808301846137af565b969550505050505056fea2646970667358221220e8cc07806f272a3af8cf3c5f084a23c9353d9e04f41c54c26c3ff4e5c7fb16b864736f6c63430008140033",
  "linkReferences": {},
  "deployedLinkReferences": {}
}