{
  "address": "0xcD4DCb0A451c7b2D0D456FA49E02367578E27cA4",
  "abi": [
    {
      "inputs": [
        {
          "internalType": "address",
          "name": "router",
          "type": "address"
        }
      ],
      "stateMutability": "nonpayable",
      "type": "constructor"
    },
    {
      "inputs": [],
      "name": "EmptyArgs",
      "type": "error"
    },
    {
      "inputs": [],
      "name": "EmptySource",
      "type": "error"
    },
    {
      "inputs": [],
      "name": "NoInlineSecrets",
      "type": "error"
    },
    {
      "inputs": [],
      "name": "OnlyRouterCanFulfill",
      "type": "error"
    },
    {
      "inputs": [
        {
          "internalType": "bytes32",
          "name": "requestId",
          "type": "bytes32"
        }
      ],
      "name": "UnexpectedRequestID",
      "type": "error"
    },
    {
      "anonymous": false,
      "inputs": [
        {
          "indexed": false,
          "internalType": "address",
          "name": "Creater",
          "type": "address"
        },
        {
          "indexed": false,
          "internalType": "bytes32",
          "name": "dataHash",
          "type": "bytes32"
        },
        {
          "indexed": false,
          "internalType": "uint256",
          "name": "dataPrice",
          "type": "uint256"
        },
        {
          "indexed": false,
          "internalType": "uint256",
          "name": "dataId",
          "type": "uint256"
        },
        {
          "indexed": false,
          "internalType": "string",
          "name": "dataDescribe",
          "type": "string"
        }
      ],
      "name": "CreaterCreated",
      "type": "event"
    },
    {
      "anonymous": false,
      "inputs": [
        {
          "indexed": false,
          "internalType": "uint256",
          "name": "dataId",
          "type": "uint256"
        },
        {
          "indexed": false,
          "internalType": "bytes32",
          "name": "dataHash",
          "type": "bytes32"
        }
      ],
      "name": "DataHashGenerated",
      "type": "event"
    },
    {
      "anonymous": false,
      "inputs": [
        {
          "indexed": true,
          "internalType": "address",
          "name": "from",
          "type": "address"
        },
        {
          "indexed": true,
          "internalType": "address",
          "name": "to",
          "type": "address"
        }
      ],
      "name": "OwnershipTransferRequested",
      "type": "event"
    },
    {
      "anonymous": false,
      "inputs": [
        {
          "indexed": true,
          "internalType": "address",
          "name": "from",
          "type": "address"
        },
        {
          "indexed": true,
          "internalType": "address",
          "name": "to",
          "type": "address"
        }
      ],
      "name": "OwnershipTransferred",
      "type": "event"
    },
    {
      "anonymous": false,
      "inputs": [
        {
          "indexed": true,
          "internalType": "bytes32",
          "name": "id",
          "type": "bytes32"
        }
      ],
      "name": "RequestFulfilled",
      "type": "event"
    },
    {
      "anonymous": false,
      "inputs": [
        {
          "indexed": true,
          "internalType": "bytes32",
          "name": "id",
          "type": "bytes32"
        }
      ],
      "name": "RequestSent",
      "type": "event"
    },
    {
      "anonymous": false,
      "inputs": [
        {
          "indexed": true,
          "internalType": "bytes32",
          "name": "requestId",
          "type": "bytes32"
        },
        {
          "indexed": false,
          "internalType": "bytes",
          "name": "response",
          "type": "bytes"
        },
        {
          "indexed": false,
          "internalType": "bytes",
          "name": "err",
          "type": "bytes"
        },
        {
          "indexed": false,
          "internalType": "uint256",
          "name": "dataId",
          "type": "uint256"
        }
      ],
      "name": "Response",
      "type": "event"
    },
    {
      "anonymous": false,
      "inputs": [
        {
          "indexed": false,
          "internalType": "address",
          "name": "User",
          "type": "address"
        },
        {
          "indexed": false,
          "internalType": "uint256",
          "name": "dataPrice",
          "type": "uint256"
        },
        {
          "indexed": false,
          "internalType": "uint256",
          "name": "selectId",
          "type": "uint256"
        }
      ],
      "name": "UserCreated",
      "type": "event"
    },
    {
      "inputs": [
        {
          "internalType": "bytes32",
          "name": "dataHash",
          "type": "bytes32"
        },
        {
          "internalType": "uint256",
          "name": "price",
          "type": "uint256"
        },
        {
          "internalType": "string",
          "name": "descriptor",
          "type": "string"
        }
      ],
      "name": "CreateData",
      "outputs": [],
      "stateMutability": "nonpayable",
      "type": "function"
    },
    {
      "inputs": [
        {
          "internalType": "uint256",
          "name": "selectId",
          "type": "uint256"
        }
      ],
      "name": "CreateUser",
      "outputs": [],
      "stateMutability": "payable",
      "type": "function"
    },
    {
      "inputs": [
        {
          "internalType": "uint256",
          "name": "",
          "type": "uint256"
        }
      ],
      "name": "DataIdToDataHash",
      "outputs": [
        {
          "internalType": "bytes",
          "name": "",
          "type": "bytes"
        }
      ],
      "stateMutability": "view",
      "type": "function"
    },
    {
      "inputs": [
        {
          "internalType": "uint256",
          "name": "dataId",
          "type": "uint256"
        }
      ],
      "name": "GetDataDescribe",
      "outputs": [
        {
          "internalType": "string",
          "name": "",
          "type": "string"
        }
      ],
      "stateMutability": "view",
      "type": "function"
    },
    {
      "inputs": [],
      "name": "GetDataLength",
      "outputs": [
        {
          "internalType": "uint256",
          "name": "",
          "type": "uint256"
        }
      ],
      "stateMutability": "view",
      "type": "function"
    },
    {
      "inputs": [
        {
          "internalType": "uint256",
          "name": "dataId",
          "type": "uint256"
        }
      ],
      "name": "GetDataPrice",
      "outputs": [
        {
          "internalType": "uint256",
          "name": "",
          "type": "uint256"
        }
      ],
      "stateMutability": "view",
      "type": "function"
    },
    {
      "inputs": [
        {
          "internalType": "uint256",
          "name": "dataId",
          "type": "uint256"
        }
      ],
      "name": "GetDataUser",
      "outputs": [
        {
          "internalType": "address[]",
          "name": "",
          "type": "address[]"
        }
      ],
      "stateMutability": "view",
      "type": "function"
    },
    {
      "inputs": [],
      "name": "acceptOwnership",
      "outputs": [],
      "stateMutability": "nonpayable",
      "type": "function"
    },
    {
      "inputs": [
        {
          "internalType": "bytes32",
          "name": "requestId",
          "type": "bytes32"
        },
        {
          "internalType": "bytes",
          "name": "response",
          "type": "bytes"
        },
        {
          "internalType": "bytes",
          "name": "err",
          "type": "bytes"
        }
      ],
      "name": "handleOracleFulfillment",
      "outputs": [],
      "stateMutability": "nonpayable",
      "type": "function"
    },
    {
      "inputs": [],
      "name": "owner",
      "outputs": [
        {
          "internalType": "address",
          "name": "",
          "type": "address"
        }
      ],
      "stateMutability": "view",
      "type": "function"
    },
    {
      "inputs": [],
      "name": "s_lastError",
      "outputs": [
        {
          "internalType": "bytes",
          "name": "",
          "type": "bytes"
        }
      ],
      "stateMutability": "view",
      "type": "function"
    },
    {
      "inputs": [],
      "name": "s_lastRequestId",
      "outputs": [
        {
          "internalType": "bytes32",
          "name": "",
          "type": "bytes32"
        }
      ],
      "stateMutability": "view",
      "type": "function"
    },
    {
      "inputs": [],
      "name": "s_lastResponse",
      "outputs": [
        {
          "internalType": "bytes",
          "name": "",
          "type": "bytes"
        }
      ],
      "stateMutability": "view",
      "type": "function"
    },
    {
      "inputs": [
        {
          "internalType": "string",
          "name": "source",
          "type": "string"
        },
        {
          "internalType": "bytes",
          "name": "encryptedSecretsUrls",
          "type": "bytes"
        },
        {
          "internalType": "uint8",
          "name": "donHostedSecretsSlotID",
          "type": "uint8"
        },
        {
          "internalType": "uint64",
          "name": "donHostedSecretsVersion",
          "type": "uint64"
        },
        {
          "internalType": "string[]",
          "name": "args",
          "type": "string[]"
        },
        {
          "internalType": "bytes[]",
          "name": "bytesArgs",
          "type": "bytes[]"
        },
        {
          "internalType": "uint64",
          "name": "subscriptionId",
          "type": "uint64"
        },
        {
          "internalType": "uint32",
          "name": "gasLimit",
          "type": "uint32"
        },
        {
          "internalType": "bytes32",
          "name": "donID",
          "type": "bytes32"
        }
      ],
      "name": "sendRequest",
      "outputs": [
        {
          "internalType": "bytes32",
          "name": "requestId",
          "type": "bytes32"
        }
      ],
      "stateMutability": "nonpayable",
      "type": "function"
    },
    {
      "inputs": [
        {
          "internalType": "address",
          "name": "to",
          "type": "address"
        }
      ],
      "name": "transferOwnership",
      "outputs": [],
      "stateMutability": "nonpayable",
      "type": "function"
    }
  ],
  "transactionHash": "0x9580a67811846c1e6711b7df11ab703bed24e44b8023056491f0707f23d72884",
  "args": [
    "0x6E2dc0F9DB014aE19888F539E59285D2Ea04244C"
  ],
  "numDeployments": 8,
  "solcInputHash": "aa1df6baba45a192c996b721cb352e53",
  "bytecode": "0x60a06040523480156200001157600080fd5b50604051620038653803806200386583398181016040528101906200003791906200030d565b33806000838073ffffffffffffffffffffffffffffffffffffffff1660808173ffffffffffffffffffffffffffffffffffffffff168152505050600073ffffffffffffffffffffffffffffffffffffffff168273ffffffffffffffffffffffffffffffffffffffff1603620000e3576040517f08c379a0000000000000000000000000000000000000000000000000000000008152600401620000da90620003a0565b60405180910390fd5b816000806101000a81548173ffffffffffffffffffffffffffffffffffffffff021916908373ffffffffffffffffffffffffffffffffffffffff160217905550600073ffffffffffffffffffffffffffffffffffffffff168173ffffffffffffffffffffffffffffffffffffffff16146200016a5762000169816200017460201b60201c565b5b5050505062000434565b3373ffffffffffffffffffffffffffffffffffffffff168173ffffffffffffffffffffffffffffffffffffffff1603620001e5576040517f08c379a0000000000000000000000000000000000000000000000000000000008152600401620001dc9062000412565b60405180910390fd5b80600160006101000a81548173ffffffffffffffffffffffffffffffffffffffff021916908373ffffffffffffffffffffffffffffffffffffffff1602179055508073ffffffffffffffffffffffffffffffffffffffff1660008054906101000a900473ffffffffffffffffffffffffffffffffffffffff1673ffffffffffffffffffffffffffffffffffffffff167fed8889f560326eb138920d842192f0eb3dd22b4f139c87a2c57538e05bae127860405160405180910390a350565b600080fd5b600073ffffffffffffffffffffffffffffffffffffffff82169050919050565b6000620002d582620002a8565b9050919050565b620002e781620002c8565b8114620002f357600080fd5b50565b6000815190506200030781620002dc565b92915050565b600060208284031215620003265762000325620002a3565b5b60006200033684828501620002f6565b91505092915050565b600082825260208201905092915050565b7f43616e6e6f7420736574206f776e657220746f207a65726f0000000000000000600082015250565b6000620003886018836200033f565b9150620003958262000350565b602082019050919050565b60006020820190508181036000830152620003bb8162000379565b9050919050565b7f43616e6e6f74207472616e7366657220746f2073656c66000000000000000000600082015250565b6000620003fa6017836200033f565b91506200040782620003c2565b602082019050919050565b600060208201905081810360008301526200042d81620003eb565b9050919050565b60805161340e62000457600039600081816103a501526113f0015261340e6000f3fe6080604052600436106100e85760003560e01c80638189b1311161008a578063c6922b5411610059578063c6922b54146102e4578063e9c8c97d14610321578063edea7dfd1461033d578063f2fde38b1461037a576100e8565b80638189b1311461022857806382a10c11146102515780638da5cb5b1461028e578063b1e21749146102b9576100e8565b8063468926bf116100c6578063468926bf1461016c5780634b0795a8146101a957806352a81eeb146101d457806379ba509714610211576100e8565b80630ca76175146100ed5780630e1d1957146101165780633944ea3a14610141575b600080fd5b3480156100f957600080fd5b50610114600480360381019061010f9190611f02565b6103a3565b005b34801561012257600080fd5b5061012b610465565b6040516101389190611fa6565b60405180910390f35b34801561014d57600080fd5b50610156610472565b6040516101639190612040565b60405180910390f35b34801561017857600080fd5b50610193600480360381019061018e919061208e565b610500565b6040516101a09190612110565b60405180910390f35b3480156101b557600080fd5b506101be6105b7565b6040516101cb9190612040565b60405180910390f35b3480156101e057600080fd5b506101fb60048036038101906101f6919061244f565b610645565b6040516102089190612598565b60405180910390f35b34801561021d57600080fd5b506102266106b5565b005b34801561023457600080fd5b5061024f600480360381019061024a91906125b3565b61084a565b005b34801561025d57600080fd5b506102786004803603810190610273919061208e565b610a06565b6040516102859190612040565b60405180910390f35b34801561029a57600080fd5b506102a3610aa6565b6040516102b09190612663565b60405180910390f35b3480156102c557600080fd5b506102ce610acf565b6040516102db9190612598565b60405180910390f35b3480156102f057600080fd5b5061030b6004803603810190610306919061208e565b610ad5565b604051610318919061273c565b60405180910390f35b61033b6004803603810190610336919061208e565b610b88565b005b34801561034957600080fd5b50610364600480360381019061035f919061208e565b610dcb565b6040516103719190611fa6565b60405180910390f35b34801561038657600080fd5b506103a1600480360381019061039c919061278a565b610dfa565b005b7f000000000000000000000000000000000000000000000000000000000000000073ffffffffffffffffffffffffffffffffffffffff163373ffffffffffffffffffffffffffffffffffffffff1614610428576040517fc6829f8300000000000000000000000000000000000000000000000000000000815260040160405180910390fd5b610433838383610e0e565b827f85e1543bf2f84fe80c6badbce3648c8539ad1df4d2b3d822938ca0538be727e660405160405180910390a2505050565b6000600280549050905090565b6005805461047f906127e6565b80601f01602080910402602001604051908101604052809291908181526020018280546104ab906127e6565b80156104f85780601f106104cd576101008083540402835291602001916104f8565b820191906000526020600020905b8154815290600101906020018083116104db57829003601f168201915b505050505081565b60606002828154811061051657610515612817565b5b90600052602060002090600602016005018054610532906127e6565b80601f016020809104026020016040519081016040528092919081815260200182805461055e906127e6565b80156105ab5780601f10610580576101008083540402835291602001916105ab565b820191906000526020600020905b81548152906001019060200180831161058e57829003601f168201915b50505050509050919050565b600680546105c4906127e6565b80601f01602080910402602001604051908101604052809291908181526020018280546105f0906127e6565b801561063d5780601f106106125761010080835404028352916020019161063d565b820191906000526020600020905b81548152906001019060200180831161062057829003601f168201915b505050505081565b600061064f610ee6565b610657611c1f565b61066a8b82610f7690919063ffffffff16565b600087511115610688576106878782610f8790919063ffffffff16565b5b61069c61069482610fcf565b8686866113eb565b6004819055506004549150509998505050505050505050565b600160009054906101000a900473ffffffffffffffffffffffffffffffffffffffff1673ffffffffffffffffffffffffffffffffffffffff163373ffffffffffffffffffffffffffffffffffffffff1614610745576040517f08c379a000000000000000000000000000000000000000000000000000000000815260040161073c90612892565b60405180910390fd5b60008060009054906101000a900473ffffffffffffffffffffffffffffffffffffffff169050336000806101000a81548173ffffffffffffffffffffffffffffffffffffffff021916908373ffffffffffffffffffffffffffffffffffffffff1602179055506000600160006101000a81548173ffffffffffffffffffffffffffffffffffffffff021916908373ffffffffffffffffffffffffffffffffffffffff1602179055503373ffffffffffffffffffffffffffffffffffffffff168173ffffffffffffffffffffffffffffffffffffffff167f8be0079c531659141344cd1fd0a4f28419497f9722a3daafe3b4186f6b6457e060405160405180910390a350565b60008067ffffffffffffffff81111561086657610865611dd7565b5b6040519080825280602002602001820160405280156108945781602001602082028036833780820191505090505b50905060006040518060c001604052803373ffffffffffffffffffffffffffffffffffffffff1681526020018381526020018681526020018581526020016003548152602001848152509050600281908060018154018082558091505060019003906000526020600020906006020160009091909190915060008201518160000160006101000a81548173ffffffffffffffffffffffffffffffffffffffff021916908373ffffffffffffffffffffffffffffffffffffffff160217905550602082015181600101908051906020019061096f929190611c91565b5060408201518160020155606082015181600301556080820151816004015560a08201518160050190816109a39190612a5e565b5050507f9574f6c8401ed36a66ec5b76eebd8617deb7f5629780ba001b08629662471dfa338686600354876040516109df959493929190612b30565b60405180910390a1600360008154809291906109fa90612bb9565b91905055505050505050565b60076020528060005260406000206000915090508054610a25906127e6565b80601f0160208091040260200160405190810160405280929190818152602001828054610a51906127e6565b8015610a9e5780601f10610a7357610100808354040283529160200191610a9e565b820191906000526020600020905b815481529060010190602001808311610a8157829003601f168201915b505050505081565b60008060009054906101000a900473ffffffffffffffffffffffffffffffffffffffff16905090565b60045481565b606060028281548110610aeb57610aea612817565b5b9060005260206000209060060201600101805480602002602001604051908101604052809291908181526020018280548015610b7c57602002820191906000526020600020905b8160009054906101000a900473ffffffffffffffffffffffffffffffffffffffff1673ffffffffffffffffffffffffffffffffffffffff1681526020019060010190808311610b32575b50505050509050919050565b60028181548110610b9c57610b9b612817565b5b906000526020600020906006020160030154341015610bf0576040517f08c379a0000000000000000000000000000000000000000000000000000000008152600401610be790612c73565b60405180910390fd5b600060028281548110610c0657610c05612817565b5b906000526020600020906006020160000160009054906101000a900473ffffffffffffffffffffffffffffffffffffffff1673ffffffffffffffffffffffffffffffffffffffff1634604051610c5b90612cc4565b60006040518083038185875af1925050503d8060008114610c98576040519150601f19603f3d011682016040523d82523d6000602084013e610c9d565b606091505b5050905080610ce1576040517f08c379a0000000000000000000000000000000000000000000000000000000008152600401610cd890612d25565b60405180910390fd5b60028281548110610cf557610cf4612817565b5b9060005260206000209060060201600101339080600181540180825580915050600190039060005260206000200160009091909190916101000a81548173ffffffffffffffffffffffffffffffffffffffff021916908373ffffffffffffffffffffffffffffffffffffffff1602179055507fb7805c98ca12cecf0d6d4c9a5bb7f250cbc2a1eb545e287b4aa0dbff31df5c933360028481548110610d9d57610d9c612817565b5b90600052602060002090600602016003015484604051610dbf93929190612d45565b60405180910390a15050565b600060028281548110610de157610de0612817565b5b9060005260206000209060060201600301549050919050565b610e02610ee6565b610e0b816114ce565b50565b8260045414610e5457826040517fd068bf5b000000000000000000000000000000000000000000000000000000008152600401610e4b9190612598565b60405180910390fd5b8160059081610e639190612dd7565b508060069081610e739190612dd7565b506000825114610ea157816007600060035481526020019081526020016000209081610e9f9190612dd7565b505b827f2f7d16971c2c8a01ed962b316ba875d3ec2326211b6a6fadc7ff5f1d399ee99c60056006600354604051610ed993929190612f2d565b60405180910390a2505050565b60008054906101000a900473ffffffffffffffffffffffffffffffffffffffff1673ffffffffffffffffffffffffffffffffffffffff163373ffffffffffffffffffffffffffffffffffffffff1614610f74576040517f08c379a0000000000000000000000000000000000000000000000000000000008152600401610f6b90612fbe565b60405180910390fd5b565b610f8382600080846115fa565b5050565b6000815103610fc2576040517ffe936cb700000000000000000000000000000000000000000000000000000000815260040160405180910390fd5b808260a001819052505050565b60606000610fde6101006116a4565b90506110286040518060400160405280600c81526020017f636f64654c6f636174696f6e0000000000000000000000000000000000000000815250826116cb90919063ffffffff16565b6110518360000151600281111561104257611041612fde565b5b826116f490919063ffffffff16565b6110996040518060400160405280600881526020017f6c616e6775616765000000000000000000000000000000000000000000000000815250826116cb90919063ffffffff16565b6110c2836040015160008111156110b3576110b2612fde565b5b826116f490919063ffffffff16565b61110a6040518060400160405280600681526020017f736f757263650000000000000000000000000000000000000000000000000000815250826116cb90919063ffffffff16565b6111218360600151826116cb90919063ffffffff16565b60008360a001515111156111dd576111776040518060400160405280600481526020017f6172677300000000000000000000000000000000000000000000000000000000815250826116cb90919063ffffffff16565b61118081611744565b60005b8360a00151518110156111d2576111c18460a0015182815181106111aa576111a9612817565b5b6020026020010151836116cb90919063ffffffff16565b806111cb90612bb9565b9050611183565b506111dc8161176c565b5b6000836080015151111561131e57600060028111156111ff576111fe612fde565b5b8360200151600281111561121657611215612fde565b5b0361124d576040517fa80d31f700000000000000000000000000000000000000000000000000000000815260040160405180910390fd5b6112956040518060400160405280600f81526020017f736563726574734c6f636174696f6e0000000000000000000000000000000000815250826116cb90919063ffffffff16565b6112be836020015160028111156112af576112ae612fde565b5b826116f490919063ffffffff16565b6113066040518060400160405280600781526020017f7365637265747300000000000000000000000000000000000000000000000000815250826116cb90919063ffffffff16565b61131d83608001518261179490919063ffffffff16565b5b60008360c001515111156113da576113746040518060400160405280600981526020017f6279746573417267730000000000000000000000000000000000000000000000815250826116cb90919063ffffffff16565b61137d81611744565b60005b8360c00151518110156113cf576113be8460c0015182815181106113a7576113a6612817565b5b60200260200101518361179490919063ffffffff16565b806113c890612bb9565b9050611380565b506113d98161176c565b5b806000015160000151915050919050565b6000807f000000000000000000000000000000000000000000000000000000000000000073ffffffffffffffffffffffffffffffffffffffff1663461d27628688600188886040518663ffffffff1660e01b8152600401611450959493929190613048565b6020604051808303816000875af115801561146f573d6000803e3d6000fd5b505050506040513d601f19601f8201168201806040525081019061149391906130b7565b9050807f1131472297a800fee664d1d89cfa8f7676ff07189ecc53f80bbb5f4969099db860405160405180910390a280915050949350505050565b3373ffffffffffffffffffffffffffffffffffffffff168173ffffffffffffffffffffffffffffffffffffffff160361153c576040517f08c379a000000000000000000000000000000000000000000000000000000000815260040161153390613130565b60405180910390fd5b80600160006101000a81548173ffffffffffffffffffffffffffffffffffffffff021916908373ffffffffffffffffffffffffffffffffffffffff1602179055508073ffffffffffffffffffffffffffffffffffffffff1660008054906101000a900473ffffffffffffffffffffffffffffffffffffffff1673ffffffffffffffffffffffffffffffffffffffff167fed8889f560326eb138920d842192f0eb3dd22b4f139c87a2c57538e05bae127860405160405180910390a350565b6000815103611635576040517f22ce3edd00000000000000000000000000000000000000000000000000000000815260040160405180910390fd5b828460000190600281111561164d5761164c612fde565b5b9081600281111561166157611660612fde565b5b81525050818460400190600081111561167d5761167c612fde565b5b9081600081111561169157611690612fde565b5b8152505080846060018190525050505050565b6116ac611d1b565b6116ba8160000151836117bd565b506000816020018181525050919050565b6116d88260038351611836565b6116ef8183600001516119df90919063ffffffff16565b505050565b61171660026005600660ff16901b1783600001516119fb90919063ffffffff16565b50611740828260405160200161172c9190611fa6565b604051602081830303815290604052611794565b5050565b61174f816004611a65565b6001816020018181516117629190613150565b9150818152505050565b611777816007611a65565b60018160200181815161178a9190613184565b9150818152505050565b6117a18260028351611836565b6117b88183600001516119df90919063ffffffff16565b505050565b6117c5611d3b565b60006020836117d491906131e7565b14611800576020826117e691906131e7565b60206117f29190613184565b826117fd9190613150565b91505b81836020018181525050604051808452600081528281016020018181101561182757600080fd5b80604052505082905092915050565b60178167ffffffffffffffff16116118715761186b8160058460ff16901b60ff161784600001516119fb90919063ffffffff16565b506119da565b60ff8167ffffffffffffffff16116118cf576118a4601860058460ff16901b1784600001516119fb90919063ffffffff16565b506118c98167ffffffffffffffff1660018560000151611a8b9092919063ffffffff16565b506119d9565b61ffff8167ffffffffffffffff161161192e57611903601960058460ff16901b1784600001516119fb90919063ffffffff16565b506119288167ffffffffffffffff1660028560000151611a8b9092919063ffffffff16565b506119d8565b63ffffffff8167ffffffffffffffff161161198f57611964601a60058460ff16901b1784600001516119fb90919063ffffffff16565b506119898167ffffffffffffffff1660048560000151611a8b9092919063ffffffff16565b506119d7565b6119b0601b60058460ff16901b1784600001516119fb90919063ffffffff16565b506119d58167ffffffffffffffff1660088560000151611a8b9092919063ffffffff16565b505b5b5b5b505050565b6119e7611d3b565b6119f383838451611b18565b905092915050565b611a03611d3b565b600083600001515190506000600182611a1c9190613150565b905084602001518210611a4057611a3f85600283611a3a9190613218565b611bfb565b5b84516020838201018581538151831115611a58578282525b5050849250505092915050565b611a86601f60058360ff16901b1783600001516119fb90919063ffffffff16565b505050565b611a93611d3b565b6000846000015151905060008184611aab9190613150565b90508560200151811115611ad057611acf86600283611aca9190613218565b611bfb565b5b6000600185610100611ae2919061338d565b611aec9190613184565b905086518281018783198251161781528151841115611b09578382525b50508693505050509392505050565b611b20611d3b565b8251821115611b2e57600080fd5b6000846000015151905060008382611b469190613150565b90508560200151811115611b6b57611b6a86600283611b659190613218565b611bfb565b5b60008087518051856020830101935080851115611b86578482525b60208901925050505b60208610611bcd5780518252602082611ba89190613150565b9150602081611bb79190613150565b9050602086611bc69190613184565b9550611b8f565b60006001876020036101000a0390508019825116818451168181178552505050879450505050509392505050565b600082600001519050611c0e83836117bd565b50611c1983826119df565b50505050565b6040518060e0016040528060006002811115611c3e57611c3d612fde565b5b815260200160006002811115611c5757611c56612fde565b5b8152602001600080811115611c6f57611c6e612fde565b5b8152602001606081526020016060815260200160608152602001606081525090565b828054828255906000526020600020908101928215611d0a579160200282015b82811115611d095782518260006101000a81548173ffffffffffffffffffffffffffffffffffffffff021916908373ffffffffffffffffffffffffffffffffffffffff16021790555091602001919060010190611cb1565b5b509050611d179190611d55565b5090565b6040518060400160405280611d2e611d3b565b8152602001600081525090565b604051806040016040528060608152602001600081525090565b5b80821115611d6e576000816000905550600101611d56565b5090565b6000604051905090565b600080fd5b600080fd5b6000819050919050565b611d9981611d86565b8114611da457600080fd5b50565b600081359050611db681611d90565b92915050565b600080fd5b600080fd5b6000601f19601f8301169050919050565b7f4e487b7100000000000000000000000000000000000000000000000000000000600052604160045260246000fd5b611e0f82611dc6565b810181811067ffffffffffffffff82111715611e2e57611e2d611dd7565b5b80604052505050565b6000611e41611d72565b9050611e4d8282611e06565b919050565b600067ffffffffffffffff821115611e6d57611e6c611dd7565b5b611e7682611dc6565b9050602081019050919050565b82818337600083830152505050565b6000611ea5611ea084611e52565b611e37565b905082815260208101848484011115611ec157611ec0611dc1565b5b611ecc848285611e83565b509392505050565b600082601f830112611ee957611ee8611dbc565b5b8135611ef9848260208601611e92565b91505092915050565b600080600060608486031215611f1b57611f1a611d7c565b5b6000611f2986828701611da7565b935050602084013567ffffffffffffffff811115611f4a57611f49611d81565b5b611f5686828701611ed4565b925050604084013567ffffffffffffffff811115611f7757611f76611d81565b5b611f8386828701611ed4565b9150509250925092565b6000819050919050565b611fa081611f8d565b82525050565b6000602082019050611fbb6000830184611f97565b92915050565b600081519050919050565b600082825260208201905092915050565b60005b83811015611ffb578082015181840152602081019050611fe0565b60008484015250505050565b600061201282611fc1565b61201c8185611fcc565b935061202c818560208601611fdd565b61203581611dc6565b840191505092915050565b6000602082019050818103600083015261205a8184612007565b905092915050565b61206b81611f8d565b811461207657600080fd5b50565b60008135905061208881612062565b92915050565b6000602082840312156120a4576120a3611d7c565b5b60006120b284828501612079565b91505092915050565b600081519050919050565b600082825260208201905092915050565b60006120e2826120bb565b6120ec81856120c6565b93506120fc818560208601611fdd565b61210581611dc6565b840191505092915050565b6000602082019050818103600083015261212a81846120d7565b905092915050565b600067ffffffffffffffff82111561214d5761214c611dd7565b5b61215682611dc6565b9050602081019050919050565b600061217661217184612132565b611e37565b90508281526020810184848401111561219257612191611dc1565b5b61219d848285611e83565b509392505050565b600082601f8301126121ba576121b9611dbc565b5b81356121ca848260208601612163565b91505092915050565b600060ff82169050919050565b6121e9816121d3565b81146121f457600080fd5b50565b600081359050612206816121e0565b92915050565b600067ffffffffffffffff82169050919050565b6122298161220c565b811461223457600080fd5b50565b60008135905061224681612220565b92915050565b600067ffffffffffffffff82111561226757612266611dd7565b5b602082029050602081019050919050565b600080fd5b600061229061228b8461224c565b611e37565b905080838252602082019050602084028301858111156122b3576122b2612278565b5b835b818110156122fa57803567ffffffffffffffff8111156122d8576122d7611dbc565b5b8086016122e589826121a5565b855260208501945050506020810190506122b5565b5050509392505050565b600082601f83011261231957612318611dbc565b5b813561232984826020860161227d565b91505092915050565b600067ffffffffffffffff82111561234d5761234c611dd7565b5b602082029050602081019050919050565b600061237161236c84612332565b611e37565b9050808382526020820190506020840283018581111561239457612393612278565b5b835b818110156123db57803567ffffffffffffffff8111156123b9576123b8611dbc565b5b8086016123c68982611ed4565b85526020850194505050602081019050612396565b5050509392505050565b600082601f8301126123fa576123f9611dbc565b5b813561240a84826020860161235e565b91505092915050565b600063ffffffff82169050919050565b61242c81612413565b811461243757600080fd5b50565b60008135905061244981612423565b92915050565b60008060008060008060008060006101208a8c03121561247257612471611d7c565b5b60008a013567ffffffffffffffff8111156124905761248f611d81565b5b61249c8c828d016121a5565b99505060208a013567ffffffffffffffff8111156124bd576124bc611d81565b5b6124c98c828d01611ed4565b98505060406124da8c828d016121f7565b97505060606124eb8c828d01612237565b96505060808a013567ffffffffffffffff81111561250c5761250b611d81565b5b6125188c828d01612304565b95505060a08a013567ffffffffffffffff81111561253957612538611d81565b5b6125458c828d016123e5565b94505060c06125568c828d01612237565b93505060e06125678c828d0161243a565b9250506101006125798c828d01611da7565b9150509295985092959850929598565b61259281611d86565b82525050565b60006020820190506125ad6000830184612589565b92915050565b6000806000606084860312156125cc576125cb611d7c565b5b60006125da86828701611da7565b93505060206125eb86828701612079565b925050604084013567ffffffffffffffff81111561260c5761260b611d81565b5b612618868287016121a5565b9150509250925092565b600073ffffffffffffffffffffffffffffffffffffffff82169050919050565b600061264d82612622565b9050919050565b61265d81612642565b82525050565b60006020820190506126786000830184612654565b92915050565b600081519050919050565b600082825260208201905092915050565b6000819050602082019050919050565b6126b381612642565b82525050565b60006126c583836126aa565b60208301905092915050565b6000602082019050919050565b60006126e98261267e565b6126f38185612689565b93506126fe8361269a565b8060005b8381101561272f57815161271688826126b9565b9750612721836126d1565b925050600181019050612702565b5085935050505092915050565b6000602082019050818103600083015261275681846126de565b905092915050565b61276781612642565b811461277257600080fd5b50565b6000813590506127848161275e565b92915050565b6000602082840312156127a05761279f611d7c565b5b60006127ae84828501612775565b91505092915050565b7f4e487b7100000000000000000000000000000000000000000000000000000000600052602260045260246000fd5b600060028204905060018216806127fe57607f821691505b602082108103612811576128106127b7565b5b50919050565b7f4e487b7100000000000000000000000000000000000000000000000000000000600052603260045260246000fd5b7f4d7573742062652070726f706f736564206f776e657200000000000000000000600082015250565b600061287c6016836120c6565b915061288782612846565b602082019050919050565b600060208201905081810360008301526128ab8161286f565b9050919050565b60008190508160005260206000209050919050565b60006020601f8301049050919050565b600082821b905092915050565b6000600883026129147fffffffffffffffffffffffffffffffffffffffffffffffffffffffffffffffff826128d7565b61291e86836128d7565b95508019841693508086168417925050509392505050565b6000819050919050565b600061295b61295661295184611f8d565b612936565b611f8d565b9050919050565b6000819050919050565b61297583612940565b61298961298182612962565b8484546128e4565b825550505050565b600090565b61299e612991565b6129a981848461296c565b505050565b5b818110156129cd576129c2600082612996565b6001810190506129af565b5050565b601f821115612a12576129e3816128b2565b6129ec846128c7565b810160208510156129fb578190505b612a0f612a07856128c7565b8301826129ae565b50505b505050565b600082821c905092915050565b6000612a3560001984600802612a17565b1980831691505092915050565b6000612a4e8383612a24565b9150826002028217905092915050565b612a67826120bb565b67ffffffffffffffff811115612a8057612a7f611dd7565b5b612a8a82546127e6565b612a958282856129d1565b600060209050601f831160018114612ac85760008415612ab6578287015190505b612ac08582612a42565b865550612b28565b601f198416612ad6866128b2565b60005b82811015612afe57848901518255600182019150602085019450602081019050612ad9565b86831015612b1b5784890151612b17601f891682612a24565b8355505b6001600288020188555050505b505050505050565b600060a082019050612b456000830188612654565b612b526020830187612589565b612b5f6040830186611f97565b612b6c6060830185611f97565b8181036080830152612b7e81846120d7565b90509695505050505050565b7f4e487b7100000000000000000000000000000000000000000000000000000000600052601160045260246000fd5b6000612bc482611f8d565b91507fffffffffffffffffffffffffffffffffffffffffffffffffffffffffffffffff8203612bf657612bf5612b8a565b5b600182019050919050565b7f596f7520646f6e27742073656e6420656e6f7567682065746820746f2062757960008201527f2074686520646174612100000000000000000000000000000000000000000000602082015250565b6000612c5d602a836120c6565b9150612c6882612c01565b604082019050919050565b60006020820190508181036000830152612c8c81612c50565b9050919050565b600081905092915050565b50565b6000612cae600083612c93565b9150612cb982612c9e565b600082019050919050565b6000612ccf82612ca1565b9150819050919050565b7f5472616e73616374696f6e28627579206461746129204661696c656421000000600082015250565b6000612d0f601d836120c6565b9150612d1a82612cd9565b602082019050919050565b60006020820190508181036000830152612d3e81612d02565b9050919050565b6000606082019050612d5a6000830186612654565b612d676020830185611f97565b612d746040830184611f97565b949350505050565b60008190508160005260206000209050919050565b601f821115612dd257612da381612d7c565b612dac846128c7565b81016020851015612dbb578190505b612dcf612dc7856128c7565b8301826129ae565b50505b505050565b612de082611fc1565b67ffffffffffffffff811115612df957612df8611dd7565b5b612e0382546127e6565b612e0e828285612d91565b600060209050601f831160018114612e415760008415612e2f578287015190505b612e398582612a42565b865550612ea1565b601f198416612e4f86612d7c565b60005b82811015612e7757848901518255600182019150602085019450602081019050612e52565b86831015612e945784890151612e90601f891682612a24565b8355505b6001600288020188555050505b505050505050565b60008154612eb6816127e6565b612ec08186611fcc565b94506001821660008114612edb5760018114612ef157612f24565b60ff198316865281151560200286019350612f24565b612efa85612d7c565b60005b83811015612f1c57815481890152600182019150602081019050612efd565b808801955050505b50505092915050565b60006060820190508181036000830152612f478186612ea9565b90508181036020830152612f5b8185612ea9565b9050612f6a6040830184611f97565b949350505050565b7f4f6e6c792063616c6c61626c65206279206f776e657200000000000000000000600082015250565b6000612fa86016836120c6565b9150612fb382612f72565b602082019050919050565b60006020820190508181036000830152612fd781612f9b565b9050919050565b7f4e487b7100000000000000000000000000000000000000000000000000000000600052602160045260246000fd5b6130168161220c565b82525050565b600061ffff82169050919050565b6130338161301c565b82525050565b61304281612413565b82525050565b600060a08201905061305d600083018861300d565b818103602083015261306f8187612007565b905061307e604083018661302a565b61308b6060830185613039565b6130986080830184612589565b9695505050505050565b6000815190506130b181611d90565b92915050565b6000602082840312156130cd576130cc611d7c565b5b60006130db848285016130a2565b91505092915050565b7f43616e6e6f74207472616e7366657220746f2073656c66000000000000000000600082015250565b600061311a6017836120c6565b9150613125826130e4565b602082019050919050565b600060208201905081810360008301526131498161310d565b9050919050565b600061315b82611f8d565b915061316683611f8d565b925082820190508082111561317e5761317d612b8a565b5b92915050565b600061318f82611f8d565b915061319a83611f8d565b92508282039050818111156131b2576131b1612b8a565b5b92915050565b7f4e487b7100000000000000000000000000000000000000000000000000000000600052601260045260246000fd5b60006131f282611f8d565b91506131fd83611f8d565b92508261320d5761320c6131b8565b5b828206905092915050565b600061322382611f8d565b915061322e83611f8d565b925082820261323c81611f8d565b9150828204841483151761325357613252612b8a565b5b5092915050565b60008160011c9050919050565b6000808291508390505b60018511156132b15780860481111561328d5761328c612b8a565b5b600185161561329c5780820291505b80810290506132aa8561325a565b9450613271565b94509492505050565b6000826132ca5760019050613386565b816132d85760009050613386565b81600181146132ee57600281146132f857613327565b6001915050613386565b60ff84111561330a57613309612b8a565b5b8360020a91508482111561332157613320612b8a565b5b50613386565b5060208310610133831016604e8410600b841016171561335c5782820a90508381111561335757613356612b8a565b5b613386565b6133698484846001613267565b925090508184048111156133805761337f612b8a565b5b81810290505b9392505050565b600061339882611f8d565b91506133a383611f8d565b92506133d07fffffffffffffffffffffffffffffffffffffffffffffffffffffffffffffffff84846132ba565b90509291505056fea26469706673582212208384f5628960ef393f773177b45d85eb12678778a300dc066f7be8b6fc7bd1ad64736f6c63430008140033",
  "devdoc": {
    "kind": "dev",
    "methods": {
      "handleOracleFulfillment(bytes32,bytes,bytes)": {
        "details": "Either response or error parameter will be set, but never both.",
        "params": {
          "err": "Aggregated error either from the request's source code or from the execution pipeline.",
          "requestId": "The requestId returned by FunctionsClient.sendRequest().",
          "response": "Aggregated response from the request's source code."
        }
      }
    },
    "version": 1
  },
  "userdoc": {
    "kind": "user",
    "methods": {
      "acceptOwnership()": {
        "notice": "Allows an ownership transfer to be completed by the recipient."
      },
      "handleOracleFulfillment(bytes32,bytes,bytes)": {
        "notice": "Chainlink Functions response handler called by the Functions Router during fullilment from the designated transmitter node in an OCR round."
      },
      "owner()": {
        "notice": "Get the current owner"
      },
      "transferOwnership(address)": {
        "notice": "Allows an owner to begin transferring ownership to a new address, pending."
      }
    },
    "version": 1
  },
  "storageLayout": {
    "storage": [
      {
        "astId": 991,
        "contract": "contracts/Validata.sol:Validata",
        "label": "s_owner",
        "offset": 0,
        "slot": "0",
        "type": "t_address"
      },
      {
        "astId": 993,
        "contract": "contracts/Validata.sol:Validata",
        "label": "s_pendingOwner",
        "offset": 0,
        "slot": "1",
        "type": "t_address"
      },
      {
        "astId": 2516,
        "contract": "contracts/Validata.sol:Validata",
        "label": "dataList",
        "offset": 0,
        "slot": "2",
        "type": "t_array(t_struct(Data)2468_storage)dyn_storage"
      },
      {
        "astId": 2518,
        "contract": "contracts/Validata.sol:Validata",
        "label": "data_id",
        "offset": 0,
        "slot": "3",
        "type": "t_uint256"
      },
      {
        "astId": 2520,
        "contract": "contracts/Validata.sol:Validata",
        "label": "s_lastRequestId",
        "offset": 0,
        "slot": "4",
        "type": "t_bytes32"
      },
      {
        "astId": 2522,
        "contract": "contracts/Validata.sol:Validata",
        "label": "s_lastResponse",
        "offset": 0,
        "slot": "5",
        "type": "t_bytes_storage"
      },
      {
        "astId": 2524,
        "contract": "contracts/Validata.sol:Validata",
        "label": "s_lastError",
        "offset": 0,
        "slot": "6",
        "type": "t_bytes_storage"
      },
      {
        "astId": 2528,
        "contract": "contracts/Validata.sol:Validata",
        "label": "DataIdToDataHash",
        "offset": 0,
        "slot": "7",
        "type": "t_mapping(t_uint256,t_bytes_storage)"
      }
    ],
    "types": {
      "t_address": {
        "encoding": "inplace",
        "label": "address",
        "numberOfBytes": "20"
      },
      "t_array(t_address)dyn_storage": {
        "base": "t_address",
        "encoding": "dynamic_array",
        "label": "address[]",
        "numberOfBytes": "32"
      },
      "t_array(t_struct(Data)2468_storage)dyn_storage": {
        "base": "t_struct(Data)2468_storage",
        "encoding": "dynamic_array",
        "label": "struct Validata.Data[]",
        "numberOfBytes": "32"
      },
      "t_bytes32": {
        "encoding": "inplace",
        "label": "bytes32",
        "numberOfBytes": "32"
      },
      "t_bytes_storage": {
        "encoding": "bytes",
        "label": "bytes",
        "numberOfBytes": "32"
      },
      "t_mapping(t_uint256,t_bytes_storage)": {
        "encoding": "mapping",
        "key": "t_uint256",
        "label": "mapping(uint256 => bytes)",
        "numberOfBytes": "32",
        "value": "t_bytes_storage"
      },
      "t_string_storage": {
        "encoding": "bytes",
        "label": "string",
        "numberOfBytes": "32"
      },
      "t_struct(Data)2468_storage": {
        "encoding": "inplace",
        "label": "struct Validata.Data",
        "members": [
          {
            "astId": 2456,
            "contract": "contracts/Validata.sol:Validata",
            "label": "Creater",
            "offset": 0,
            "slot": "0",
            "type": "t_address"
          },
          {
            "astId": 2459,
            "contract": "contracts/Validata.sol:Validata",
            "label": "User",
            "offset": 0,
            "slot": "1",
            "type": "t_array(t_address)dyn_storage"
          },
          {
            "astId": 2461,
            "contract": "contracts/Validata.sol:Validata",
            "label": "dataHash",
            "offset": 0,
            "slot": "2",
            "type": "t_bytes32"
          },
          {
            "astId": 2463,
            "contract": "contracts/Validata.sol:Validata",
            "label": "dataPrice",
            "offset": 0,
            "slot": "3",
            "type": "t_uint256"
          },
          {
            "astId": 2465,
            "contract": "contracts/Validata.sol:Validata",
            "label": "dataId",
            "offset": 0,
            "slot": "4",
            "type": "t_uint256"
          },
          {
            "astId": 2467,
            "contract": "contracts/Validata.sol:Validata",
            "label": "dataDescribe",
            "offset": 0,
            "slot": "5",
            "type": "t_string_storage"
          }
        ],
        "numberOfBytes": "192"
      },
      "t_uint256": {
        "encoding": "inplace",
        "label": "uint256",
        "numberOfBytes": "32"
      }
    }
  }
}